{"contracts/Helpa.sol":{"Helpa":{"abi":[{"inputs":[{"internalType":"uint256","name":"_index","type":"uint256"},{"internalType":"enum Helpa.Status","name":"_status","type":"uint8"}],"name":"confirmService","outputs":[],"stateMutability":"nonpayable","type":"function"},{"inputs":[{"internalType":"uint256","name":"vendorIndex","type":"uint256"},{"internalType":"address payable","name":"vendor","type":"address"}],"name":"createTransaction","outputs":[],"stateMutability":"payable","type":"function"},{"inputs":[{"internalType":"string","name":"_businessName","type":"string"},{"internalType":"string","name":"_profession","type":"string"},{"internalType":"string","name":"_UDName","type":"string"},{"internalType":"string","name":"_imgUrl","type":"string"},{"internalType":"string","name":"_description","type":"string"},{"internalType":"uint256","name":"_price","type":"uint256"}],"name":"createVendor","outputs":[],"stateMutability":"nonpayable","type":"function"},{"inputs":[],"name":"getBal","outputs":[{"internalType":"uint256","name":"","type":"uint256"}],"stateMutability":"view","type":"function"},{"inputs":[],"name":"getTransactionCount","outputs":[{"internalType":"uint256","name":"","type":"uint256"}],"stateMutability":"view","type":"function"},{"inputs":[{"internalType":"uint256","name":"_index","type":"uint256"}],"name":"getTransactions","outputs":[{"internalType":"uint256","name":"vendorIndex","type":"uint256"},{"internalType":"address","name":"vendor","type":"address"},{"internalType":"address","name":"customer","type":"address"},{"internalType":"uint256","name":"amount","type":"uint256"},{"internalType":"enum Helpa.Status","name":"status","type":"uint8"},{"internalType":"uint256","name":"dateCreated","type":"uint256"},{"internalType":"uint256","name":"dateCompleted","type":"uint256"},{"internalType":"uint256","name":"dateReviewing","type":"uint256"}],"stateMutability":"view","type":"function"},{"inputs":[],"name":"getVendorCount","outputs":[{"internalType":"uint256","name":"","type":"uint256"}],"stateMutability":"view","type":"function"},{"inputs":[{"internalType":"uint256","name":"_index","type":"uint256"}],"name":"getVendors","outputs":[{"internalType":"address","name":"vendorAddress","type":"address"},{"internalType":"string","name":"businessName","type":"string"},{"internalType":"string","name":"UDName","type":"string"},{"internalType":"string","name":"imgUrl","type":"string"},{"internalType":"string","name":"description","type":"string"},{"internalType":"string","name":"profession","type":"string"},{"internalType":"uint256","name":"price","type":"uint256"}],"stateMutability":"view","type":"function"},{"inputs":[{"internalType":"uint256","name":"_index","type":"uint256"}],"name":"serviceReviewing","outputs":[],"stateMutability":"nonpayable","type":"function"},{"inputs":[{"internalType":"address payable","name":"_to","type":"address"},{"internalType":"uint256","name":"_amount","type":"uint256"}],"name":"transfer","outputs":[{"internalType":"bool","name":"","type":"bool"}],"stateMutability":"nonpayable","type":"function"},{"inputs":[],"name":"vendorCount","outputs":[{"internalType":"uint256","name":"","type":"uint256"}],"stateMutability":"view","type":"function"},{"inputs":[{"internalType":"address","name":"","type":"address"}],"name":"vendorExists","outputs":[{"internalType":"bool","name":"","type":"bool"}],"stateMutability":"view","type":"function"}],"evm":{"bytecode":{"linkReferences":{},"object":"608060405234801561001057600080fd5b50612002806100206000396000f3fe6080604052600436106100a75760003560e01c80638858287b116100645780638858287b146101c857806395c81163146101f3578063a12eba7c1461021c578063a9059cbb14610247578063dce9ed6114610284578063dd970f10146102ad576100a7565b806325caa262146100ac5780632e7700f0146100d75780635742177c146101025780635c05873814610146578063609f2f4a146101835780637cf4c543146101ac575b600080fd5b3480156100b857600080fd5b506100c16102f0565b6040516100ce919061113c565b60405180910390f35b3480156100e357600080fd5b506100ec6102f8565b6040516100f9919061113c565b60405180910390f35b34801561010e57600080fd5b5061012960048036038101906101249190611197565b610347565b60405161013d98979695949392919061127c565b60405180910390f35b34801561015257600080fd5b5061016d60048036038101906101689190611326565b610447565b60405161017a919061136e565b60405180910390f35b34801561018f57600080fd5b506101aa60048036038101906101a591906114cf565b610467565b005b6101c660048036038101906101c19190611626565b610647565b005b3480156101d457600080fd5b506101dd610884565b6040516101ea919061113c565b60405180910390f35b3480156101ff57600080fd5b5061021a6004803603810190610215919061168b565b61088a565b005b34801561022857600080fd5b50610231610b87565b60405161023e919061113c565b60405180910390f35b34801561025357600080fd5b5061026e600480360381019061026991906116cb565b610b90565b60405161027b919061136e565b60405180910390f35b34801561029057600080fd5b506102ab60048036038101906102a69190611197565b610c47565b005b3480156102b957600080fd5b506102d460048036038101906102cf9190611197565b610ded565b6040516102e7979695949392919061178a565b60405180910390f35b600047905090565b600080600160003373ffffffffffffffffffffffffffffffffffffffff1673ffffffffffffffffffffffffffffffffffffffff1681526020019081526020016000209050806000015491505090565b6000806000806000806000806000600260003373ffffffffffffffffffffffffffffffffffffffff1673ffffffffffffffffffffffffffffffffffffffff1681526020019081526020016000208a815481106103a6576103a561181c565b5b9060005260206000209060080201905080600001548160010160009054906101000a900473ffffffffffffffffffffffffffffffffffffffff168260020160009054906101000a900473ffffffffffffffffffffffffffffffffffffffff1683600301548460040160009054906101000a900460ff168560050154866006015487600701549850985098509850985098509850985050919395975091939597565b60046020528060005260406000206000915054906101000a900460ff1681565b60001515600460003373ffffffffffffffffffffffffffffffffffffffff1673ffffffffffffffffffffffffffffffffffffffff16815260200190815260200160002060009054906101000a900460ff161515146104fa576040517f08c379a00000000000000000000000000000000000000000000000000000000081526004016104f190611897565b60405180910390fd5b600080600060036000805481526020019081526020016000209050338160000160006101000a81548173ffffffffffffffffffffffffffffffffffffffff021916908373ffffffffffffffffffffffffffffffffffffffff160217905550888160010190816105699190611ac3565b508781600201908161057b9190611ac3565b508681600301908161058d9190611ac3565b508581600401908161059f9190611ac3565b50848160050190816105b19190611ac3565b508381600601819055508281600701819055508181600801819055506001600460003373ffffffffffffffffffffffffffffffffffffffff1673ffffffffffffffffffffffffffffffffffffffff16815260200190815260200160002060006101000a81548160ff02191690831515021790555060008081548092919061063790611bc4565b9190505550505050505050505050565b600060019050600260003373ffffffffffffffffffffffffffffffffffffffff1673ffffffffffffffffffffffffffffffffffffffff1681526020019081526020016000206040518061010001604052808581526020018473ffffffffffffffffffffffffffffffffffffffff1681526020013373ffffffffffffffffffffffffffffffffffffffff1681526020013481526020018360038111156106ef576106ee611205565b5b815260200142815260200160008152602001600081525090806001815401808255809150506001900390600052602060002090600802016000909190919091506000820151816000015560208201518160010160006101000a81548173ffffffffffffffffffffffffffffffffffffffff021916908373ffffffffffffffffffffffffffffffffffffffff16021790555060408201518160020160006101000a81548173ffffffffffffffffffffffffffffffffffffffff021916908373ffffffffffffffffffffffffffffffffffffffff1602179055506060820151816003015560808201518160040160006101000a81548160ff021916908360038111156107fc576107fb611205565b5b021790555060a0820151816005015560c0820151816006015560e0820151816007015550506000600160003373ffffffffffffffffffffffffffffffffffffffff1673ffffffffffffffffffffffffffffffffffffffff168152602001908152602001600020905080600001600081548092919061087990611bc4565b919050555050505050565b60005481565b6002600381111561089e5761089d611205565b5b8160038111156108b1576108b0611205565b5b146108f1576040517f08c379a00000000000000000000000000000000000000000000000000000000081526004016108e890611c7e565b60405180910390fd5b6000600260003373ffffffffffffffffffffffffffffffffffffffff1673ffffffffffffffffffffffffffffffffffffffff16815260200190815260200160002083815481106109445761094361181c565b5b906000526020600020906008020190503373ffffffffffffffffffffffffffffffffffffffff168160020160009054906101000a900473ffffffffffffffffffffffffffffffffffffffff1673ffffffffffffffffffffffffffffffffffffffff16146109e6576040517f08c379a00000000000000000000000000000000000000000000000000000000081526004016109dd90611d10565b60405180910390fd5b6003808111156109f9576109f8611205565b5b8160040160009054906101000a900460ff166003811115610a1d57610a1c611205565b5b14610a5d576040517f08c379a0000000000000000000000000000000000000000000000000000000008152600401610a5490611da2565b60405180910390fd5b600380811115610a7057610a6f611205565b5b826003811115610a8357610a82611205565b5b03610b55576000610abc8260010160009054906101000a900473ffffffffffffffffffffffffffffffffffffffff168360030154610b90565b90508015610b4f57828260040160006101000a81548160ff02191690836003811115610aeb57610aea611205565b5b02179055504282600601819055506000600360008460000154815260200190815260200160002090508260030154816007016000828254610b2c9190611dc2565b92505081905550806008016000815480929190610b4890611bc4565b9190505550505b50610b82565b818160040160006101000a81548160ff02191690836003811115610b7c57610b7b611205565b5b02179055505b505050565b60008054905090565b6000808373ffffffffffffffffffffffffffffffffffffffff1683604051610bb790611e27565b60006040518083038185875af1925050503d8060008114610bf4576040519150601f19603f3d011682016040523d82523d6000602084013e610bf9565b606091505b5050905080610c3d576040517f08c379a0000000000000000000000000000000000000000000000000000000008152600401610c3490611e88565b60405180910390fd5b8091505092915050565b6000600260003373ffffffffffffffffffffffffffffffffffffffff1673ffffffffffffffffffffffffffffffffffffffff1681526020019081526020016000208281548110610c9a57610c9961181c565b5b906000526020600020906008020190503373ffffffffffffffffffffffffffffffffffffffff168160010160009054906101000a900473ffffffffffffffffffffffffffffffffffffffff1673ffffffffffffffffffffffffffffffffffffffff1614610d3c576040517f08c379a0000000000000000000000000000000000000000000000000000000008152600401610d3390611f1a565b60405180910390fd5b600380811115610d4f57610d4e611205565b5b8160040160009054906101000a900460ff166003811115610d7357610d72611205565b5b03610db3576040517f08c379a0000000000000000000000000000000000000000000000000000000008152600401610daa90611fac565b60405180910390fd5b60028160040160006101000a81548160ff02191690836003811115610ddb57610dda611205565b5b02179055504281600701819055505050565b60006060806060806060600080600360008a815260200190815260200160002090508060000160009054906101000a900473ffffffffffffffffffffffffffffffffffffffff1681600101826003018360040184600501856002018660060154858054610e59906118e6565b80601f0160208091040260200160405190810160405280929190818152602001828054610e85906118e6565b8015610ed25780601f10610ea757610100808354040283529160200191610ed2565b820191906000526020600020905b815481529060010190602001808311610eb557829003601f168201915b50505050509550848054610ee5906118e6565b80601f0160208091040260200160405190810160405280929190818152602001828054610f11906118e6565b8015610f5e5780601f10610f3357610100808354040283529160200191610f5e565b820191906000526020600020905b815481529060010190602001808311610f4157829003601f168201915b50505050509450838054610f71906118e6565b80601f0160208091040260200160405190810160405280929190818152602001828054610f9d906118e6565b8015610fea5780601f10610fbf57610100808354040283529160200191610fea565b820191906000526020600020905b815481529060010190602001808311610fcd57829003601f168201915b50505050509350828054610ffd906118e6565b80601f0160208091040260200160405190810160405280929190818152602001828054611029906118e6565b80156110765780601f1061104b57610100808354040283529160200191611076565b820191906000526020600020905b81548152906001019060200180831161105957829003601f168201915b50505050509250818054611089906118e6565b80601f01602080910402602001604051908101604052809291908181526020018280546110b5906118e6565b80156111025780601f106110d757610100808354040283529160200191611102565b820191906000526020600020905b8154815290600101906020018083116110e557829003601f168201915b50505050509150975097509750975097509750975050919395979092949650565b6000819050919050565b61113681611123565b82525050565b6000602082019050611151600083018461112d565b92915050565b6000604051905090565b600080fd5b600080fd5b61117481611123565b811461117f57600080fd5b50565b6000813590506111918161116b565b92915050565b6000602082840312156111ad576111ac611161565b5b60006111bb84828501611182565b91505092915050565b600073ffffffffffffffffffffffffffffffffffffffff82169050919050565b60006111ef826111c4565b9050919050565b6111ff816111e4565b82525050565b7f4e487b7100000000000000000000000000000000000000000000000000000000600052602160045260246000fd5b6004811061124557611244611205565b5b50565b600081905061125682611234565b919050565b600061126682611248565b9050919050565b6112768161125b565b82525050565b600061010082019050611292600083018b61112d565b61129f602083018a6111f6565b6112ac60408301896111f6565b6112b9606083018861112d565b6112c6608083018761126d565b6112d360a083018661112d565b6112e060c083018561112d565b6112ed60e083018461112d565b9998505050505050505050565b611303816111e4565b811461130e57600080fd5b50565b600081359050611320816112fa565b92915050565b60006020828403121561133c5761133b611161565b5b600061134a84828501611311565b91505092915050565b60008115159050919050565b61136881611353565b82525050565b6000602082019050611383600083018461135f565b92915050565b600080fd5b600080fd5b6000601f19601f8301169050919050565b7f4e487b7100000000000000000000000000000000000000000000000000000000600052604160045260246000fd5b6113dc82611393565b810181811067ffffffffffffffff821117156113fb576113fa6113a4565b5b80604052505050565b600061140e611157565b905061141a82826113d3565b919050565b600067ffffffffffffffff82111561143a576114396113a4565b5b61144382611393565b9050602081019050919050565b82818337600083830152505050565b600061147261146d8461141f565b611404565b90508281526020810184848401111561148e5761148d61138e565b5b611499848285611450565b509392505050565b600082601f8301126114b6576114b5611389565b5b81356114c684826020860161145f565b91505092915050565b60008060008060008060c087890312156114ec576114eb611161565b5b600087013567ffffffffffffffff81111561150a57611509611166565b5b61151689828a016114a1565b965050602087013567ffffffffffffffff81111561153757611536611166565b5b61154389828a016114a1565b955050604087013567ffffffffffffffff81111561156457611563611166565b5b61157089828a016114a1565b945050606087013567ffffffffffffffff81111561159157611590611166565b5b61159d89828a016114a1565b935050608087013567ffffffffffffffff8111156115be576115bd611166565b5b6115ca89828a016114a1565b92505060a06115db89828a01611182565b9150509295509295509295565b60006115f3826111c4565b9050919050565b611603816115e8565b811461160e57600080fd5b50565b600081359050611620816115fa565b92915050565b6000806040838503121561163d5761163c611161565b5b600061164b85828601611182565b925050602061165c85828601611611565b9150509250929050565b6004811061167357600080fd5b50565b60008135905061168581611666565b92915050565b600080604083850312156116a2576116a1611161565b5b60006116b085828601611182565b92505060206116c185828601611676565b9150509250929050565b600080604083850312156116e2576116e1611161565b5b60006116f085828601611611565b925050602061170185828601611182565b9150509250929050565b600081519050919050565b600082825260208201905092915050565b60005b8381101561174557808201518184015260208101905061172a565b60008484015250505050565b600061175c8261170b565b6117668185611716565b9350611776818560208601611727565b61177f81611393565b840191505092915050565b600060e08201905061179f600083018a6111f6565b81810360208301526117b18189611751565b905081810360408301526117c58188611751565b905081810360608301526117d98187611751565b905081810360808301526117ed8186611751565b905081810360a08301526118018185611751565b905061181060c083018461112d565b98975050505050505050565b7f4e487b7100000000000000000000000000000000000000000000000000000000600052603260045260246000fd5b7f56656e646f7220616c7265616479206578697374730000000000000000000000600082015250565b6000611881601583611716565b915061188c8261184b565b602082019050919050565b600060208201905081810360008301526118b081611874565b9050919050565b7f4e487b7100000000000000000000000000000000000000000000000000000000600052602260045260246000fd5b600060028204905060018216806118fe57607f821691505b602082108103611911576119106118b7565b5b50919050565b60008190508160005260206000209050919050565b60006020601f8301049050919050565b600082821b905092915050565b6000600883026119797fffffffffffffffffffffffffffffffffffffffffffffffffffffffffffffffff8261193c565b611983868361193c565b95508019841693508086168417925050509392505050565b6000819050919050565b60006119c06119bb6119b684611123565b61199b565b611123565b9050919050565b6000819050919050565b6119da836119a5565b6119ee6119e6826119c7565b848454611949565b825550505050565b600090565b611a036119f6565b611a0e8184846119d1565b505050565b5b81811015611a3257611a276000826119fb565b600181019050611a14565b5050565b601f821115611a7757611a4881611917565b611a518461192c565b81016020851015611a60578190505b611a74611a6c8561192c565b830182611a13565b50505b505050565b600082821c905092915050565b6000611a9a60001984600802611a7c565b1980831691505092915050565b6000611ab38383611a89565b9150826002028217905092915050565b611acc8261170b565b67ffffffffffffffff811115611ae557611ae46113a4565b5b611aef82546118e6565b611afa828285611a36565b600060209050601f831160018114611b2d5760008415611b1b578287015190505b611b258582611aa7565b865550611b8d565b601f198416611b3b86611917565b60005b82811015611b6357848901518255600182019150602085019450602081019050611b3e565b86831015611b805784890151611b7c601f891682611a89565b8355505b6001600288020188555050505b505050505050565b7f4e487b7100000000000000000000000000000000000000000000000000000000600052601160045260246000fd5b6000611bcf82611123565b91507fffffffffffffffffffffffffffffffffffffffffffffffffffffffffffffffff8203611c0157611c00611b95565b5b600182019050919050565b7f5472616e73616374696f6e2063616e206f6e6c792062652073656e7420666f7260008201527f20726576696577206279207468652056656e646f720000000000000000000000602082015250565b6000611c68603583611716565b9150611c7382611c0c565b604082019050919050565b60006020820190508181036000830152611c9781611c5b565b9050919050565b7f4f6e6c792074686520637573746f6d65722063616e20636f6e6669726d20746860008201527f6520736572766963650000000000000000000000000000000000000000000000602082015250565b6000611cfa602983611716565b9150611d0582611c9e565b604082019050919050565b60006020820190508181036000830152611d2981611ced565b9050919050565b7f5472616e73616374696f6e20686173206265656e20636f6d706c65746564206160008201527f6c72656164790000000000000000000000000000000000000000000000000000602082015250565b6000611d8c602683611716565b9150611d9782611d30565b604082019050919050565b60006020820190508181036000830152611dbb81611d7f565b9050919050565b6000611dcd82611123565b9150611dd883611123565b9250828201905080821115611df057611def611b95565b5b92915050565b600081905092915050565b50565b6000611e11600083611df6565b9150611e1c82611e01565b600082019050919050565b6000611e3282611e04565b9150819050919050565b7f4661696c656420746f2073656e64204574686572000000000000000000000000600082015250565b6000611e72601483611716565b9150611e7d82611e3c565b602082019050919050565b60006020820190508181036000830152611ea181611e65565b9050919050565b7f4f6e6c79207468652056656e646f722063616e20636f6e6669726d207365727660008201527f69636520636f6d706c6574656400000000000000000000000000000000000000602082015250565b6000611f04602d83611716565b9150611f0f82611ea8565b604082019050919050565b60006020820190508181036000830152611f3381611ef7565b9050919050565b7f4f6e6c792074686520437573746f6d65722063616e20636f6e6669726d20736560008201527f727669636520636f6d706c657465640000000000000000000000000000000000602082015250565b6000611f96602f83611716565b9150611fa182611f3a565b604082019050919050565b60006020820190508181036000830152611fc581611f89565b905091905056fea2646970667358221220e3aa8d7880d573492c7710a42016116bc9310ffdea85718a49e7ebe5899e15fe64736f6c63430008110033","opcodes":"PUSH1 0x80 PUSH1 0x40 MSTORE CALLVALUE DUP1 ISZERO PUSH2 0x10 JUMPI PUSH1 0x0 DUP1 REVERT JUMPDEST POP PUSH2 0x2002 DUP1 PUSH2 0x20 PUSH1 0x0 CODECOPY PUSH1 0x0 RETURN INVALID PUSH1 0x80 PUSH1 0x40 MSTORE PUSH1 0x4 CALLDATASIZE LT PUSH2 0xA7 JUMPI PUSH1 0x0 CALLDATALOAD PUSH1 0xE0 SHR DUP1 PUSH4 0x8858287B GT PUSH2 0x64 JUMPI DUP1 PUSH4 0x8858287B EQ PUSH2 0x1C8 JUMPI DUP1 PUSH4 0x95C81163 EQ PUSH2 0x1F3 JUMPI DUP1 PUSH4 0xA12EBA7C EQ PUSH2 0x21C JUMPI DUP1 PUSH4 0xA9059CBB EQ PUSH2 0x247 JUMPI DUP1 PUSH4 0xDCE9ED61 EQ PUSH2 0x284 JUMPI DUP1 PUSH4 0xDD970F10 EQ PUSH2 0x2AD JUMPI PUSH2 0xA7 JUMP JUMPDEST DUP1 PUSH4 0x25CAA262 EQ PUSH2 0xAC JUMPI DUP1 PUSH4 0x2E7700F0 EQ PUSH2 0xD7 JUMPI DUP1 PUSH4 0x5742177C EQ PUSH2 0x102 JUMPI DUP1 PUSH4 0x5C058738 EQ PUSH2 0x146 JUMPI DUP1 PUSH4 0x609F2F4A EQ PUSH2 0x183 JUMPI DUP1 PUSH4 0x7CF4C543 EQ PUSH2 0x1AC JUMPI JUMPDEST PUSH1 0x0 DUP1 REVERT JUMPDEST CALLVALUE DUP1 ISZERO PUSH2 0xB8 JUMPI PUSH1 0x0 DUP1 REVERT JUMPDEST POP PUSH2 0xC1 PUSH2 0x2F0 JUMP JUMPDEST PUSH1 0x40 MLOAD PUSH2 0xCE SWAP2 SWAP1 PUSH2 0x113C JUMP JUMPDEST PUSH1 0x40 MLOAD DUP1 SWAP2 SUB SWAP1 RETURN JUMPDEST CALLVALUE DUP1 ISZERO PUSH2 0xE3 JUMPI PUSH1 0x0 DUP1 REVERT JUMPDEST POP PUSH2 0xEC PUSH2 0x2F8 JUMP JUMPDEST PUSH1 0x40 MLOAD PUSH2 0xF9 SWAP2 SWAP1 PUSH2 0x113C JUMP JUMPDEST PUSH1 0x40 MLOAD DUP1 SWAP2 SUB SWAP1 RETURN JUMPDEST CALLVALUE DUP1 ISZERO PUSH2 0x10E JUMPI PUSH1 0x0 DUP1 REVERT JUMPDEST POP PUSH2 0x129 PUSH1 0x4 DUP1 CALLDATASIZE SUB DUP2 ADD SWAP1 PUSH2 0x124 SWAP2 SWAP1 PUSH2 0x1197 JUMP JUMPDEST PUSH2 0x347 JUMP JUMPDEST PUSH1 0x40 MLOAD PUSH2 0x13D SWAP9 SWAP8 SWAP7 SWAP6 SWAP5 SWAP4 SWAP3 SWAP2 SWAP1 PUSH2 0x127C JUMP JUMPDEST PUSH1 0x40 MLOAD DUP1 SWAP2 SUB SWAP1 RETURN JUMPDEST CALLVALUE DUP1 ISZERO PUSH2 0x152 JUMPI PUSH1 0x0 DUP1 REVERT JUMPDEST POP PUSH2 0x16D PUSH1 0x4 DUP1 CALLDATASIZE SUB DUP2 ADD SWAP1 PUSH2 0x168 SWAP2 SWAP1 PUSH2 0x1326 JUMP JUMPDEST PUSH2 0x447 JUMP JUMPDEST PUSH1 0x40 MLOAD PUSH2 0x17A SWAP2 SWAP1 PUSH2 0x136E JUMP JUMPDEST PUSH1 0x40 MLOAD DUP1 SWAP2 SUB SWAP1 RETURN JUMPDEST CALLVALUE DUP1 ISZERO PUSH2 0x18F JUMPI PUSH1 0x0 DUP1 REVERT JUMPDEST POP PUSH2 0x1AA PUSH1 0x4 DUP1 CALLDATASIZE SUB DUP2 ADD SWAP1 PUSH2 0x1A5 SWAP2 SWAP1 PUSH2 0x14CF JUMP JUMPDEST PUSH2 0x467 JUMP JUMPDEST STOP JUMPDEST PUSH2 0x1C6 PUSH1 0x4 DUP1 CALLDATASIZE SUB DUP2 ADD SWAP1 PUSH2 0x1C1 SWAP2 SWAP1 PUSH2 0x1626 JUMP JUMPDEST PUSH2 0x647 JUMP JUMPDEST STOP JUMPDEST CALLVALUE DUP1 ISZERO PUSH2 0x1D4 JUMPI PUSH1 0x0 DUP1 REVERT JUMPDEST POP PUSH2 0x1DD PUSH2 0x884 JUMP JUMPDEST PUSH1 0x40 MLOAD PUSH2 0x1EA SWAP2 SWAP1 PUSH2 0x113C JUMP JUMPDEST PUSH1 0x40 MLOAD DUP1 SWAP2 SUB SWAP1 RETURN JUMPDEST CALLVALUE DUP1 ISZERO PUSH2 0x1FF JUMPI PUSH1 0x0 DUP1 REVERT JUMPDEST POP PUSH2 0x21A PUSH1 0x4 DUP1 CALLDATASIZE SUB DUP2 ADD SWAP1 PUSH2 0x215 SWAP2 SWAP1 PUSH2 0x168B JUMP JUMPDEST PUSH2 0x88A JUMP JUMPDEST STOP JUMPDEST CALLVALUE DUP1 ISZERO PUSH2 0x228 JUMPI PUSH1 0x0 DUP1 REVERT JUMPDEST POP PUSH2 0x231 PUSH2 0xB87 JUMP JUMPDEST PUSH1 0x40 MLOAD PUSH2 0x23E SWAP2 SWAP1 PUSH2 0x113C JUMP JUMPDEST PUSH1 0x40 MLOAD DUP1 SWAP2 SUB SWAP1 RETURN JUMPDEST CALLVALUE DUP1 ISZERO PUSH2 0x253 JUMPI PUSH1 0x0 DUP1 REVERT JUMPDEST POP PUSH2 0x26E PUSH1 0x4 DUP1 CALLDATASIZE SUB DUP2 ADD SWAP1 PUSH2 0x269 SWAP2 SWAP1 PUSH2 0x16CB JUMP JUMPDEST PUSH2 0xB90 JUMP JUMPDEST PUSH1 0x40 MLOAD PUSH2 0x27B SWAP2 SWAP1 PUSH2 0x136E JUMP JUMPDEST PUSH1 0x40 MLOAD DUP1 SWAP2 SUB SWAP1 RETURN JUMPDEST CALLVALUE DUP1 ISZERO PUSH2 0x290 JUMPI PUSH1 0x0 DUP1 REVERT JUMPDEST POP PUSH2 0x2AB PUSH1 0x4 DUP1 CALLDATASIZE SUB DUP2 ADD SWAP1 PUSH2 0x2A6 SWAP2 SWAP1 PUSH2 0x1197 JUMP JUMPDEST PUSH2 0xC47 JUMP JUMPDEST STOP JUMPDEST CALLVALUE DUP1 ISZERO PUSH2 0x2B9 JUMPI PUSH1 0x0 DUP1 REVERT JUMPDEST POP PUSH2 0x2D4 PUSH1 0x4 DUP1 CALLDATASIZE SUB DUP2 ADD SWAP1 PUSH2 0x2CF SWAP2 SWAP1 PUSH2 0x1197 JUMP JUMPDEST PUSH2 0xDED JUMP JUMPDEST PUSH1 0x40 MLOAD PUSH2 0x2E7 SWAP8 SWAP7 SWAP6 SWAP5 SWAP4 SWAP3 SWAP2 SWAP1 PUSH2 0x178A JUMP JUMPDEST PUSH1 0x40 MLOAD DUP1 SWAP2 SUB SWAP1 RETURN JUMPDEST PUSH1 0x0 SELFBALANCE SWAP1 POP SWAP1 JUMP JUMPDEST PUSH1 0x0 DUP1 PUSH1 0x1 PUSH1 0x0 CALLER PUSH20 0xFFFFFFFFFFFFFFFFFFFFFFFFFFFFFFFFFFFFFFFF AND PUSH20 0xFFFFFFFFFFFFFFFFFFFFFFFFFFFFFFFFFFFFFFFF AND DUP2 MSTORE PUSH1 0x20 ADD SWAP1 DUP2 MSTORE PUSH1 0x20 ADD PUSH1 0x0 KECCAK256 SWAP1 POP DUP1 PUSH1 0x0 ADD SLOAD SWAP2 POP POP SWAP1 JUMP JUMPDEST PUSH1 0x0 DUP1 PUSH1 0x0 DUP1 PUSH1 0x0 DUP1 PUSH1 0x0 DUP1 PUSH1 0x0 PUSH1 0x2 PUSH1 0x0 CALLER PUSH20 0xFFFFFFFFFFFFFFFFFFFFFFFFFFFFFFFFFFFFFFFF AND PUSH20 0xFFFFFFFFFFFFFFFFFFFFFFFFFFFFFFFFFFFFFFFF AND DUP2 MSTORE PUSH1 0x20 ADD SWAP1 DUP2 MSTORE PUSH1 0x20 ADD PUSH1 0x0 KECCAK256 DUP11 DUP2 SLOAD DUP2 LT PUSH2 0x3A6 JUMPI PUSH2 0x3A5 PUSH2 0x181C JUMP JUMPDEST JUMPDEST SWAP1 PUSH1 0x0 MSTORE PUSH1 0x20 PUSH1 0x0 KECCAK256 SWAP1 PUSH1 0x8 MUL ADD SWAP1 POP DUP1 PUSH1 0x0 ADD SLOAD DUP2 PUSH1 0x1 ADD PUSH1 0x0 SWAP1 SLOAD SWAP1 PUSH2 0x100 EXP SWAP1 DIV PUSH20 0xFFFFFFFFFFFFFFFFFFFFFFFFFFFFFFFFFFFFFFFF AND DUP3 PUSH1 0x2 ADD PUSH1 0x0 SWAP1 SLOAD SWAP1 PUSH2 0x100 EXP SWAP1 DIV PUSH20 0xFFFFFFFFFFFFFFFFFFFFFFFFFFFFFFFFFFFFFFFF AND DUP4 PUSH1 0x3 ADD SLOAD DUP5 PUSH1 0x4 ADD PUSH1 0x0 SWAP1 SLOAD SWAP1 PUSH2 0x100 EXP SWAP1 DIV PUSH1 0xFF AND DUP6 PUSH1 0x5 ADD SLOAD DUP7 PUSH1 0x6 ADD SLOAD DUP8 PUSH1 0x7 ADD SLOAD SWAP9 POP SWAP9 POP SWAP9 POP SWAP9 POP SWAP9 POP SWAP9 POP SWAP9 POP SWAP9 POP POP SWAP2 SWAP4 SWAP6 SWAP8 POP SWAP2 SWAP4 SWAP6 SWAP8 JUMP JUMPDEST PUSH1 0x4 PUSH1 0x20 MSTORE DUP1 PUSH1 0x0 MSTORE PUSH1 0x40 PUSH1 0x0 KECCAK256 PUSH1 0x0 SWAP2 POP SLOAD SWAP1 PUSH2 0x100 EXP SWAP1 DIV PUSH1 0xFF AND DUP2 JUMP JUMPDEST PUSH1 0x0 ISZERO ISZERO PUSH1 0x4 PUSH1 0x0 CALLER PUSH20 0xFFFFFFFFFFFFFFFFFFFFFFFFFFFFFFFFFFFFFFFF AND PUSH20 0xFFFFFFFFFFFFFFFFFFFFFFFFFFFFFFFFFFFFFFFF AND DUP2 MSTORE PUSH1 0x20 ADD SWAP1 DUP2 MSTORE PUSH1 0x20 ADD PUSH1 0x0 KECCAK256 PUSH1 0x0 SWAP1 SLOAD SWAP1 PUSH2 0x100 EXP SWAP1 DIV PUSH1 0xFF AND ISZERO ISZERO EQ PUSH2 0x4FA JUMPI PUSH1 0x40 MLOAD PUSH32 0x8C379A000000000000000000000000000000000000000000000000000000000 DUP2 MSTORE PUSH1 0x4 ADD PUSH2 0x4F1 SWAP1 PUSH2 0x1897 JUMP JUMPDEST PUSH1 0x40 MLOAD DUP1 SWAP2 SUB SWAP1 REVERT JUMPDEST PUSH1 0x0 DUP1 PUSH1 0x0 PUSH1 0x3 PUSH1 0x0 DUP1 SLOAD DUP2 MSTORE PUSH1 0x20 ADD SWAP1 DUP2 MSTORE PUSH1 0x20 ADD PUSH1 0x0 KECCAK256 SWAP1 POP CALLER DUP2 PUSH1 0x0 ADD PUSH1 0x0 PUSH2 0x100 EXP DUP2 SLOAD DUP2 PUSH20 0xFFFFFFFFFFFFFFFFFFFFFFFFFFFFFFFFFFFFFFFF MUL NOT AND SWAP1 DUP4 PUSH20 0xFFFFFFFFFFFFFFFFFFFFFFFFFFFFFFFFFFFFFFFF AND MUL OR SWAP1 SSTORE POP DUP9 DUP2 PUSH1 0x1 ADD SWAP1 DUP2 PUSH2 0x569 SWAP2 SWAP1 PUSH2 0x1AC3 JUMP JUMPDEST POP DUP8 DUP2 PUSH1 0x2 ADD SWAP1 DUP2 PUSH2 0x57B SWAP2 SWAP1 PUSH2 0x1AC3 JUMP JUMPDEST POP DUP7 DUP2 PUSH1 0x3 ADD SWAP1 DUP2 PUSH2 0x58D SWAP2 SWAP1 PUSH2 0x1AC3 JUMP JUMPDEST POP DUP6 DUP2 PUSH1 0x4 ADD SWAP1 DUP2 PUSH2 0x59F SWAP2 SWAP1 PUSH2 0x1AC3 JUMP JUMPDEST POP DUP5 DUP2 PUSH1 0x5 ADD SWAP1 DUP2 PUSH2 0x5B1 SWAP2 SWAP1 PUSH2 0x1AC3 JUMP JUMPDEST POP DUP4 DUP2 PUSH1 0x6 ADD DUP2 SWAP1 SSTORE POP DUP3 DUP2 PUSH1 0x7 ADD DUP2 SWAP1 SSTORE POP DUP2 DUP2 PUSH1 0x8 ADD DUP2 SWAP1 SSTORE POP PUSH1 0x1 PUSH1 0x4 PUSH1 0x0 CALLER PUSH20 0xFFFFFFFFFFFFFFFFFFFFFFFFFFFFFFFFFFFFFFFF AND PUSH20 0xFFFFFFFFFFFFFFFFFFFFFFFFFFFFFFFFFFFFFFFF AND DUP2 MSTORE PUSH1 0x20 ADD SWAP1 DUP2 MSTORE PUSH1 0x20 ADD PUSH1 0x0 KECCAK256 PUSH1 0x0 PUSH2 0x100 EXP DUP2 SLOAD DUP2 PUSH1 0xFF MUL NOT AND SWAP1 DUP4 ISZERO ISZERO MUL OR SWAP1 SSTORE POP PUSH1 0x0 DUP1 DUP2 SLOAD DUP1 SWAP3 SWAP2 SWAP1 PUSH2 0x637 SWAP1 PUSH2 0x1BC4 JUMP JUMPDEST SWAP2 SWAP1 POP SSTORE POP POP POP POP POP POP POP POP POP POP JUMP JUMPDEST PUSH1 0x0 PUSH1 0x1 SWAP1 POP PUSH1 0x2 PUSH1 0x0 CALLER PUSH20 0xFFFFFFFFFFFFFFFFFFFFFFFFFFFFFFFFFFFFFFFF AND PUSH20 0xFFFFFFFFFFFFFFFFFFFFFFFFFFFFFFFFFFFFFFFF AND DUP2 MSTORE PUSH1 0x20 ADD SWAP1 DUP2 MSTORE PUSH1 0x20 ADD PUSH1 0x0 KECCAK256 PUSH1 0x40 MLOAD DUP1 PUSH2 0x100 ADD PUSH1 0x40 MSTORE DUP1 DUP6 DUP2 MSTORE PUSH1 0x20 ADD DUP5 PUSH20 0xFFFFFFFFFFFFFFFFFFFFFFFFFFFFFFFFFFFFFFFF AND DUP2 MSTORE PUSH1 0x20 ADD CALLER PUSH20 0xFFFFFFFFFFFFFFFFFFFFFFFFFFFFFFFFFFFFFFFF AND DUP2 MSTORE PUSH1 0x20 ADD CALLVALUE DUP2 MSTORE PUSH1 0x20 ADD DUP4 PUSH1 0x3 DUP2 GT ISZERO PUSH2 0x6EF JUMPI PUSH2 0x6EE PUSH2 0x1205 JUMP JUMPDEST JUMPDEST DUP2 MSTORE PUSH1 0x20 ADD TIMESTAMP DUP2 MSTORE PUSH1 0x20 ADD PUSH1 0x0 DUP2 MSTORE PUSH1 0x20 ADD PUSH1 0x0 DUP2 MSTORE POP SWAP1 DUP1 PUSH1 0x1 DUP2 SLOAD ADD DUP1 DUP3 SSTORE DUP1 SWAP2 POP POP PUSH1 0x1 SWAP1 SUB SWAP1 PUSH1 0x0 MSTORE PUSH1 0x20 PUSH1 0x0 KECCAK256 SWAP1 PUSH1 0x8 MUL ADD PUSH1 0x0 SWAP1 SWAP2 SWAP1 SWAP2 SWAP1 SWAP2 POP PUSH1 0x0 DUP3 ADD MLOAD DUP2 PUSH1 0x0 ADD SSTORE PUSH1 0x20 DUP3 ADD MLOAD DUP2 PUSH1 0x1 ADD PUSH1 0x0 PUSH2 0x100 EXP DUP2 SLOAD DUP2 PUSH20 0xFFFFFFFFFFFFFFFFFFFFFFFFFFFFFFFFFFFFFFFF MUL NOT AND SWAP1 DUP4 PUSH20 0xFFFFFFFFFFFFFFFFFFFFFFFFFFFFFFFFFFFFFFFF AND MUL OR SWAP1 SSTORE POP PUSH1 0x40 DUP3 ADD MLOAD DUP2 PUSH1 0x2 ADD PUSH1 0x0 PUSH2 0x100 EXP DUP2 SLOAD DUP2 PUSH20 0xFFFFFFFFFFFFFFFFFFFFFFFFFFFFFFFFFFFFFFFF MUL NOT AND SWAP1 DUP4 PUSH20 0xFFFFFFFFFFFFFFFFFFFFFFFFFFFFFFFFFFFFFFFF AND MUL OR SWAP1 SSTORE POP PUSH1 0x60 DUP3 ADD MLOAD DUP2 PUSH1 0x3 ADD SSTORE PUSH1 0x80 DUP3 ADD MLOAD DUP2 PUSH1 0x4 ADD PUSH1 0x0 PUSH2 0x100 EXP DUP2 SLOAD DUP2 PUSH1 0xFF MUL NOT AND SWAP1 DUP4 PUSH1 0x3 DUP2 GT ISZERO PUSH2 0x7FC JUMPI PUSH2 0x7FB PUSH2 0x1205 JUMP JUMPDEST JUMPDEST MUL OR SWAP1 SSTORE POP PUSH1 0xA0 DUP3 ADD MLOAD DUP2 PUSH1 0x5 ADD SSTORE PUSH1 0xC0 DUP3 ADD MLOAD DUP2 PUSH1 0x6 ADD SSTORE PUSH1 0xE0 DUP3 ADD MLOAD DUP2 PUSH1 0x7 ADD SSTORE POP POP PUSH1 0x0 PUSH1 0x1 PUSH1 0x0 CALLER PUSH20 0xFFFFFFFFFFFFFFFFFFFFFFFFFFFFFFFFFFFFFFFF AND PUSH20 0xFFFFFFFFFFFFFFFFFFFFFFFFFFFFFFFFFFFFFFFF AND DUP2 MSTORE PUSH1 0x20 ADD SWAP1 DUP2 MSTORE PUSH1 0x20 ADD PUSH1 0x0 KECCAK256 SWAP1 POP DUP1 PUSH1 0x0 ADD PUSH1 0x0 DUP2 SLOAD DUP1 SWAP3 SWAP2 SWAP1 PUSH2 0x879 SWAP1 PUSH2 0x1BC4 JUMP JUMPDEST SWAP2 SWAP1 POP SSTORE POP POP POP POP POP JUMP JUMPDEST PUSH1 0x0 SLOAD DUP2 JUMP JUMPDEST PUSH1 0x2 PUSH1 0x3 DUP2 GT ISZERO PUSH2 0x89E JUMPI PUSH2 0x89D PUSH2 0x1205 JUMP JUMPDEST JUMPDEST DUP2 PUSH1 0x3 DUP2 GT ISZERO PUSH2 0x8B1 JUMPI PUSH2 0x8B0 PUSH2 0x1205 JUMP JUMPDEST JUMPDEST EQ PUSH2 0x8F1 JUMPI PUSH1 0x40 MLOAD PUSH32 0x8C379A000000000000000000000000000000000000000000000000000000000 DUP2 MSTORE PUSH1 0x4 ADD PUSH2 0x8E8 SWAP1 PUSH2 0x1C7E JUMP JUMPDEST PUSH1 0x40 MLOAD DUP1 SWAP2 SUB SWAP1 REVERT JUMPDEST PUSH1 0x0 PUSH1 0x2 PUSH1 0x0 CALLER PUSH20 0xFFFFFFFFFFFFFFFFFFFFFFFFFFFFFFFFFFFFFFFF AND PUSH20 0xFFFFFFFFFFFFFFFFFFFFFFFFFFFFFFFFFFFFFFFF AND DUP2 MSTORE PUSH1 0x20 ADD SWAP1 DUP2 MSTORE PUSH1 0x20 ADD PUSH1 0x0 KECCAK256 DUP4 DUP2 SLOAD DUP2 LT PUSH2 0x944 JUMPI PUSH2 0x943 PUSH2 0x181C JUMP JUMPDEST JUMPDEST SWAP1 PUSH1 0x0 MSTORE PUSH1 0x20 PUSH1 0x0 KECCAK256 SWAP1 PUSH1 0x8 MUL ADD SWAP1 POP CALLER PUSH20 0xFFFFFFFFFFFFFFFFFFFFFFFFFFFFFFFFFFFFFFFF AND DUP2 PUSH1 0x2 ADD PUSH1 0x0 SWAP1 SLOAD SWAP1 PUSH2 0x100 EXP SWAP1 DIV PUSH20 0xFFFFFFFFFFFFFFFFFFFFFFFFFFFFFFFFFFFFFFFF AND PUSH20 0xFFFFFFFFFFFFFFFFFFFFFFFFFFFFFFFFFFFFFFFF AND EQ PUSH2 0x9E6 JUMPI PUSH1 0x40 MLOAD PUSH32 0x8C379A000000000000000000000000000000000000000000000000000000000 DUP2 MSTORE PUSH1 0x4 ADD PUSH2 0x9DD SWAP1 PUSH2 0x1D10 JUMP JUMPDEST PUSH1 0x40 MLOAD DUP1 SWAP2 SUB SWAP1 REVERT JUMPDEST PUSH1 0x3 DUP1 DUP2 GT ISZERO PUSH2 0x9F9 JUMPI PUSH2 0x9F8 PUSH2 0x1205 JUMP JUMPDEST JUMPDEST DUP2 PUSH1 0x4 ADD PUSH1 0x0 SWAP1 SLOAD SWAP1 PUSH2 0x100 EXP SWAP1 DIV PUSH1 0xFF AND PUSH1 0x3 DUP2 GT ISZERO PUSH2 0xA1D JUMPI PUSH2 0xA1C PUSH2 0x1205 JUMP JUMPDEST JUMPDEST EQ PUSH2 0xA5D JUMPI PUSH1 0x40 MLOAD PUSH32 0x8C379A000000000000000000000000000000000000000000000000000000000 DUP2 MSTORE PUSH1 0x4 ADD PUSH2 0xA54 SWAP1 PUSH2 0x1DA2 JUMP JUMPDEST PUSH1 0x40 MLOAD DUP1 SWAP2 SUB SWAP1 REVERT JUMPDEST PUSH1 0x3 DUP1 DUP2 GT ISZERO PUSH2 0xA70 JUMPI PUSH2 0xA6F PUSH2 0x1205 JUMP JUMPDEST JUMPDEST DUP3 PUSH1 0x3 DUP2 GT ISZERO PUSH2 0xA83 JUMPI PUSH2 0xA82 PUSH2 0x1205 JUMP JUMPDEST JUMPDEST SUB PUSH2 0xB55 JUMPI PUSH1 0x0 PUSH2 0xABC DUP3 PUSH1 0x1 ADD PUSH1 0x0 SWAP1 SLOAD SWAP1 PUSH2 0x100 EXP SWAP1 DIV PUSH20 0xFFFFFFFFFFFFFFFFFFFFFFFFFFFFFFFFFFFFFFFF AND DUP4 PUSH1 0x3 ADD SLOAD PUSH2 0xB90 JUMP JUMPDEST SWAP1 POP DUP1 ISZERO PUSH2 0xB4F JUMPI DUP3 DUP3 PUSH1 0x4 ADD PUSH1 0x0 PUSH2 0x100 EXP DUP2 SLOAD DUP2 PUSH1 0xFF MUL NOT AND SWAP1 DUP4 PUSH1 0x3 DUP2 GT ISZERO PUSH2 0xAEB JUMPI PUSH2 0xAEA PUSH2 0x1205 JUMP JUMPDEST JUMPDEST MUL OR SWAP1 SSTORE POP TIMESTAMP DUP3 PUSH1 0x6 ADD DUP2 SWAP1 SSTORE POP PUSH1 0x0 PUSH1 0x3 PUSH1 0x0 DUP5 PUSH1 0x0 ADD SLOAD DUP2 MSTORE PUSH1 0x20 ADD SWAP1 DUP2 MSTORE PUSH1 0x20 ADD PUSH1 0x0 KECCAK256 SWAP1 POP DUP3 PUSH1 0x3 ADD SLOAD DUP2 PUSH1 0x7 ADD PUSH1 0x0 DUP3 DUP3 SLOAD PUSH2 0xB2C SWAP2 SWAP1 PUSH2 0x1DC2 JUMP JUMPDEST SWAP3 POP POP DUP2 SWAP1 SSTORE POP DUP1 PUSH1 0x8 ADD PUSH1 0x0 DUP2 SLOAD DUP1 SWAP3 SWAP2 SWAP1 PUSH2 0xB48 SWAP1 PUSH2 0x1BC4 JUMP JUMPDEST SWAP2 SWAP1 POP SSTORE POP POP JUMPDEST POP PUSH2 0xB82 JUMP JUMPDEST DUP2 DUP2 PUSH1 0x4 ADD PUSH1 0x0 PUSH2 0x100 EXP DUP2 SLOAD DUP2 PUSH1 0xFF MUL NOT AND SWAP1 DUP4 PUSH1 0x3 DUP2 GT ISZERO PUSH2 0xB7C JUMPI PUSH2 0xB7B PUSH2 0x1205 JUMP JUMPDEST JUMPDEST MUL OR SWAP1 SSTORE POP JUMPDEST POP POP POP JUMP JUMPDEST PUSH1 0x0 DUP1 SLOAD SWAP1 POP SWAP1 JUMP JUMPDEST PUSH1 0x0 DUP1 DUP4 PUSH20 0xFFFFFFFFFFFFFFFFFFFFFFFFFFFFFFFFFFFFFFFF AND DUP4 PUSH1 0x40 MLOAD PUSH2 0xBB7 SWAP1 PUSH2 0x1E27 JUMP JUMPDEST PUSH1 0x0 PUSH1 0x40 MLOAD DUP1 DUP4 SUB DUP2 DUP6 DUP8 GAS CALL SWAP3 POP POP POP RETURNDATASIZE DUP1 PUSH1 0x0 DUP2 EQ PUSH2 0xBF4 JUMPI PUSH1 0x40 MLOAD SWAP2 POP PUSH1 0x1F NOT PUSH1 0x3F RETURNDATASIZE ADD AND DUP3 ADD PUSH1 0x40 MSTORE RETURNDATASIZE DUP3 MSTORE RETURNDATASIZE PUSH1 0x0 PUSH1 0x20 DUP5 ADD RETURNDATACOPY PUSH2 0xBF9 JUMP JUMPDEST PUSH1 0x60 SWAP2 POP JUMPDEST POP POP SWAP1 POP DUP1 PUSH2 0xC3D JUMPI PUSH1 0x40 MLOAD PUSH32 0x8C379A000000000000000000000000000000000000000000000000000000000 DUP2 MSTORE PUSH1 0x4 ADD PUSH2 0xC34 SWAP1 PUSH2 0x1E88 JUMP JUMPDEST PUSH1 0x40 MLOAD DUP1 SWAP2 SUB SWAP1 REVERT JUMPDEST DUP1 SWAP2 POP POP SWAP3 SWAP2 POP POP JUMP JUMPDEST PUSH1 0x0 PUSH1 0x2 PUSH1 0x0 CALLER PUSH20 0xFFFFFFFFFFFFFFFFFFFFFFFFFFFFFFFFFFFFFFFF AND PUSH20 0xFFFFFFFFFFFFFFFFFFFFFFFFFFFFFFFFFFFFFFFF AND DUP2 MSTORE PUSH1 0x20 ADD SWAP1 DUP2 MSTORE PUSH1 0x20 ADD PUSH1 0x0 KECCAK256 DUP3 DUP2 SLOAD DUP2 LT PUSH2 0xC9A JUMPI PUSH2 0xC99 PUSH2 0x181C JUMP JUMPDEST JUMPDEST SWAP1 PUSH1 0x0 MSTORE PUSH1 0x20 PUSH1 0x0 KECCAK256 SWAP1 PUSH1 0x8 MUL ADD SWAP1 POP CALLER PUSH20 0xFFFFFFFFFFFFFFFFFFFFFFFFFFFFFFFFFFFFFFFF AND DUP2 PUSH1 0x1 ADD PUSH1 0x0 SWAP1 SLOAD SWAP1 PUSH2 0x100 EXP SWAP1 DIV PUSH20 0xFFFFFFFFFFFFFFFFFFFFFFFFFFFFFFFFFFFFFFFF AND PUSH20 0xFFFFFFFFFFFFFFFFFFFFFFFFFFFFFFFFFFFFFFFF AND EQ PUSH2 0xD3C JUMPI PUSH1 0x40 MLOAD PUSH32 0x8C379A000000000000000000000000000000000000000000000000000000000 DUP2 MSTORE PUSH1 0x4 ADD PUSH2 0xD33 SWAP1 PUSH2 0x1F1A JUMP JUMPDEST PUSH1 0x40 MLOAD DUP1 SWAP2 SUB SWAP1 REVERT JUMPDEST PUSH1 0x3 DUP1 DUP2 GT ISZERO PUSH2 0xD4F JUMPI PUSH2 0xD4E PUSH2 0x1205 JUMP JUMPDEST JUMPDEST DUP2 PUSH1 0x4 ADD PUSH1 0x0 SWAP1 SLOAD SWAP1 PUSH2 0x100 EXP SWAP1 DIV PUSH1 0xFF AND PUSH1 0x3 DUP2 GT ISZERO PUSH2 0xD73 JUMPI PUSH2 0xD72 PUSH2 0x1205 JUMP JUMPDEST JUMPDEST SUB PUSH2 0xDB3 JUMPI PUSH1 0x40 MLOAD PUSH32 0x8C379A000000000000000000000000000000000000000000000000000000000 DUP2 MSTORE PUSH1 0x4 ADD PUSH2 0xDAA SWAP1 PUSH2 0x1FAC JUMP JUMPDEST PUSH1 0x40 MLOAD DUP1 SWAP2 SUB SWAP1 REVERT JUMPDEST PUSH1 0x2 DUP2 PUSH1 0x4 ADD PUSH1 0x0 PUSH2 0x100 EXP DUP2 SLOAD DUP2 PUSH1 0xFF MUL NOT AND SWAP1 DUP4 PUSH1 0x3 DUP2 GT ISZERO PUSH2 0xDDB JUMPI PUSH2 0xDDA PUSH2 0x1205 JUMP JUMPDEST JUMPDEST MUL OR SWAP1 SSTORE POP TIMESTAMP DUP2 PUSH1 0x7 ADD DUP2 SWAP1 SSTORE POP POP POP JUMP JUMPDEST PUSH1 0x0 PUSH1 0x60 DUP1 PUSH1 0x60 DUP1 PUSH1 0x60 PUSH1 0x0 DUP1 PUSH1 0x3 PUSH1 0x0 DUP11 DUP2 MSTORE PUSH1 0x20 ADD SWAP1 DUP2 MSTORE PUSH1 0x20 ADD PUSH1 0x0 KECCAK256 SWAP1 POP DUP1 PUSH1 0x0 ADD PUSH1 0x0 SWAP1 SLOAD SWAP1 PUSH2 0x100 EXP SWAP1 DIV PUSH20 0xFFFFFFFFFFFFFFFFFFFFFFFFFFFFFFFFFFFFFFFF AND DUP2 PUSH1 0x1 ADD DUP3 PUSH1 0x3 ADD DUP4 PUSH1 0x4 ADD DUP5 PUSH1 0x5 ADD DUP6 PUSH1 0x2 ADD DUP7 PUSH1 0x6 ADD SLOAD DUP6 DUP1 SLOAD PUSH2 0xE59 SWAP1 PUSH2 0x18E6 JUMP JUMPDEST DUP1 PUSH1 0x1F ADD PUSH1 0x20 DUP1 SWAP2 DIV MUL PUSH1 0x20 ADD PUSH1 0x40 MLOAD SWAP1 DUP2 ADD PUSH1 0x40 MSTORE DUP1 SWAP3 SWAP2 SWAP1 DUP2 DUP2 MSTORE PUSH1 0x20 ADD DUP3 DUP1 SLOAD PUSH2 0xE85 SWAP1 PUSH2 0x18E6 JUMP JUMPDEST DUP1 ISZERO PUSH2 0xED2 JUMPI DUP1 PUSH1 0x1F LT PUSH2 0xEA7 JUMPI PUSH2 0x100 DUP1 DUP4 SLOAD DIV MUL DUP4 MSTORE SWAP2 PUSH1 0x20 ADD SWAP2 PUSH2 0xED2 JUMP JUMPDEST DUP3 ADD SWAP2 SWAP1 PUSH1 0x0 MSTORE PUSH1 0x20 PUSH1 0x0 KECCAK256 SWAP1 JUMPDEST DUP2 SLOAD DUP2 MSTORE SWAP1 PUSH1 0x1 ADD SWAP1 PUSH1 0x20 ADD DUP1 DUP4 GT PUSH2 0xEB5 JUMPI DUP3 SWAP1 SUB PUSH1 0x1F AND DUP3 ADD SWAP2 JUMPDEST POP POP POP POP POP SWAP6 POP DUP5 DUP1 SLOAD PUSH2 0xEE5 SWAP1 PUSH2 0x18E6 JUMP JUMPDEST DUP1 PUSH1 0x1F ADD PUSH1 0x20 DUP1 SWAP2 DIV MUL PUSH1 0x20 ADD PUSH1 0x40 MLOAD SWAP1 DUP2 ADD PUSH1 0x40 MSTORE DUP1 SWAP3 SWAP2 SWAP1 DUP2 DUP2 MSTORE PUSH1 0x20 ADD DUP3 DUP1 SLOAD PUSH2 0xF11 SWAP1 PUSH2 0x18E6 JUMP JUMPDEST DUP1 ISZERO PUSH2 0xF5E JUMPI DUP1 PUSH1 0x1F LT PUSH2 0xF33 JUMPI PUSH2 0x100 DUP1 DUP4 SLOAD DIV MUL DUP4 MSTORE SWAP2 PUSH1 0x20 ADD SWAP2 PUSH2 0xF5E JUMP JUMPDEST DUP3 ADD SWAP2 SWAP1 PUSH1 0x0 MSTORE PUSH1 0x20 PUSH1 0x0 KECCAK256 SWAP1 JUMPDEST DUP2 SLOAD DUP2 MSTORE SWAP1 PUSH1 0x1 ADD SWAP1 PUSH1 0x20 ADD DUP1 DUP4 GT PUSH2 0xF41 JUMPI DUP3 SWAP1 SUB PUSH1 0x1F AND DUP3 ADD SWAP2 JUMPDEST POP POP POP POP POP SWAP5 POP DUP4 DUP1 SLOAD PUSH2 0xF71 SWAP1 PUSH2 0x18E6 JUMP JUMPDEST DUP1 PUSH1 0x1F ADD PUSH1 0x20 DUP1 SWAP2 DIV MUL PUSH1 0x20 ADD PUSH1 0x40 MLOAD SWAP1 DUP2 ADD PUSH1 0x40 MSTORE DUP1 SWAP3 SWAP2 SWAP1 DUP2 DUP2 MSTORE PUSH1 0x20 ADD DUP3 DUP1 SLOAD PUSH2 0xF9D SWAP1 PUSH2 0x18E6 JUMP JUMPDEST DUP1 ISZERO PUSH2 0xFEA JUMPI DUP1 PUSH1 0x1F LT PUSH2 0xFBF JUMPI PUSH2 0x100 DUP1 DUP4 SLOAD DIV MUL DUP4 MSTORE SWAP2 PUSH1 0x20 ADD SWAP2 PUSH2 0xFEA JUMP JUMPDEST DUP3 ADD SWAP2 SWAP1 PUSH1 0x0 MSTORE PUSH1 0x20 PUSH1 0x0 KECCAK256 SWAP1 JUMPDEST DUP2 SLOAD DUP2 MSTORE SWAP1 PUSH1 0x1 ADD SWAP1 PUSH1 0x20 ADD DUP1 DUP4 GT PUSH2 0xFCD JUMPI DUP3 SWAP1 SUB PUSH1 0x1F AND DUP3 ADD SWAP2 JUMPDEST POP POP POP POP POP SWAP4 POP DUP3 DUP1 SLOAD PUSH2 0xFFD SWAP1 PUSH2 0x18E6 JUMP JUMPDEST DUP1 PUSH1 0x1F ADD PUSH1 0x20 DUP1 SWAP2 DIV MUL PUSH1 0x20 ADD PUSH1 0x40 MLOAD SWAP1 DUP2 ADD PUSH1 0x40 MSTORE DUP1 SWAP3 SWAP2 SWAP1 DUP2 DUP2 MSTORE PUSH1 0x20 ADD DUP3 DUP1 SLOAD PUSH2 0x1029 SWAP1 PUSH2 0x18E6 JUMP JUMPDEST DUP1 ISZERO PUSH2 0x1076 JUMPI DUP1 PUSH1 0x1F LT PUSH2 0x104B JUMPI PUSH2 0x100 DUP1 DUP4 SLOAD DIV MUL DUP4 MSTORE SWAP2 PUSH1 0x20 ADD SWAP2 PUSH2 0x1076 JUMP JUMPDEST DUP3 ADD SWAP2 SWAP1 PUSH1 0x0 MSTORE PUSH1 0x20 PUSH1 0x0 KECCAK256 SWAP1 JUMPDEST DUP2 SLOAD DUP2 MSTORE SWAP1 PUSH1 0x1 ADD SWAP1 PUSH1 0x20 ADD DUP1 DUP4 GT PUSH2 0x1059 JUMPI DUP3 SWAP1 SUB PUSH1 0x1F AND DUP3 ADD SWAP2 JUMPDEST POP POP POP POP POP SWAP3 POP DUP2 DUP1 SLOAD PUSH2 0x1089 SWAP1 PUSH2 0x18E6 JUMP JUMPDEST DUP1 PUSH1 0x1F ADD PUSH1 0x20 DUP1 SWAP2 DIV MUL PUSH1 0x20 ADD PUSH1 0x40 MLOAD SWAP1 DUP2 ADD PUSH1 0x40 MSTORE DUP1 SWAP3 SWAP2 SWAP1 DUP2 DUP2 MSTORE PUSH1 0x20 ADD DUP3 DUP1 SLOAD PUSH2 0x10B5 SWAP1 PUSH2 0x18E6 JUMP JUMPDEST DUP1 ISZERO PUSH2 0x1102 JUMPI DUP1 PUSH1 0x1F LT PUSH2 0x10D7 JUMPI PUSH2 0x100 DUP1 DUP4 SLOAD DIV MUL DUP4 MSTORE SWAP2 PUSH1 0x20 ADD SWAP2 PUSH2 0x1102 JUMP JUMPDEST DUP3 ADD SWAP2 SWAP1 PUSH1 0x0 MSTORE PUSH1 0x20 PUSH1 0x0 KECCAK256 SWAP1 JUMPDEST DUP2 SLOAD DUP2 MSTORE SWAP1 PUSH1 0x1 ADD SWAP1 PUSH1 0x20 ADD DUP1 DUP4 GT PUSH2 0x10E5 JUMPI DUP3 SWAP1 SUB PUSH1 0x1F AND DUP3 ADD SWAP2 JUMPDEST POP POP POP POP POP SWAP2 POP SWAP8 POP SWAP8 POP SWAP8 POP SWAP8 POP SWAP8 POP SWAP8 POP SWAP8 POP POP SWAP2 SWAP4 SWAP6 SWAP8 SWAP1 SWAP3 SWAP5 SWAP7 POP JUMP JUMPDEST PUSH1 0x0 DUP2 SWAP1 POP SWAP2 SWAP1 POP JUMP JUMPDEST PUSH2 0x1136 DUP2 PUSH2 0x1123 JUMP JUMPDEST DUP3 MSTORE POP POP JUMP JUMPDEST PUSH1 0x0 PUSH1 0x20 DUP3 ADD SWAP1 POP PUSH2 0x1151 PUSH1 0x0 DUP4 ADD DUP5 PUSH2 0x112D JUMP JUMPDEST SWAP3 SWAP2 POP POP JUMP JUMPDEST PUSH1 0x0 PUSH1 0x40 MLOAD SWAP1 POP SWAP1 JUMP JUMPDEST PUSH1 0x0 DUP1 REVERT JUMPDEST PUSH1 0x0 DUP1 REVERT JUMPDEST PUSH2 0x1174 DUP2 PUSH2 0x1123 JUMP JUMPDEST DUP2 EQ PUSH2 0x117F JUMPI PUSH1 0x0 DUP1 REVERT JUMPDEST POP JUMP JUMPDEST PUSH1 0x0 DUP2 CALLDATALOAD SWAP1 POP PUSH2 0x1191 DUP2 PUSH2 0x116B JUMP JUMPDEST SWAP3 SWAP2 POP POP JUMP JUMPDEST PUSH1 0x0 PUSH1 0x20 DUP3 DUP5 SUB SLT ISZERO PUSH2 0x11AD JUMPI PUSH2 0x11AC PUSH2 0x1161 JUMP JUMPDEST JUMPDEST PUSH1 0x0 PUSH2 0x11BB DUP5 DUP3 DUP6 ADD PUSH2 0x1182 JUMP JUMPDEST SWAP2 POP POP SWAP3 SWAP2 POP POP JUMP JUMPDEST PUSH1 0x0 PUSH20 0xFFFFFFFFFFFFFFFFFFFFFFFFFFFFFFFFFFFFFFFF DUP3 AND SWAP1 POP SWAP2 SWAP1 POP JUMP JUMPDEST PUSH1 0x0 PUSH2 0x11EF DUP3 PUSH2 0x11C4 JUMP JUMPDEST SWAP1 POP SWAP2 SWAP1 POP JUMP JUMPDEST PUSH2 0x11FF DUP2 PUSH2 0x11E4 JUMP JUMPDEST DUP3 MSTORE POP POP JUMP JUMPDEST PUSH32 0x4E487B7100000000000000000000000000000000000000000000000000000000 PUSH1 0x0 MSTORE PUSH1 0x21 PUSH1 0x4 MSTORE PUSH1 0x24 PUSH1 0x0 REVERT JUMPDEST PUSH1 0x4 DUP2 LT PUSH2 0x1245 JUMPI PUSH2 0x1244 PUSH2 0x1205 JUMP JUMPDEST JUMPDEST POP JUMP JUMPDEST PUSH1 0x0 DUP2 SWAP1 POP PUSH2 0x1256 DUP3 PUSH2 0x1234 JUMP JUMPDEST SWAP2 SWAP1 POP JUMP JUMPDEST PUSH1 0x0 PUSH2 0x1266 DUP3 PUSH2 0x1248 JUMP JUMPDEST SWAP1 POP SWAP2 SWAP1 POP JUMP JUMPDEST PUSH2 0x1276 DUP2 PUSH2 0x125B JUMP JUMPDEST DUP3 MSTORE POP POP JUMP JUMPDEST PUSH1 0x0 PUSH2 0x100 DUP3 ADD SWAP1 POP PUSH2 0x1292 PUSH1 0x0 DUP4 ADD DUP12 PUSH2 0x112D JUMP JUMPDEST PUSH2 0x129F PUSH1 0x20 DUP4 ADD DUP11 PUSH2 0x11F6 JUMP JUMPDEST PUSH2 0x12AC PUSH1 0x40 DUP4 ADD DUP10 PUSH2 0x11F6 JUMP JUMPDEST PUSH2 0x12B9 PUSH1 0x60 DUP4 ADD DUP9 PUSH2 0x112D JUMP JUMPDEST PUSH2 0x12C6 PUSH1 0x80 DUP4 ADD DUP8 PUSH2 0x126D JUMP JUMPDEST PUSH2 0x12D3 PUSH1 0xA0 DUP4 ADD DUP7 PUSH2 0x112D JUMP JUMPDEST PUSH2 0x12E0 PUSH1 0xC0 DUP4 ADD DUP6 PUSH2 0x112D JUMP JUMPDEST PUSH2 0x12ED PUSH1 0xE0 DUP4 ADD DUP5 PUSH2 0x112D JUMP JUMPDEST SWAP10 SWAP9 POP POP POP POP POP POP POP POP POP JUMP JUMPDEST PUSH2 0x1303 DUP2 PUSH2 0x11E4 JUMP JUMPDEST DUP2 EQ PUSH2 0x130E JUMPI PUSH1 0x0 DUP1 REVERT JUMPDEST POP JUMP JUMPDEST PUSH1 0x0 DUP2 CALLDATALOAD SWAP1 POP PUSH2 0x1320 DUP2 PUSH2 0x12FA JUMP JUMPDEST SWAP3 SWAP2 POP POP JUMP JUMPDEST PUSH1 0x0 PUSH1 0x20 DUP3 DUP5 SUB SLT ISZERO PUSH2 0x133C JUMPI PUSH2 0x133B PUSH2 0x1161 JUMP JUMPDEST JUMPDEST PUSH1 0x0 PUSH2 0x134A DUP5 DUP3 DUP6 ADD PUSH2 0x1311 JUMP JUMPDEST SWAP2 POP POP SWAP3 SWAP2 POP POP JUMP JUMPDEST PUSH1 0x0 DUP2 ISZERO ISZERO SWAP1 POP SWAP2 SWAP1 POP JUMP JUMPDEST PUSH2 0x1368 DUP2 PUSH2 0x1353 JUMP JUMPDEST DUP3 MSTORE POP POP JUMP JUMPDEST PUSH1 0x0 PUSH1 0x20 DUP3 ADD SWAP1 POP PUSH2 0x1383 PUSH1 0x0 DUP4 ADD DUP5 PUSH2 0x135F JUMP JUMPDEST SWAP3 SWAP2 POP POP JUMP JUMPDEST PUSH1 0x0 DUP1 REVERT JUMPDEST PUSH1 0x0 DUP1 REVERT JUMPDEST PUSH1 0x0 PUSH1 0x1F NOT PUSH1 0x1F DUP4 ADD AND SWAP1 POP SWAP2 SWAP1 POP JUMP JUMPDEST PUSH32 0x4E487B7100000000000000000000000000000000000000000000000000000000 PUSH1 0x0 MSTORE PUSH1 0x41 PUSH1 0x4 MSTORE PUSH1 0x24 PUSH1 0x0 REVERT JUMPDEST PUSH2 0x13DC DUP3 PUSH2 0x1393 JUMP JUMPDEST DUP2 ADD DUP2 DUP2 LT PUSH8 0xFFFFFFFFFFFFFFFF DUP3 GT OR ISZERO PUSH2 0x13FB JUMPI PUSH2 0x13FA PUSH2 0x13A4 JUMP JUMPDEST JUMPDEST DUP1 PUSH1 0x40 MSTORE POP POP POP JUMP JUMPDEST PUSH1 0x0 PUSH2 0x140E PUSH2 0x1157 JUMP JUMPDEST SWAP1 POP PUSH2 0x141A DUP3 DUP3 PUSH2 0x13D3 JUMP JUMPDEST SWAP2 SWAP1 POP JUMP JUMPDEST PUSH1 0x0 PUSH8 0xFFFFFFFFFFFFFFFF DUP3 GT ISZERO PUSH2 0x143A JUMPI PUSH2 0x1439 PUSH2 0x13A4 JUMP JUMPDEST JUMPDEST PUSH2 0x1443 DUP3 PUSH2 0x1393 JUMP JUMPDEST SWAP1 POP PUSH1 0x20 DUP2 ADD SWAP1 POP SWAP2 SWAP1 POP JUMP JUMPDEST DUP3 DUP2 DUP4 CALLDATACOPY PUSH1 0x0 DUP4 DUP4 ADD MSTORE POP POP POP JUMP JUMPDEST PUSH1 0x0 PUSH2 0x1472 PUSH2 0x146D DUP5 PUSH2 0x141F JUMP JUMPDEST PUSH2 0x1404 JUMP JUMPDEST SWAP1 POP DUP3 DUP2 MSTORE PUSH1 0x20 DUP2 ADD DUP5 DUP5 DUP5 ADD GT ISZERO PUSH2 0x148E JUMPI PUSH2 0x148D PUSH2 0x138E JUMP JUMPDEST JUMPDEST PUSH2 0x1499 DUP5 DUP3 DUP6 PUSH2 0x1450 JUMP JUMPDEST POP SWAP4 SWAP3 POP POP POP JUMP JUMPDEST PUSH1 0x0 DUP3 PUSH1 0x1F DUP4 ADD SLT PUSH2 0x14B6 JUMPI PUSH2 0x14B5 PUSH2 0x1389 JUMP JUMPDEST JUMPDEST DUP2 CALLDATALOAD PUSH2 0x14C6 DUP5 DUP3 PUSH1 0x20 DUP7 ADD PUSH2 0x145F JUMP JUMPDEST SWAP2 POP POP SWAP3 SWAP2 POP POP JUMP JUMPDEST PUSH1 0x0 DUP1 PUSH1 0x0 DUP1 PUSH1 0x0 DUP1 PUSH1 0xC0 DUP8 DUP10 SUB SLT ISZERO PUSH2 0x14EC JUMPI PUSH2 0x14EB PUSH2 0x1161 JUMP JUMPDEST JUMPDEST PUSH1 0x0 DUP8 ADD CALLDATALOAD PUSH8 0xFFFFFFFFFFFFFFFF DUP2 GT ISZERO PUSH2 0x150A JUMPI PUSH2 0x1509 PUSH2 0x1166 JUMP JUMPDEST JUMPDEST PUSH2 0x1516 DUP10 DUP3 DUP11 ADD PUSH2 0x14A1 JUMP JUMPDEST SWAP7 POP POP PUSH1 0x20 DUP8 ADD CALLDATALOAD PUSH8 0xFFFFFFFFFFFFFFFF DUP2 GT ISZERO PUSH2 0x1537 JUMPI PUSH2 0x1536 PUSH2 0x1166 JUMP JUMPDEST JUMPDEST PUSH2 0x1543 DUP10 DUP3 DUP11 ADD PUSH2 0x14A1 JUMP JUMPDEST SWAP6 POP POP PUSH1 0x40 DUP8 ADD CALLDATALOAD PUSH8 0xFFFFFFFFFFFFFFFF DUP2 GT ISZERO PUSH2 0x1564 JUMPI PUSH2 0x1563 PUSH2 0x1166 JUMP JUMPDEST JUMPDEST PUSH2 0x1570 DUP10 DUP3 DUP11 ADD PUSH2 0x14A1 JUMP JUMPDEST SWAP5 POP POP PUSH1 0x60 DUP8 ADD CALLDATALOAD PUSH8 0xFFFFFFFFFFFFFFFF DUP2 GT ISZERO PUSH2 0x1591 JUMPI PUSH2 0x1590 PUSH2 0x1166 JUMP JUMPDEST JUMPDEST PUSH2 0x159D DUP10 DUP3 DUP11 ADD PUSH2 0x14A1 JUMP JUMPDEST SWAP4 POP POP PUSH1 0x80 DUP8 ADD CALLDATALOAD PUSH8 0xFFFFFFFFFFFFFFFF DUP2 GT ISZERO PUSH2 0x15BE JUMPI PUSH2 0x15BD PUSH2 0x1166 JUMP JUMPDEST JUMPDEST PUSH2 0x15CA DUP10 DUP3 DUP11 ADD PUSH2 0x14A1 JUMP JUMPDEST SWAP3 POP POP PUSH1 0xA0 PUSH2 0x15DB DUP10 DUP3 DUP11 ADD PUSH2 0x1182 JUMP JUMPDEST SWAP2 POP POP SWAP3 SWAP6 POP SWAP3 SWAP6 POP SWAP3 SWAP6 JUMP JUMPDEST PUSH1 0x0 PUSH2 0x15F3 DUP3 PUSH2 0x11C4 JUMP JUMPDEST SWAP1 POP SWAP2 SWAP1 POP JUMP JUMPDEST PUSH2 0x1603 DUP2 PUSH2 0x15E8 JUMP JUMPDEST DUP2 EQ PUSH2 0x160E JUMPI PUSH1 0x0 DUP1 REVERT JUMPDEST POP JUMP JUMPDEST PUSH1 0x0 DUP2 CALLDATALOAD SWAP1 POP PUSH2 0x1620 DUP2 PUSH2 0x15FA JUMP JUMPDEST SWAP3 SWAP2 POP POP JUMP JUMPDEST PUSH1 0x0 DUP1 PUSH1 0x40 DUP4 DUP6 SUB SLT ISZERO PUSH2 0x163D JUMPI PUSH2 0x163C PUSH2 0x1161 JUMP JUMPDEST JUMPDEST PUSH1 0x0 PUSH2 0x164B DUP6 DUP3 DUP7 ADD PUSH2 0x1182 JUMP JUMPDEST SWAP3 POP POP PUSH1 0x20 PUSH2 0x165C DUP6 DUP3 DUP7 ADD PUSH2 0x1611 JUMP JUMPDEST SWAP2 POP POP SWAP3 POP SWAP3 SWAP1 POP JUMP JUMPDEST PUSH1 0x4 DUP2 LT PUSH2 0x1673 JUMPI PUSH1 0x0 DUP1 REVERT JUMPDEST POP JUMP JUMPDEST PUSH1 0x0 DUP2 CALLDATALOAD SWAP1 POP PUSH2 0x1685 DUP2 PUSH2 0x1666 JUMP JUMPDEST SWAP3 SWAP2 POP POP JUMP JUMPDEST PUSH1 0x0 DUP1 PUSH1 0x40 DUP4 DUP6 SUB SLT ISZERO PUSH2 0x16A2 JUMPI PUSH2 0x16A1 PUSH2 0x1161 JUMP JUMPDEST JUMPDEST PUSH1 0x0 PUSH2 0x16B0 DUP6 DUP3 DUP7 ADD PUSH2 0x1182 JUMP JUMPDEST SWAP3 POP POP PUSH1 0x20 PUSH2 0x16C1 DUP6 DUP3 DUP7 ADD PUSH2 0x1676 JUMP JUMPDEST SWAP2 POP POP SWAP3 POP SWAP3 SWAP1 POP JUMP JUMPDEST PUSH1 0x0 DUP1 PUSH1 0x40 DUP4 DUP6 SUB SLT ISZERO PUSH2 0x16E2 JUMPI PUSH2 0x16E1 PUSH2 0x1161 JUMP JUMPDEST JUMPDEST PUSH1 0x0 PUSH2 0x16F0 DUP6 DUP3 DUP7 ADD PUSH2 0x1611 JUMP JUMPDEST SWAP3 POP POP PUSH1 0x20 PUSH2 0x1701 DUP6 DUP3 DUP7 ADD PUSH2 0x1182 JUMP JUMPDEST SWAP2 POP POP SWAP3 POP SWAP3 SWAP1 POP JUMP JUMPDEST PUSH1 0x0 DUP2 MLOAD SWAP1 POP SWAP2 SWAP1 POP JUMP JUMPDEST PUSH1 0x0 DUP3 DUP3 MSTORE PUSH1 0x20 DUP3 ADD SWAP1 POP SWAP3 SWAP2 POP POP JUMP JUMPDEST PUSH1 0x0 JUMPDEST DUP4 DUP2 LT ISZERO PUSH2 0x1745 JUMPI DUP1 DUP3 ADD MLOAD DUP2 DUP5 ADD MSTORE PUSH1 0x20 DUP2 ADD SWAP1 POP PUSH2 0x172A JUMP JUMPDEST PUSH1 0x0 DUP5 DUP5 ADD MSTORE POP POP POP POP JUMP JUMPDEST PUSH1 0x0 PUSH2 0x175C DUP3 PUSH2 0x170B JUMP JUMPDEST PUSH2 0x1766 DUP2 DUP6 PUSH2 0x1716 JUMP JUMPDEST SWAP4 POP PUSH2 0x1776 DUP2 DUP6 PUSH1 0x20 DUP7 ADD PUSH2 0x1727 JUMP JUMPDEST PUSH2 0x177F DUP2 PUSH2 0x1393 JUMP JUMPDEST DUP5 ADD SWAP2 POP POP SWAP3 SWAP2 POP POP JUMP JUMPDEST PUSH1 0x0 PUSH1 0xE0 DUP3 ADD SWAP1 POP PUSH2 0x179F PUSH1 0x0 DUP4 ADD DUP11 PUSH2 0x11F6 JUMP JUMPDEST DUP2 DUP2 SUB PUSH1 0x20 DUP4 ADD MSTORE PUSH2 0x17B1 DUP2 DUP10 PUSH2 0x1751 JUMP JUMPDEST SWAP1 POP DUP2 DUP2 SUB PUSH1 0x40 DUP4 ADD MSTORE PUSH2 0x17C5 DUP2 DUP9 PUSH2 0x1751 JUMP JUMPDEST SWAP1 POP DUP2 DUP2 SUB PUSH1 0x60 DUP4 ADD MSTORE PUSH2 0x17D9 DUP2 DUP8 PUSH2 0x1751 JUMP JUMPDEST SWAP1 POP DUP2 DUP2 SUB PUSH1 0x80 DUP4 ADD MSTORE PUSH2 0x17ED DUP2 DUP7 PUSH2 0x1751 JUMP JUMPDEST SWAP1 POP DUP2 DUP2 SUB PUSH1 0xA0 DUP4 ADD MSTORE PUSH2 0x1801 DUP2 DUP6 PUSH2 0x1751 JUMP JUMPDEST SWAP1 POP PUSH2 0x1810 PUSH1 0xC0 DUP4 ADD DUP5 PUSH2 0x112D JUMP JUMPDEST SWAP9 SWAP8 POP POP POP POP POP POP POP POP JUMP JUMPDEST PUSH32 0x4E487B7100000000000000000000000000000000000000000000000000000000 PUSH1 0x0 MSTORE PUSH1 0x32 PUSH1 0x4 MSTORE PUSH1 0x24 PUSH1 0x0 REVERT JUMPDEST PUSH32 0x56656E646F7220616C7265616479206578697374730000000000000000000000 PUSH1 0x0 DUP3 ADD MSTORE POP JUMP JUMPDEST PUSH1 0x0 PUSH2 0x1881 PUSH1 0x15 DUP4 PUSH2 0x1716 JUMP JUMPDEST SWAP2 POP PUSH2 0x188C DUP3 PUSH2 0x184B JUMP JUMPDEST PUSH1 0x20 DUP3 ADD SWAP1 POP SWAP2 SWAP1 POP JUMP JUMPDEST PUSH1 0x0 PUSH1 0x20 DUP3 ADD SWAP1 POP DUP2 DUP2 SUB PUSH1 0x0 DUP4 ADD MSTORE PUSH2 0x18B0 DUP2 PUSH2 0x1874 JUMP JUMPDEST SWAP1 POP SWAP2 SWAP1 POP JUMP JUMPDEST PUSH32 0x4E487B7100000000000000000000000000000000000000000000000000000000 PUSH1 0x0 MSTORE PUSH1 0x22 PUSH1 0x4 MSTORE PUSH1 0x24 PUSH1 0x0 REVERT JUMPDEST PUSH1 0x0 PUSH1 0x2 DUP3 DIV SWAP1 POP PUSH1 0x1 DUP3 AND DUP1 PUSH2 0x18FE JUMPI PUSH1 0x7F DUP3 AND SWAP2 POP JUMPDEST PUSH1 0x20 DUP3 LT DUP2 SUB PUSH2 0x1911 JUMPI PUSH2 0x1910 PUSH2 0x18B7 JUMP JUMPDEST JUMPDEST POP SWAP2 SWAP1 POP JUMP JUMPDEST PUSH1 0x0 DUP2 SWAP1 POP DUP2 PUSH1 0x0 MSTORE PUSH1 0x20 PUSH1 0x0 KECCAK256 SWAP1 POP SWAP2 SWAP1 POP JUMP JUMPDEST PUSH1 0x0 PUSH1 0x20 PUSH1 0x1F DUP4 ADD DIV SWAP1 POP SWAP2 SWAP1 POP JUMP JUMPDEST PUSH1 0x0 DUP3 DUP3 SHL SWAP1 POP SWAP3 SWAP2 POP POP JUMP JUMPDEST PUSH1 0x0 PUSH1 0x8 DUP4 MUL PUSH2 0x1979 PUSH32 0xFFFFFFFFFFFFFFFFFFFFFFFFFFFFFFFFFFFFFFFFFFFFFFFFFFFFFFFFFFFFFFFF DUP3 PUSH2 0x193C JUMP JUMPDEST PUSH2 0x1983 DUP7 DUP4 PUSH2 0x193C JUMP JUMPDEST SWAP6 POP DUP1 NOT DUP5 AND SWAP4 POP DUP1 DUP7 AND DUP5 OR SWAP3 POP POP POP SWAP4 SWAP3 POP POP POP JUMP JUMPDEST PUSH1 0x0 DUP2 SWAP1 POP SWAP2 SWAP1 POP JUMP JUMPDEST PUSH1 0x0 PUSH2 0x19C0 PUSH2 0x19BB PUSH2 0x19B6 DUP5 PUSH2 0x1123 JUMP JUMPDEST PUSH2 0x199B JUMP JUMPDEST PUSH2 0x1123 JUMP JUMPDEST SWAP1 POP SWAP2 SWAP1 POP JUMP JUMPDEST PUSH1 0x0 DUP2 SWAP1 POP SWAP2 SWAP1 POP JUMP JUMPDEST PUSH2 0x19DA DUP4 PUSH2 0x19A5 JUMP JUMPDEST PUSH2 0x19EE PUSH2 0x19E6 DUP3 PUSH2 0x19C7 JUMP JUMPDEST DUP5 DUP5 SLOAD PUSH2 0x1949 JUMP JUMPDEST DUP3 SSTORE POP POP POP POP JUMP JUMPDEST PUSH1 0x0 SWAP1 JUMP JUMPDEST PUSH2 0x1A03 PUSH2 0x19F6 JUMP JUMPDEST PUSH2 0x1A0E DUP2 DUP5 DUP5 PUSH2 0x19D1 JUMP JUMPDEST POP POP POP JUMP JUMPDEST JUMPDEST DUP2 DUP2 LT ISZERO PUSH2 0x1A32 JUMPI PUSH2 0x1A27 PUSH1 0x0 DUP3 PUSH2 0x19FB JUMP JUMPDEST PUSH1 0x1 DUP2 ADD SWAP1 POP PUSH2 0x1A14 JUMP JUMPDEST POP POP JUMP JUMPDEST PUSH1 0x1F DUP3 GT ISZERO PUSH2 0x1A77 JUMPI PUSH2 0x1A48 DUP2 PUSH2 0x1917 JUMP JUMPDEST PUSH2 0x1A51 DUP5 PUSH2 0x192C JUMP JUMPDEST DUP2 ADD PUSH1 0x20 DUP6 LT ISZERO PUSH2 0x1A60 JUMPI DUP2 SWAP1 POP JUMPDEST PUSH2 0x1A74 PUSH2 0x1A6C DUP6 PUSH2 0x192C JUMP JUMPDEST DUP4 ADD DUP3 PUSH2 0x1A13 JUMP JUMPDEST POP POP JUMPDEST POP POP POP JUMP JUMPDEST PUSH1 0x0 DUP3 DUP3 SHR SWAP1 POP SWAP3 SWAP2 POP POP JUMP JUMPDEST PUSH1 0x0 PUSH2 0x1A9A PUSH1 0x0 NOT DUP5 PUSH1 0x8 MUL PUSH2 0x1A7C JUMP JUMPDEST NOT DUP1 DUP4 AND SWAP2 POP POP SWAP3 SWAP2 POP POP JUMP JUMPDEST PUSH1 0x0 PUSH2 0x1AB3 DUP4 DUP4 PUSH2 0x1A89 JUMP JUMPDEST SWAP2 POP DUP3 PUSH1 0x2 MUL DUP3 OR SWAP1 POP SWAP3 SWAP2 POP POP JUMP JUMPDEST PUSH2 0x1ACC DUP3 PUSH2 0x170B JUMP JUMPDEST PUSH8 0xFFFFFFFFFFFFFFFF DUP2 GT ISZERO PUSH2 0x1AE5 JUMPI PUSH2 0x1AE4 PUSH2 0x13A4 JUMP JUMPDEST JUMPDEST PUSH2 0x1AEF DUP3 SLOAD PUSH2 0x18E6 JUMP JUMPDEST PUSH2 0x1AFA DUP3 DUP3 DUP6 PUSH2 0x1A36 JUMP JUMPDEST PUSH1 0x0 PUSH1 0x20 SWAP1 POP PUSH1 0x1F DUP4 GT PUSH1 0x1 DUP2 EQ PUSH2 0x1B2D JUMPI PUSH1 0x0 DUP5 ISZERO PUSH2 0x1B1B JUMPI DUP3 DUP8 ADD MLOAD SWAP1 POP JUMPDEST PUSH2 0x1B25 DUP6 DUP3 PUSH2 0x1AA7 JUMP JUMPDEST DUP7 SSTORE POP PUSH2 0x1B8D JUMP JUMPDEST PUSH1 0x1F NOT DUP5 AND PUSH2 0x1B3B DUP7 PUSH2 0x1917 JUMP JUMPDEST PUSH1 0x0 JUMPDEST DUP3 DUP2 LT ISZERO PUSH2 0x1B63 JUMPI DUP5 DUP10 ADD MLOAD DUP3 SSTORE PUSH1 0x1 DUP3 ADD SWAP2 POP PUSH1 0x20 DUP6 ADD SWAP5 POP PUSH1 0x20 DUP2 ADD SWAP1 POP PUSH2 0x1B3E JUMP JUMPDEST DUP7 DUP4 LT ISZERO PUSH2 0x1B80 JUMPI DUP5 DUP10 ADD MLOAD PUSH2 0x1B7C PUSH1 0x1F DUP10 AND DUP3 PUSH2 0x1A89 JUMP JUMPDEST DUP4 SSTORE POP JUMPDEST PUSH1 0x1 PUSH1 0x2 DUP9 MUL ADD DUP9 SSTORE POP POP POP JUMPDEST POP POP POP POP POP POP JUMP JUMPDEST PUSH32 0x4E487B7100000000000000000000000000000000000000000000000000000000 PUSH1 0x0 MSTORE PUSH1 0x11 PUSH1 0x4 MSTORE PUSH1 0x24 PUSH1 0x0 REVERT JUMPDEST PUSH1 0x0 PUSH2 0x1BCF DUP3 PUSH2 0x1123 JUMP JUMPDEST SWAP2 POP PUSH32 0xFFFFFFFFFFFFFFFFFFFFFFFFFFFFFFFFFFFFFFFFFFFFFFFFFFFFFFFFFFFFFFFF DUP3 SUB PUSH2 0x1C01 JUMPI PUSH2 0x1C00 PUSH2 0x1B95 JUMP JUMPDEST JUMPDEST PUSH1 0x1 DUP3 ADD SWAP1 POP SWAP2 SWAP1 POP JUMP JUMPDEST PUSH32 0x5472616E73616374696F6E2063616E206F6E6C792062652073656E7420666F72 PUSH1 0x0 DUP3 ADD MSTORE PUSH32 0x20726576696577206279207468652056656E646F720000000000000000000000 PUSH1 0x20 DUP3 ADD MSTORE POP JUMP JUMPDEST PUSH1 0x0 PUSH2 0x1C68 PUSH1 0x35 DUP4 PUSH2 0x1716 JUMP JUMPDEST SWAP2 POP PUSH2 0x1C73 DUP3 PUSH2 0x1C0C JUMP JUMPDEST PUSH1 0x40 DUP3 ADD SWAP1 POP SWAP2 SWAP1 POP JUMP JUMPDEST PUSH1 0x0 PUSH1 0x20 DUP3 ADD SWAP1 POP DUP2 DUP2 SUB PUSH1 0x0 DUP4 ADD MSTORE PUSH2 0x1C97 DUP2 PUSH2 0x1C5B JUMP JUMPDEST SWAP1 POP SWAP2 SWAP1 POP JUMP JUMPDEST PUSH32 0x4F6E6C792074686520637573746F6D65722063616E20636F6E6669726D207468 PUSH1 0x0 DUP3 ADD MSTORE PUSH32 0x6520736572766963650000000000000000000000000000000000000000000000 PUSH1 0x20 DUP3 ADD MSTORE POP JUMP JUMPDEST PUSH1 0x0 PUSH2 0x1CFA PUSH1 0x29 DUP4 PUSH2 0x1716 JUMP JUMPDEST SWAP2 POP PUSH2 0x1D05 DUP3 PUSH2 0x1C9E JUMP JUMPDEST PUSH1 0x40 DUP3 ADD SWAP1 POP SWAP2 SWAP1 POP JUMP JUMPDEST PUSH1 0x0 PUSH1 0x20 DUP3 ADD SWAP1 POP DUP2 DUP2 SUB PUSH1 0x0 DUP4 ADD MSTORE PUSH2 0x1D29 DUP2 PUSH2 0x1CED JUMP JUMPDEST SWAP1 POP SWAP2 SWAP1 POP JUMP JUMPDEST PUSH32 0x5472616E73616374696F6E20686173206265656E20636F6D706C657465642061 PUSH1 0x0 DUP3 ADD MSTORE PUSH32 0x6C72656164790000000000000000000000000000000000000000000000000000 PUSH1 0x20 DUP3 ADD MSTORE POP JUMP JUMPDEST PUSH1 0x0 PUSH2 0x1D8C PUSH1 0x26 DUP4 PUSH2 0x1716 JUMP JUMPDEST SWAP2 POP PUSH2 0x1D97 DUP3 PUSH2 0x1D30 JUMP JUMPDEST PUSH1 0x40 DUP3 ADD SWAP1 POP SWAP2 SWAP1 POP JUMP JUMPDEST PUSH1 0x0 PUSH1 0x20 DUP3 ADD SWAP1 POP DUP2 DUP2 SUB PUSH1 0x0 DUP4 ADD MSTORE PUSH2 0x1DBB DUP2 PUSH2 0x1D7F JUMP JUMPDEST SWAP1 POP SWAP2 SWAP1 POP JUMP JUMPDEST PUSH1 0x0 PUSH2 0x1DCD DUP3 PUSH2 0x1123 JUMP JUMPDEST SWAP2 POP PUSH2 0x1DD8 DUP4 PUSH2 0x1123 JUMP JUMPDEST SWAP3 POP DUP3 DUP3 ADD SWAP1 POP DUP1 DUP3 GT ISZERO PUSH2 0x1DF0 JUMPI PUSH2 0x1DEF PUSH2 0x1B95 JUMP JUMPDEST JUMPDEST SWAP3 SWAP2 POP POP JUMP JUMPDEST PUSH1 0x0 DUP2 SWAP1 POP SWAP3 SWAP2 POP POP JUMP JUMPDEST POP JUMP JUMPDEST PUSH1 0x0 PUSH2 0x1E11 PUSH1 0x0 DUP4 PUSH2 0x1DF6 JUMP JUMPDEST SWAP2 POP PUSH2 0x1E1C DUP3 PUSH2 0x1E01 JUMP JUMPDEST PUSH1 0x0 DUP3 ADD SWAP1 POP SWAP2 SWAP1 POP JUMP JUMPDEST PUSH1 0x0 PUSH2 0x1E32 DUP3 PUSH2 0x1E04 JUMP JUMPDEST SWAP2 POP DUP2 SWAP1 POP SWAP2 SWAP1 POP JUMP JUMPDEST PUSH32 0x4661696C656420746F2073656E64204574686572000000000000000000000000 PUSH1 0x0 DUP3 ADD MSTORE POP JUMP JUMPDEST PUSH1 0x0 PUSH2 0x1E72 PUSH1 0x14 DUP4 PUSH2 0x1716 JUMP JUMPDEST SWAP2 POP PUSH2 0x1E7D DUP3 PUSH2 0x1E3C JUMP JUMPDEST PUSH1 0x20 DUP3 ADD SWAP1 POP SWAP2 SWAP1 POP JUMP JUMPDEST PUSH1 0x0 PUSH1 0x20 DUP3 ADD SWAP1 POP DUP2 DUP2 SUB PUSH1 0x0 DUP4 ADD MSTORE PUSH2 0x1EA1 DUP2 PUSH2 0x1E65 JUMP JUMPDEST SWAP1 POP SWAP2 SWAP1 POP JUMP JUMPDEST PUSH32 0x4F6E6C79207468652056656E646F722063616E20636F6E6669726D2073657276 PUSH1 0x0 DUP3 ADD MSTORE PUSH32 0x69636520636F6D706C6574656400000000000000000000000000000000000000 PUSH1 0x20 DUP3 ADD MSTORE POP JUMP JUMPDEST PUSH1 0x0 PUSH2 0x1F04 PUSH1 0x2D DUP4 PUSH2 0x1716 JUMP JUMPDEST SWAP2 POP PUSH2 0x1F0F DUP3 PUSH2 0x1EA8 JUMP JUMPDEST PUSH1 0x40 DUP3 ADD SWAP1 POP SWAP2 SWAP1 POP JUMP JUMPDEST PUSH1 0x0 PUSH1 0x20 DUP3 ADD SWAP1 POP DUP2 DUP2 SUB PUSH1 0x0 DUP4 ADD MSTORE PUSH2 0x1F33 DUP2 PUSH2 0x1EF7 JUMP JUMPDEST SWAP1 POP SWAP2 SWAP1 POP JUMP JUMPDEST PUSH32 0x4F6E6C792074686520437573746F6D65722063616E20636F6E6669726D207365 PUSH1 0x0 DUP3 ADD MSTORE PUSH32 0x727669636520636F6D706C657465640000000000000000000000000000000000 PUSH1 0x20 DUP3 ADD MSTORE POP JUMP JUMPDEST PUSH1 0x0 PUSH2 0x1F96 PUSH1 0x2F DUP4 PUSH2 0x1716 JUMP JUMPDEST SWAP2 POP PUSH2 0x1FA1 DUP3 PUSH2 0x1F3A JUMP JUMPDEST PUSH1 0x40 DUP3 ADD SWAP1 POP SWAP2 SWAP1 POP JUMP JUMPDEST PUSH1 0x0 PUSH1 0x20 DUP3 ADD SWAP1 POP DUP2 DUP2 SUB PUSH1 0x0 DUP4 ADD MSTORE PUSH2 0x1FC5 DUP2 PUSH2 0x1F89 JUMP JUMPDEST SWAP1 POP SWAP2 SWAP1 POP JUMP INVALID LOG2 PUSH5 0x6970667358 0x22 SLT KECCAK256 0xE3 0xAA DUP14 PUSH25 0x80D573492C7710A42016116BC9310FFDEA85718A49E7EBE589 SWAP15 ISZERO INVALID PUSH5 0x736F6C6343 STOP ADDMOD GT STOP CALLER "},"methodIdentifiers":{"confirmService(uint256,uint8)":"95c81163","createTransaction(uint256,address)":"7cf4c543","createVendor(string,string,string,string,string,uint256)":"609f2f4a","getBal()":"25caa262","getTransactionCount()":"2e7700f0","getTransactions(uint256)":"5742177c","getVendorCount()":"a12eba7c","getVendors(uint256)":"dd970f10","serviceReviewing(uint256)":"dce9ed61","transfer(address,uint256)":"a9059cbb","vendorCount()":"8858287b","vendorExists(address)":"5c058738"}}}}}