{
  "_format": "hh-sol-artifact-1",
  "contractName": "Helpa",
  "sourceName": "contracts/Helpa.sol",
  "abi": [
    {
      "inputs": [
        {
          "internalType": "address payable",
          "name": "customer",
          "type": "address"
        },
        {
          "internalType": "address payable",
          "name": "vendor",
          "type": "address"
        },
        {
          "internalType": "bool",
          "name": "completed",
          "type": "bool"
        }
      ],
      "name": "createTransaction",
      "outputs": [],
      "stateMutability": "payable",
      "type": "function"
    },
    {
      "inputs": [
        {
          "internalType": "string",
          "name": "_businessName",
          "type": "string"
        },
        {
          "internalType": "string",
          "name": "_UDName",
          "type": "string"
        },
        {
          "internalType": "string",
          "name": "_imgUrl",
          "type": "string"
        },
        {
          "internalType": "uint256",
          "name": "_price",
          "type": "uint256"
        }
      ],
      "name": "createVendor",
      "outputs": [],
      "stateMutability": "nonpayable",
      "type": "function"
    },
    {
      "inputs": [],
      "name": "getBal",
      "outputs": [
        {
          "internalType": "uint256",
          "name": "",
          "type": "uint256"
        }
      ],
      "stateMutability": "view",
      "type": "function"
    },
    {
      "inputs": [
        {
          "internalType": "uint256",
          "name": "_index",
          "type": "uint256"
        }
      ],
      "name": "getTransactionCount",
      "outputs": [
        {
          "internalType": "uint256",
          "name": "",
          "type": "uint256"
        }
      ],
      "stateMutability": "view",
      "type": "function"
    },
    {
      "inputs": [
        {
          "internalType": "uint256",
          "name": "_index",
          "type": "uint256"
        }
      ],
      "name": "getTransactionStats",
      "outputs": [
        {
          "internalType": "uint256",
          "name": "amount",
          "type": "uint256"
        },
        {
          "internalType": "uint256",
          "name": "count",
          "type": "uint256"
        }
      ],
      "stateMutability": "view",
      "type": "function"
    },
    {
      "inputs": [
        {
          "internalType": "uint256",
          "name": "_index",
          "type": "uint256"
        }
      ],
      "name": "getTransactions",
      "outputs": [
        {
          "internalType": "address",
          "name": "vendor",
          "type": "address"
        },
        {
          "internalType": "address",
          "name": "customer",
          "type": "address"
        },
        {
          "internalType": "uint256",
          "name": "amount",
          "type": "uint256"
        },
        {
          "internalType": "bool",
          "name": "completed",
          "type": "bool"
        }
      ],
      "stateMutability": "view",
      "type": "function"
    },
    {
      "inputs": [],
      "name": "getVendorCount",
      "outputs": [
        {
          "internalType": "uint256",
          "name": "",
          "type": "uint256"
        }
      ],
      "stateMutability": "view",
      "type": "function"
    },
    {
      "inputs": [
        {
          "internalType": "uint256",
          "name": "_index",
          "type": "uint256"
        }
      ],
      "name": "getVendors",
      "outputs": [
        {
          "internalType": "address",
          "name": "vendorAddress",
          "type": "address"
        },
        {
          "internalType": "string",
          "name": "businessName",
          "type": "string"
        },
        {
          "internalType": "string",
          "name": "UDName",
          "type": "string"
        },
        {
          "internalType": "string",
          "name": "imgUrl",
          "type": "string"
        },
        {
          "internalType": "uint256",
          "name": "price",
          "type": "uint256"
        }
      ],
      "stateMutability": "view",
      "type": "function"
    },
    {
      "inputs": [
        {
          "internalType": "address payable",
          "name": "_to",
          "type": "address"
        },
        {
          "internalType": "uint256",
          "name": "_amount",
          "type": "uint256"
        }
      ],
      "name": "transfer",
      "outputs": [
        {
          "internalType": "bool",
          "name": "",
          "type": "bool"
        }
      ],
      "stateMutability": "nonpayable",
      "type": "function"
    },
    {
      "inputs": [
        {
          "internalType": "uint256",
          "name": "_index",
          "type": "uint256"
        },
        {
          "internalType": "bool",
          "name": "val",
          "type": "bool"
        }
      ],
      "name": "updateTransaction",
      "outputs": [],
      "stateMutability": "nonpayable",
      "type": "function"
    },
    {
      "inputs": [],
      "name": "vendorCount",
      "outputs": [
        {
          "internalType": "uint256",
          "name": "",
          "type": "uint256"
        }
      ],
      "stateMutability": "view",
      "type": "function"
    },
    {
      "inputs": [
        {
          "internalType": "address",
          "name": "",
          "type": "address"
        }
      ],
      "name": "vendorExists",
      "outputs": [
        {
          "internalType": "bool",
          "name": "",
          "type": "bool"
        }
      ],
      "stateMutability": "view",
      "type": "function"
    }
  ],
  "bytecode": "0x608060405234801561001057600080fd5b506118db806100206000396000f3fe6080604052600436106100a75760003560e01c80639bc6fc0a116100645780639bc6fc0a146101fa578063a12eba7c14610223578063a9059cbb1461024e578063c31af1611461028b578063c91f18f4146102a7578063dd970f10146102d0576100a7565b806313f05fda146100ac57806325caa262146100ea5780633de5d0de146101155780635742177c146101525780635c058738146101925780638858287b146101cf575b600080fd5b3480156100b857600080fd5b506100d360048036038101906100ce9190610cf1565b610311565b6040516100e1929190610d2d565b60405180910390f35b3480156100f657600080fd5b506100ff61036b565b60405161010c9190610d56565b60405180910390f35b34801561012157600080fd5b5061013c60048036038101906101379190610cf1565b610373565b6040516101499190610d56565b60405180910390f35b34801561015e57600080fd5b5061017960048036038101906101749190610cf1565b6103bf565b6040516101899493929190610dcd565b60405180910390f35b34801561019e57600080fd5b506101b960048036038101906101b49190610e3e565b610499565b6040516101c69190610e6b565b60405180910390f35b3480156101db57600080fd5b506101e46104b9565b6040516101f19190610d56565b60405180910390f35b34801561020657600080fd5b50610221600480360381019061021c9190610eb2565b6104bf565b005b34801561022f57600080fd5b506102386106c1565b6040516102459190610d56565b60405180910390f35b34801561025a57600080fd5b5061027560048036038101906102709190610f30565b6106ca565b6040516102829190610e6b565b60405180910390f35b6102a560048036038101906102a09190610f70565b610781565b005b3480156102b357600080fd5b506102ce60048036038101906102c99190611109565b6108f7565b005b3480156102dc57600080fd5b506102f760048036038101906102f29190610cf1565b610a9a565b604051610308959493929190611243565b60405180910390f35b6000806000600260003373ffffffffffffffffffffffffffffffffffffffff1673ffffffffffffffffffffffffffffffffffffffff1681526020019081526020016000209050806000015481600101549250925050915091565b600047905090565b6000600160003373ffffffffffffffffffffffffffffffffffffffff1673ffffffffffffffffffffffffffffffffffffffff168152602001908152602001600020805490509050919050565b6000806000806000600160003373ffffffffffffffffffffffffffffffffffffffff1673ffffffffffffffffffffffffffffffffffffffff1681526020019081526020016000208681548110610418576104176112ab565b5b906000526020600020906004020190508060000160009054906101000a900473ffffffffffffffffffffffffffffffffffffffff168160010160009054906101000a900473ffffffffffffffffffffffffffffffffffffffff1682600201548360030160009054906101000a900460ff169450945094509450509193509193565b60046020528060005260406000206000915054906101000a900460ff1681565b60005481565b6001151581151514610506576040517f08c379a00000000000000000000000000000000000000000000000000000000081526004016104fd9061134c565b60405180910390fd5b6000600160003373ffffffffffffffffffffffffffffffffffffffff1673ffffffffffffffffffffffffffffffffffffffff1681526020019081526020016000208381548110610559576105586112ab565b5b90600052602060002090600402019050600015158160030160009054906101000a900460ff161515146105c1576040517f08c379a00000000000000000000000000000000000000000000000000000000081526004016105b8906113de565b60405180910390fd5b60006105f58260000160009054906101000a900473ffffffffffffffffffffffffffffffffffffffff1683600201546106ca565b905080156106bb57828260030160006101000a81548160ff0219169083151502179055506000600260008460000160009054906101000a900473ffffffffffffffffffffffffffffffffffffffff1673ffffffffffffffffffffffffffffffffffffffff1673ffffffffffffffffffffffffffffffffffffffff16815260200190815260200160002090508260020154816000016000828254610698919061142d565b925050819055508060010160008154809291906106b490611461565b9190505550505b50505050565b60008054905090565b6000808373ffffffffffffffffffffffffffffffffffffffff16836040516106f1906114da565b60006040518083038185875af1925050503d806000811461072e576040519150601f19603f3d011682016040523d82523d6000602084013e610733565b606091505b5050905080610777576040517f08c379a000000000000000000000000000000000000000000000000000000000815260040161076e9061153b565b60405180910390fd5b8091505092915050565b600160003373ffffffffffffffffffffffffffffffffffffffff1673ffffffffffffffffffffffffffffffffffffffff16815260200190815260200160002060405180608001604052808473ffffffffffffffffffffffffffffffffffffffff1681526020018573ffffffffffffffffffffffffffffffffffffffff168152602001348152602001831515815250908060018154018082558091505060019003906000526020600020906004020160009091909190915060008201518160000160006101000a81548173ffffffffffffffffffffffffffffffffffffffff021916908373ffffffffffffffffffffffffffffffffffffffff16021790555060208201518160010160006101000a81548173ffffffffffffffffffffffffffffffffffffffff021916908373ffffffffffffffffffffffffffffffffffffffff1602179055506040820151816002015560608201518160030160006101000a81548160ff0219169083151502179055505050505050565b60001515600460003373ffffffffffffffffffffffffffffffffffffffff1673ffffffffffffffffffffffffffffffffffffffff16815260200190815260200160002060009054906101000a900460ff1615151461098a576040517f08c379a0000000000000000000000000000000000000000000000000000000008152600401610981906115a7565b60405180910390fd5b600060036000805481526020019081526020016000209050338160000160006101000a81548173ffffffffffffffffffffffffffffffffffffffff021916908373ffffffffffffffffffffffffffffffffffffffff160217905550848160010190816109f691906117d3565b5083816002019081610a0891906117d3565b5082816003019081610a1a91906117d3565b508181600401819055506001600460003373ffffffffffffffffffffffffffffffffffffffff1673ffffffffffffffffffffffffffffffffffffffff16815260200190815260200160002060006101000a81548160ff021916908315150217905550600080815480929190610a8e90611461565b91905055505050505050565b600060608060606000806003600088815260200190815260200160002090508060000160009054906101000a900473ffffffffffffffffffffffffffffffffffffffff168160010182600201836003018460040154838054610afb906115f6565b80601f0160208091040260200160405190810160405280929190818152602001828054610b27906115f6565b8015610b745780601f10610b4957610100808354040283529160200191610b74565b820191906000526020600020905b815481529060010190602001808311610b5757829003601f168201915b50505050509350828054610b87906115f6565b80601f0160208091040260200160405190810160405280929190818152602001828054610bb3906115f6565b8015610c005780601f10610bd557610100808354040283529160200191610c00565b820191906000526020600020905b815481529060010190602001808311610be357829003601f168201915b50505050509250818054610c13906115f6565b80601f0160208091040260200160405190810160405280929190818152602001828054610c3f906115f6565b8015610c8c5780601f10610c6157610100808354040283529160200191610c8c565b820191906000526020600020905b815481529060010190602001808311610c6f57829003601f168201915b50505050509150955095509550955095505091939590929450565b6000604051905090565b600080fd5b600080fd5b6000819050919050565b610cce81610cbb565b8114610cd957600080fd5b50565b600081359050610ceb81610cc5565b92915050565b600060208284031215610d0757610d06610cb1565b5b6000610d1584828501610cdc565b91505092915050565b610d2781610cbb565b82525050565b6000604082019050610d426000830185610d1e565b610d4f6020830184610d1e565b9392505050565b6000602082019050610d6b6000830184610d1e565b92915050565b600073ffffffffffffffffffffffffffffffffffffffff82169050919050565b6000610d9c82610d71565b9050919050565b610dac81610d91565b82525050565b60008115159050919050565b610dc781610db2565b82525050565b6000608082019050610de26000830187610da3565b610def6020830186610da3565b610dfc6040830185610d1e565b610e096060830184610dbe565b95945050505050565b610e1b81610d91565b8114610e2657600080fd5b50565b600081359050610e3881610e12565b92915050565b600060208284031215610e5457610e53610cb1565b5b6000610e6284828501610e29565b91505092915050565b6000602082019050610e806000830184610dbe565b92915050565b610e8f81610db2565b8114610e9a57600080fd5b50565b600081359050610eac81610e86565b92915050565b60008060408385031215610ec957610ec8610cb1565b5b6000610ed785828601610cdc565b9250506020610ee885828601610e9d565b9150509250929050565b6000610efd82610d71565b9050919050565b610f0d81610ef2565b8114610f1857600080fd5b50565b600081359050610f2a81610f04565b92915050565b60008060408385031215610f4757610f46610cb1565b5b6000610f5585828601610f1b565b9250506020610f6685828601610cdc565b9150509250929050565b600080600060608486031215610f8957610f88610cb1565b5b6000610f9786828701610f1b565b9350506020610fa886828701610f1b565b9250506040610fb986828701610e9d565b9150509250925092565b600080fd5b600080fd5b6000601f19601f8301169050919050565b7f4e487b7100000000000000000000000000000000000000000000000000000000600052604160045260246000fd5b61101682610fcd565b810181811067ffffffffffffffff8211171561103557611034610fde565b5b80604052505050565b6000611048610ca7565b9050611054828261100d565b919050565b600067ffffffffffffffff82111561107457611073610fde565b5b61107d82610fcd565b9050602081019050919050565b82818337600083830152505050565b60006110ac6110a784611059565b61103e565b9050828152602081018484840111156110c8576110c7610fc8565b5b6110d384828561108a565b509392505050565b600082601f8301126110f0576110ef610fc3565b5b8135611100848260208601611099565b91505092915050565b6000806000806080858703121561112357611122610cb1565b5b600085013567ffffffffffffffff81111561114157611140610cb6565b5b61114d878288016110db565b945050602085013567ffffffffffffffff81111561116e5761116d610cb6565b5b61117a878288016110db565b935050604085013567ffffffffffffffff81111561119b5761119a610cb6565b5b6111a7878288016110db565b92505060606111b887828801610cdc565b91505092959194509250565b600081519050919050565b600082825260208201905092915050565b60005b838110156111fe5780820151818401526020810190506111e3565b60008484015250505050565b6000611215826111c4565b61121f81856111cf565b935061122f8185602086016111e0565b61123881610fcd565b840191505092915050565b600060a0820190506112586000830188610da3565b818103602083015261126a818761120a565b9050818103604083015261127e818661120a565b90508181036060830152611292818561120a565b90506112a16080830184610d1e565b9695505050505050565b7f4e487b7100000000000000000000000000000000000000000000000000000000600052603260045260246000fd5b7f5472616e73616374696f6e2063616e206f6e6c79206265206d61726b6564206360008201527f6f6d706c65746564000000000000000000000000000000000000000000000000602082015250565b60006113366028836111cf565b9150611341826112da565b604082019050919050565b6000602082019050818103600083015261136581611329565b9050919050565b7f5472616e73616374696f6e20686173206265656e20636f6d706c65746564206160008201527f6c72656164790000000000000000000000000000000000000000000000000000602082015250565b60006113c86026836111cf565b91506113d38261136c565b604082019050919050565b600060208201905081810360008301526113f7816113bb565b9050919050565b7f4e487b7100000000000000000000000000000000000000000000000000000000600052601160045260246000fd5b600061143882610cbb565b915061144383610cbb565b925082820190508082111561145b5761145a6113fe565b5b92915050565b600061146c82610cbb565b91507fffffffffffffffffffffffffffffffffffffffffffffffffffffffffffffffff820361149e5761149d6113fe565b5b600182019050919050565b600081905092915050565b50565b60006114c46000836114a9565b91506114cf826114b4565b600082019050919050565b60006114e5826114b7565b9150819050919050565b7f4661696c656420746f2073656e64204574686572000000000000000000000000600082015250565b60006115256014836111cf565b9150611530826114ef565b602082019050919050565b6000602082019050818103600083015261155481611518565b9050919050565b7f56656e646f7220616c7265616479206578697374730000000000000000000000600082015250565b60006115916015836111cf565b915061159c8261155b565b602082019050919050565b600060208201905081810360008301526115c081611584565b9050919050565b7f4e487b7100000000000000000000000000000000000000000000000000000000600052602260045260246000fd5b6000600282049050600182168061160e57607f821691505b602082108103611621576116206115c7565b5b50919050565b60008190508160005260206000209050919050565b60006020601f8301049050919050565b600082821b905092915050565b6000600883026116897fffffffffffffffffffffffffffffffffffffffffffffffffffffffffffffffff8261164c565b611693868361164c565b95508019841693508086168417925050509392505050565b6000819050919050565b60006116d06116cb6116c684610cbb565b6116ab565b610cbb565b9050919050565b6000819050919050565b6116ea836116b5565b6116fe6116f6826116d7565b848454611659565b825550505050565b600090565b611713611706565b61171e8184846116e1565b505050565b5b818110156117425761173760008261170b565b600181019050611724565b5050565b601f8211156117875761175881611627565b6117618461163c565b81016020851015611770578190505b61178461177c8561163c565b830182611723565b50505b505050565b600082821c905092915050565b60006117aa6000198460080261178c565b1980831691505092915050565b60006117c38383611799565b9150826002028217905092915050565b6117dc826111c4565b67ffffffffffffffff8111156117f5576117f4610fde565b5b6117ff82546115f6565b61180a828285611746565b600060209050601f83116001811461183d576000841561182b578287015190505b61183585826117b7565b86555061189d565b601f19841661184b86611627565b60005b828110156118735784890151825560018201915060208501945060208101905061184e565b86831015611890578489015161188c601f891682611799565b8355505b6001600288020188555050505b50505050505056fea26469706673582212209ae523efe3004d7bed5a60abba928e97a93fa8bf293255380214480159d7384e64736f6c63430008110033",
  "linkReferences": {},
  "deployedLinkReferences": {}
}