{
  "_format": "hh-sol-artifact-1",
  "contractName": "Helpa",
  "sourceName": "contracts/Helpa.sol",
  "abi": [
    {
      "inputs": [
        {
          "internalType": "uint256",
          "name": "_index",
          "type": "uint256"
        },
        {
          "internalType": "address",
          "name": "_vendorAddress",
          "type": "address"
        }
      ],
      "name": "confirmService",
      "outputs": [],
      "stateMutability": "nonpayable",
      "type": "function"
    },
    {
      "inputs": [
        {
          "internalType": "uint256",
          "name": "vendorIndex",
          "type": "uint256"
        },
        {
          "internalType": "address payable",
          "name": "vendor",
          "type": "address"
        }
      ],
      "name": "createTransaction",
      "outputs": [],
      "stateMutability": "payable",
      "type": "function"
    },
    {
      "inputs": [
        {
          "internalType": "string",
          "name": "_businessName",
          "type": "string"
        },
        {
          "internalType": "string",
          "name": "_profession",
          "type": "string"
        },
        {
          "internalType": "string",
          "name": "_UDName",
          "type": "string"
        },
        {
          "internalType": "string",
          "name": "_CID",
          "type": "string"
        },
        {
          "internalType": "string",
          "name": "_description",
          "type": "string"
        },
        {
          "internalType": "uint256",
          "name": "_price",
          "type": "uint256"
        }
      ],
      "name": "createVendor",
      "outputs": [],
      "stateMutability": "nonpayable",
      "type": "function"
    },
    {
      "inputs": [],
      "name": "getBal",
      "outputs": [
        {
          "internalType": "uint256",
          "name": "",
          "type": "uint256"
        }
      ],
      "stateMutability": "view",
      "type": "function"
    },
    {
      "inputs": [],
      "name": "getTransactionCount",
      "outputs": [
        {
          "internalType": "uint256",
          "name": "",
          "type": "uint256"
        }
      ],
      "stateMutability": "view",
      "type": "function"
    },
    {
      "inputs": [
        {
          "internalType": "uint256",
          "name": "_index",
          "type": "uint256"
        }
      ],
      "name": "getTransactions",
      "outputs": [
        {
          "internalType": "uint256",
          "name": "transactionIndex",
          "type": "uint256"
        },
        {
          "internalType": "uint256",
          "name": "vendorIndex",
          "type": "uint256"
        },
        {
          "internalType": "address",
          "name": "vendor",
          "type": "address"
        },
        {
          "internalType": "address",
          "name": "customer",
          "type": "address"
        },
        {
          "internalType": "uint256",
          "name": "amount",
          "type": "uint256"
        },
        {
          "internalType": "enum Helpa.Status",
          "name": "status",
          "type": "uint8"
        },
        {
          "internalType": "uint256",
          "name": "dateCreated",
          "type": "uint256"
        },
        {
          "internalType": "uint256",
          "name": "dateCompleted",
          "type": "uint256"
        },
        {
          "internalType": "uint256",
          "name": "dateReviewing",
          "type": "uint256"
        },
        {
          "internalType": "string",
          "name": "CID",
          "type": "string"
        }
      ],
      "stateMutability": "view",
      "type": "function"
    },
    {
      "inputs": [],
      "name": "getVendorCount",
      "outputs": [
        {
          "internalType": "uint256",
          "name": "",
          "type": "uint256"
        }
      ],
      "stateMutability": "view",
      "type": "function"
    },
    {
      "inputs": [],
      "name": "getVendorTransactionCount",
      "outputs": [
        {
          "internalType": "uint256",
          "name": "",
          "type": "uint256"
        }
      ],
      "stateMutability": "view",
      "type": "function"
    },
    {
      "inputs": [
        {
          "internalType": "uint256",
          "name": "_index",
          "type": "uint256"
        }
      ],
      "name": "getVendorTransactions",
      "outputs": [
        {
          "internalType": "uint256",
          "name": "transactionIndex",
          "type": "uint256"
        },
        {
          "internalType": "address",
          "name": "customer",
          "type": "address"
        },
        {
          "internalType": "enum Helpa.Status",
          "name": "status",
          "type": "uint8"
        },
        {
          "internalType": "uint256",
          "name": "dateCreated",
          "type": "uint256"
        },
        {
          "internalType": "uint256",
          "name": "dateCompleted",
          "type": "uint256"
        }
      ],
      "stateMutability": "view",
      "type": "function"
    },
    {
      "inputs": [
        {
          "internalType": "uint256",
          "name": "_index",
          "type": "uint256"
        }
      ],
      "name": "getVendors",
      "outputs": [
        {
          "internalType": "address",
          "name": "vendorAddress",
          "type": "address"
        },
        {
          "internalType": "string",
          "name": "businessName",
          "type": "string"
        },
        {
          "internalType": "string",
          "name": "UDName",
          "type": "string"
        },
        {
          "internalType": "string",
          "name": "CID",
          "type": "string"
        },
        {
          "internalType": "string",
          "name": "description",
          "type": "string"
        },
        {
          "internalType": "string",
          "name": "profession",
          "type": "string"
        },
        {
          "internalType": "uint256",
          "name": "price",
          "type": "uint256"
        },
        {
          "internalType": "uint256",
          "name": "totalAmount",
          "type": "uint256"
        },
        {
          "internalType": "uint256",
          "name": "transCount",
          "type": "uint256"
        }
      ],
      "stateMutability": "view",
      "type": "function"
    },
    {
      "inputs": [
        {
          "internalType": "uint256",
          "name": "_index",
          "type": "uint256"
        },
        {
          "internalType": "address",
          "name": "_customerAddress",
          "type": "address"
        }
      ],
      "name": "serviceReviewing",
      "outputs": [],
      "stateMutability": "nonpayable",
      "type": "function"
    },
    {
      "inputs": [
        {
          "internalType": "address payable",
          "name": "_to",
          "type": "address"
        },
        {
          "internalType": "uint256",
          "name": "_amount",
          "type": "uint256"
        }
      ],
      "name": "transfer",
      "outputs": [
        {
          "internalType": "bool",
          "name": "",
          "type": "bool"
        }
      ],
      "stateMutability": "nonpayable",
      "type": "function"
    },
    {
      "inputs": [],
      "name": "vendorCount",
      "outputs": [
        {
          "internalType": "uint256",
          "name": "",
          "type": "uint256"
        }
      ],
      "stateMutability": "view",
      "type": "function"
    },
    {
      "inputs": [
        {
          "internalType": "address",
          "name": "",
          "type": "address"
        }
      ],
      "name": "vendorExists",
      "outputs": [
        {
          "internalType": "bool",
          "name": "",
          "type": "bool"
        }
      ],
      "stateMutability": "view",
      "type": "function"
    }
  ],
  "bytecode": "0x608060405234801561001057600080fd5b50612418806100206000396000f3fe6080604052600436106100dd5760003560e01c8063609f2f4a1161007f5780638858287b116100595780638858287b146102be578063a12eba7c146102e9578063a9059cbb14610314578063dd970f1014610351576100dd565b8063609f2f4a1461024e5780637cf4c543146102775780637f39836814610293576100dd565b806339213d32116100bb57806339213d32146101795780633aeae64d146101a25780635742177c146101cb5780635c05873814610211576100dd565b80631a4bf80c146100e257806325caa262146101235780632e7700f01461014e575b600080fd5b3480156100ee57600080fd5b50610109600480360381019061010491906115ca565b610396565b60405161011a9594939291906116be565b60405180910390f35b34801561012f57600080fd5b50610138610456565b6040516101459190611711565b60405180910390f35b34801561015a57600080fd5b5061016361045e565b6040516101709190611711565b60405180910390f35b34801561018557600080fd5b506101a0600480360381019061019b9190611758565b6104a5565b005b3480156101ae57600080fd5b506101c960048036038101906101c49190611758565b610702565b005b3480156101d757600080fd5b506101f260048036038101906101ed91906115ca565b61093a565b6040516102089a99989796959493929190611828565b60405180910390f35b34801561021d57600080fd5b50610238600480360381019061023391906118cb565b610af1565b6040516102459190611913565b60405180910390f35b34801561025a57600080fd5b5061027560048036038101906102709190611a63565b610b11565b005b610291600480360381019061028c9190611bba565b610cf1565b005b34801561029f57600080fd5b506102a861112a565b6040516102b59190611711565b60405180910390f35b3480156102ca57600080fd5b506102d3611171565b6040516102e09190611711565b60405180910390f35b3480156102f557600080fd5b506102fe611177565b60405161030b9190611711565b60405180910390f35b34801561032057600080fd5b5061033b60048036038101906103369190611bfa565b611180565b6040516103489190611913565b60405180910390f35b34801561035d57600080fd5b50610378600480360381019061037391906115ca565b611237565b60405161038d99989796959493929190611c3a565b60405180910390f35b600080600080600080600460003373ffffffffffffffffffffffffffffffffffffffff1673ffffffffffffffffffffffffffffffffffffffff16815260200190815260200160002087815481106103f0576103ef611cea565b5b90600052602060002090600302019050868160000160009054906101000a900473ffffffffffffffffffffffffffffffffffffffff168260000160149054906101000a900460ff1683600101548460020154955095509550955095505091939590929450565b600047905090565b6000600160003373ffffffffffffffffffffffffffffffffffffffff1673ffffffffffffffffffffffffffffffffffffffff16815260200190815260200160002054905090565b6000600360003373ffffffffffffffffffffffffffffffffffffffff1673ffffffffffffffffffffffffffffffffffffffff16815260200190815260200160002083815481106104f8576104f7611cea565b5b906000526020600020906008020190506000600460008473ffffffffffffffffffffffffffffffffffffffff1673ffffffffffffffffffffffffffffffffffffffff168152602001908152602001600020848154811061055b5761055a611cea565b5b906000526020600020906003020190503373ffffffffffffffffffffffffffffffffffffffff168260020160009054906101000a900473ffffffffffffffffffffffffffffffffffffffff1673ffffffffffffffffffffffffffffffffffffffff16146105fd576040517f08c379a00000000000000000000000000000000000000000000000000000000081526004016105f490611d8b565b60405180910390fd5b60006106318360010160009054906101000a900473ffffffffffffffffffffffffffffffffffffffff168460030154611180565b905080156106fb5760038360040160006101000a81548160ff0219169083600381111561066157610660611647565b5b021790555042836006018190555060038260000160146101000a81548160ff0219169083600381111561069757610696611647565b5b021790555042826002018190555060006005600085600001548152602001908152602001600020905083600301548160070160008282546106d89190611dda565b925050819055508060080160008154809291906106f490611e0e565b9190505550505b5050505050565b6000600360008373ffffffffffffffffffffffffffffffffffffffff1673ffffffffffffffffffffffffffffffffffffffff168152602001908152602001600020838154811061075557610754611cea565b5b906000526020600020906008020190506000600460003373ffffffffffffffffffffffffffffffffffffffff1673ffffffffffffffffffffffffffffffffffffffff16815260200190815260200160002084815481106107b8576107b7611cea565b5b906000526020600020906003020190503373ffffffffffffffffffffffffffffffffffffffff168260010160009054906101000a900473ffffffffffffffffffffffffffffffffffffffff1673ffffffffffffffffffffffffffffffffffffffff161461085a576040517f08c379a000000000000000000000000000000000000000000000000000000000815260040161085190611ec8565b60405180910390fd5b60038081111561086d5761086c611647565b5b8260040160009054906101000a900460ff16600381111561089157610890611647565b5b036108d1576040517f08c379a00000000000000000000000000000000000000000000000000000000081526004016108c890611f5a565b60405180910390fd5b60028260040160006101000a81548160ff021916908360038111156108f9576108f8611647565b5b021790555042826007018190555060028160000160146101000a81548160ff0219169083600381111561092f5761092e611647565b5b021790555050505050565b600080600080600080600080600060606000600360003373ffffffffffffffffffffffffffffffffffffffff1673ffffffffffffffffffffffffffffffffffffffff1681526020019081526020016000208c8154811061099d5761099c611cea565b5b906000526020600020906008020190506000600560008360000154815260200190815260200160002090508c82600001548360010160009054906101000a900473ffffffffffffffffffffffffffffffffffffffff168460020160009054906101000a900473ffffffffffffffffffffffffffffffffffffffff1685600301548660040160009054906101000a900460ff1687600501548860060154896007015489600401808054610a4e90611fa9565b80601f0160208091040260200160405190810160405280929190818152602001828054610a7a90611fa9565b8015610ac75780601f10610a9c57610100808354040283529160200191610ac7565b820191906000526020600020905b815481529060010190602001808311610aaa57829003601f168201915b505050505090509b509b509b509b509b509b509b509b509b509b5050509193959799509193959799565b60066020528060005260406000206000915054906101000a900460ff1681565b60001515600660003373ffffffffffffffffffffffffffffffffffffffff1673ffffffffffffffffffffffffffffffffffffffff16815260200190815260200160002060009054906101000a900460ff16151514610ba4576040517f08c379a0000000000000000000000000000000000000000000000000000000008152600401610b9b90612026565b60405180910390fd5b600080600060056000805481526020019081526020016000209050338160000160006101000a81548173ffffffffffffffffffffffffffffffffffffffff021916908373ffffffffffffffffffffffffffffffffffffffff16021790555088816001019081610c1391906121f2565b5087816002019081610c2591906121f2565b5086816003019081610c3791906121f2565b5085816004019081610c4991906121f2565b5084816005019081610c5b91906121f2565b508381600601819055508281600701819055508181600801819055506001600660003373ffffffffffffffffffffffffffffffffffffffff1673ffffffffffffffffffffffffffffffffffffffff16815260200190815260200160002060006101000a81548160ff021916908315150217905550600080815480929190610ce190611e0e565b9190505550505050505050505050565b3373ffffffffffffffffffffffffffffffffffffffff168173ffffffffffffffffffffffffffffffffffffffff1603610d5f576040517f08c379a0000000000000000000000000000000000000000000000000000000008152600401610d5690612310565b60405180910390fd5b600060019050600360003373ffffffffffffffffffffffffffffffffffffffff1673ffffffffffffffffffffffffffffffffffffffff1681526020019081526020016000206040518061010001604052808581526020018473ffffffffffffffffffffffffffffffffffffffff1681526020013373ffffffffffffffffffffffffffffffffffffffff168152602001348152602001836003811115610e0757610e06611647565b5b815260200142815260200160008152602001600081525090806001815401808255809150506001900390600052602060002090600802016000909190919091506000820151816000015560208201518160010160006101000a81548173ffffffffffffffffffffffffffffffffffffffff021916908373ffffffffffffffffffffffffffffffffffffffff16021790555060408201518160020160006101000a81548173ffffffffffffffffffffffffffffffffffffffff021916908373ffffffffffffffffffffffffffffffffffffffff1602179055506060820151816003015560808201518160040160006101000a81548160ff02191690836003811115610f1457610f13611647565b5b021790555060a0820151816005015560c0820151816006015560e082015181600701555050600460008373ffffffffffffffffffffffffffffffffffffffff1673ffffffffffffffffffffffffffffffffffffffff16815260200190815260200160002060405180608001604052803373ffffffffffffffffffffffffffffffffffffffff168152602001836003811115610fb257610fb1611647565b5b81526020014281526020016000815250908060018154018082558091505060019003906000526020600020906003020160009091909190915060008201518160000160006101000a81548173ffffffffffffffffffffffffffffffffffffffff021916908373ffffffffffffffffffffffffffffffffffffffff16021790555060208201518160000160146101000a81548160ff0219169083600381111561105d5761105c611647565b5b02179055506040820151816001015560608201518160020155505060018060003373ffffffffffffffffffffffffffffffffffffffff1673ffffffffffffffffffffffffffffffffffffffff16815260200190815260200160002060008282546110c79190611dda565b925050819055506001600260008473ffffffffffffffffffffffffffffffffffffffff1673ffffffffffffffffffffffffffffffffffffffff168152602001908152602001600020600082825461111e9190611dda565b92505081905550505050565b6000600260003373ffffffffffffffffffffffffffffffffffffffff1673ffffffffffffffffffffffffffffffffffffffff16815260200190815260200160002054905090565b60005481565b60008054905090565b6000808373ffffffffffffffffffffffffffffffffffffffff16836040516111a790612361565b60006040518083038185875af1925050503d80600081146111e4576040519150601f19603f3d011682016040523d82523d6000602084013e6111e9565b606091505b505090508061122d576040517f08c379a0000000000000000000000000000000000000000000000000000000008152600401611224906123c2565b60405180910390fd5b8091505092915050565b60006060806060806060600080600080600560008c815260200190815260200160002090508060000160009054906101000a900473ffffffffffffffffffffffffffffffffffffffff1681600101826003018360040184600501856002018660060154876007015488600801548780546112b090611fa9565b80601f01602080910402602001604051908101604052809291908181526020018280546112dc90611fa9565b80156113295780601f106112fe57610100808354040283529160200191611329565b820191906000526020600020905b81548152906001019060200180831161130c57829003601f168201915b5050505050975086805461133c90611fa9565b80601f016020809104026020016040519081016040528092919081815260200182805461136890611fa9565b80156113b55780601f1061138a576101008083540402835291602001916113b5565b820191906000526020600020905b81548152906001019060200180831161139857829003601f168201915b505050505096508580546113c890611fa9565b80601f01602080910402602001604051908101604052809291908181526020018280546113f490611fa9565b80156114415780601f1061141657610100808354040283529160200191611441565b820191906000526020600020905b81548152906001019060200180831161142457829003601f168201915b5050505050955084805461145490611fa9565b80601f016020809104026020016040519081016040528092919081815260200182805461148090611fa9565b80156114cd5780601f106114a2576101008083540402835291602001916114cd565b820191906000526020600020905b8154815290600101906020018083116114b057829003601f168201915b505050505094508380546114e090611fa9565b80601f016020809104026020016040519081016040528092919081815260200182805461150c90611fa9565b80156115595780601f1061152e57610100808354040283529160200191611559565b820191906000526020600020905b81548152906001019060200180831161153c57829003601f168201915b50505050509350995099509950995099509950995099509950509193959799909294969850565b6000604051905090565b600080fd5b600080fd5b6000819050919050565b6115a781611594565b81146115b257600080fd5b50565b6000813590506115c48161159e565b92915050565b6000602082840312156115e0576115df61158a565b5b60006115ee848285016115b5565b91505092915050565b61160081611594565b82525050565b600073ffffffffffffffffffffffffffffffffffffffff82169050919050565b600061163182611606565b9050919050565b61164181611626565b82525050565b7f4e487b7100000000000000000000000000000000000000000000000000000000600052602160045260246000fd5b6004811061168757611686611647565b5b50565b600081905061169882611676565b919050565b60006116a88261168a565b9050919050565b6116b88161169d565b82525050565b600060a0820190506116d360008301886115f7565b6116e06020830187611638565b6116ed60408301866116af565b6116fa60608301856115f7565b61170760808301846115f7565b9695505050505050565b600060208201905061172660008301846115f7565b92915050565b61173581611626565b811461174057600080fd5b50565b6000813590506117528161172c565b92915050565b6000806040838503121561176f5761176e61158a565b5b600061177d858286016115b5565b925050602061178e85828601611743565b9150509250929050565b600081519050919050565b600082825260208201905092915050565b60005b838110156117d25780820151818401526020810190506117b7565b60008484015250505050565b6000601f19601f8301169050919050565b60006117fa82611798565b61180481856117a3565b93506118148185602086016117b4565b61181d816117de565b840191505092915050565b60006101408201905061183e600083018d6115f7565b61184b602083018c6115f7565b611858604083018b611638565b611865606083018a611638565b61187260808301896115f7565b61187f60a08301886116af565b61188c60c08301876115f7565b61189960e08301866115f7565b6118a76101008301856115f7565b8181036101208301526118ba81846117ef565b90509b9a5050505050505050505050565b6000602082840312156118e1576118e061158a565b5b60006118ef84828501611743565b91505092915050565b60008115159050919050565b61190d816118f8565b82525050565b60006020820190506119286000830184611904565b92915050565b600080fd5b600080fd5b7f4e487b7100000000000000000000000000000000000000000000000000000000600052604160045260246000fd5b611970826117de565b810181811067ffffffffffffffff8211171561198f5761198e611938565b5b80604052505050565b60006119a2611580565b90506119ae8282611967565b919050565b600067ffffffffffffffff8211156119ce576119cd611938565b5b6119d7826117de565b9050602081019050919050565b82818337600083830152505050565b6000611a06611a01846119b3565b611998565b905082815260208101848484011115611a2257611a21611933565b5b611a2d8482856119e4565b509392505050565b600082601f830112611a4a57611a4961192e565b5b8135611a5a8482602086016119f3565b91505092915050565b60008060008060008060c08789031215611a8057611a7f61158a565b5b600087013567ffffffffffffffff811115611a9e57611a9d61158f565b5b611aaa89828a01611a35565b965050602087013567ffffffffffffffff811115611acb57611aca61158f565b5b611ad789828a01611a35565b955050604087013567ffffffffffffffff811115611af857611af761158f565b5b611b0489828a01611a35565b945050606087013567ffffffffffffffff811115611b2557611b2461158f565b5b611b3189828a01611a35565b935050608087013567ffffffffffffffff811115611b5257611b5161158f565b5b611b5e89828a01611a35565b92505060a0611b6f89828a016115b5565b9150509295509295509295565b6000611b8782611606565b9050919050565b611b9781611b7c565b8114611ba257600080fd5b50565b600081359050611bb481611b8e565b92915050565b60008060408385031215611bd157611bd061158a565b5b6000611bdf858286016115b5565b9250506020611bf085828601611ba5565b9150509250929050565b60008060408385031215611c1157611c1061158a565b5b6000611c1f85828601611ba5565b9250506020611c30858286016115b5565b9150509250929050565b600061012082019050611c50600083018c611638565b8181036020830152611c62818b6117ef565b90508181036040830152611c76818a6117ef565b90508181036060830152611c8a81896117ef565b90508181036080830152611c9e81886117ef565b905081810360a0830152611cb281876117ef565b9050611cc160c08301866115f7565b611cce60e08301856115f7565b611cdc6101008301846115f7565b9a9950505050505050505050565b7f4e487b7100000000000000000000000000000000000000000000000000000000600052603260045260246000fd5b7f4f6e6c792074686520637573746f6d65722063616e20636f6e6669726d20746860008201527f6520736572766963650000000000000000000000000000000000000000000000602082015250565b6000611d756029836117a3565b9150611d8082611d19565b604082019050919050565b60006020820190508181036000830152611da481611d68565b9050919050565b7f4e487b7100000000000000000000000000000000000000000000000000000000600052601160045260246000fd5b6000611de582611594565b9150611df083611594565b9250828201905080821115611e0857611e07611dab565b5b92915050565b6000611e1982611594565b91507fffffffffffffffffffffffffffffffffffffffffffffffffffffffffffffffff8203611e4b57611e4a611dab565b5b600182019050919050565b7f4f6e6c79207468652056656e646f722063616e20636f6e6669726d207365727660008201527f69636520636f6d706c6574656400000000000000000000000000000000000000602082015250565b6000611eb2602d836117a3565b9150611ebd82611e56565b604082019050919050565b60006020820190508181036000830152611ee181611ea5565b9050919050565b7f4f6e6c792074686520437573746f6d65722063616e20636f6e6669726d20736560008201527f727669636520636f6d706c657465640000000000000000000000000000000000602082015250565b6000611f44602f836117a3565b9150611f4f82611ee8565b604082019050919050565b60006020820190508181036000830152611f7381611f37565b9050919050565b7f4e487b7100000000000000000000000000000000000000000000000000000000600052602260045260246000fd5b60006002820490506001821680611fc157607f821691505b602082108103611fd457611fd3611f7a565b5b50919050565b7f56656e646f7220616c7265616479206578697374730000000000000000000000600082015250565b60006120106015836117a3565b915061201b82611fda565b602082019050919050565b6000602082019050818103600083015261203f81612003565b9050919050565b60008190508160005260206000209050919050565b60006020601f8301049050919050565b600082821b905092915050565b6000600883026120a87fffffffffffffffffffffffffffffffffffffffffffffffffffffffffffffffff8261206b565b6120b2868361206b565b95508019841693508086168417925050509392505050565b6000819050919050565b60006120ef6120ea6120e584611594565b6120ca565b611594565b9050919050565b6000819050919050565b612109836120d4565b61211d612115826120f6565b848454612078565b825550505050565b600090565b612132612125565b61213d818484612100565b505050565b5b818110156121615761215660008261212a565b600181019050612143565b5050565b601f8211156121a65761217781612046565b6121808461205b565b8101602085101561218f578190505b6121a361219b8561205b565b830182612142565b50505b505050565b600082821c905092915050565b60006121c9600019846008026121ab565b1980831691505092915050565b60006121e283836121b8565b9150826002028217905092915050565b6121fb82611798565b67ffffffffffffffff81111561221457612213611938565b5b61221e8254611fa9565b612229828285612165565b600060209050601f83116001811461225c576000841561224a578287015190505b61225485826121d6565b8655506122bc565b601f19841661226a86612046565b60005b828110156122925784890151825560018201915060208501945060208101905061226d565b868310156122af57848901516122ab601f8916826121b8565b8355505b6001600288020188555050505b505050505050565b7f596f752063616e27742062757920796f7572206f776e2070726f647563740000600082015250565b60006122fa601e836117a3565b9150612305826122c4565b602082019050919050565b60006020820190508181036000830152612329816122ed565b9050919050565b600081905092915050565b50565b600061234b600083612330565b91506123568261233b565b600082019050919050565b600061236c8261233e565b9150819050919050565b7f4661696c656420746f2073656e64204574686572000000000000000000000000600082015250565b60006123ac6014836117a3565b91506123b782612376565b602082019050919050565b600060208201905081810360008301526123db8161239f565b905091905056fea2646970667358221220338dd2a6c67ce49fdb58dd2aa79c07f67e971eca6504fef978ba6160be2c814264736f6c63430008110033",
  "linkReferences": {},
  "deployedLinkReferences": {}
}