{
  "_format": "hh-sol-artifact-1",
  "contractName": "Helpa",
  "sourceName": "contracts/Helpa.sol",
  "abi": [
    {
      "inputs": [
        {
          "internalType": "uint256",
          "name": "_index",
          "type": "uint256"
        },
        {
          "internalType": "enum Helpa.Status",
          "name": "_status",
          "type": "uint8"
        }
      ],
      "name": "confirmService",
      "outputs": [],
      "stateMutability": "nonpayable",
      "type": "function"
    },
    {
      "inputs": [
        {
          "internalType": "address payable",
          "name": "customer",
          "type": "address"
        },
        {
          "internalType": "address payable",
          "name": "vendor",
          "type": "address"
        }
      ],
      "name": "createTransaction",
      "outputs": [],
      "stateMutability": "payable",
      "type": "function"
    },
    {
      "inputs": [
        {
          "internalType": "string",
          "name": "_businessName",
          "type": "string"
        },
        {
          "internalType": "string",
          "name": "_profession",
          "type": "string"
        },
        {
          "internalType": "string",
          "name": "_UDName",
          "type": "string"
        },
        {
          "internalType": "string",
          "name": "_imgUrl",
          "type": "string"
        },
        {
          "internalType": "string",
          "name": "_description",
          "type": "string"
        },
        {
          "internalType": "uint256",
          "name": "_price",
          "type": "uint256"
        }
      ],
      "name": "createVendor",
      "outputs": [],
      "stateMutability": "nonpayable",
      "type": "function"
    },
    {
      "inputs": [],
      "name": "getBal",
      "outputs": [
        {
          "internalType": "uint256",
          "name": "",
          "type": "uint256"
        }
      ],
      "stateMutability": "view",
      "type": "function"
    },
    {
      "inputs": [],
      "name": "getTransactionCount",
      "outputs": [
        {
          "internalType": "uint256",
          "name": "",
          "type": "uint256"
        }
      ],
      "stateMutability": "view",
      "type": "function"
    },
    {
      "inputs": [],
      "name": "getTransactionStats",
      "outputs": [
        {
          "internalType": "uint256",
          "name": "amount",
          "type": "uint256"
        },
        {
          "internalType": "uint256",
          "name": "count",
          "type": "uint256"
        }
      ],
      "stateMutability": "view",
      "type": "function"
    },
    {
      "inputs": [
        {
          "internalType": "uint256",
          "name": "_index",
          "type": "uint256"
        }
      ],
      "name": "getTransactions",
      "outputs": [
        {
          "internalType": "address",
          "name": "vendor",
          "type": "address"
        },
        {
          "internalType": "address",
          "name": "customer",
          "type": "address"
        },
        {
          "internalType": "uint256",
          "name": "amount",
          "type": "uint256"
        },
        {
          "internalType": "enum Helpa.Status",
          "name": "status",
          "type": "uint8"
        },
        {
          "internalType": "uint256",
          "name": "dateCreated",
          "type": "uint256"
        },
        {
          "internalType": "uint256",
          "name": "dateCompleted",
          "type": "uint256"
        },
        {
          "internalType": "uint256",
          "name": "dateReviewing",
          "type": "uint256"
        }
      ],
      "stateMutability": "view",
      "type": "function"
    },
    {
      "inputs": [],
      "name": "getVendorCount",
      "outputs": [
        {
          "internalType": "uint256",
          "name": "",
          "type": "uint256"
        }
      ],
      "stateMutability": "view",
      "type": "function"
    },
    {
      "inputs": [
        {
          "internalType": "uint256",
          "name": "_index",
          "type": "uint256"
        }
      ],
      "name": "getVendors",
      "outputs": [
        {
          "internalType": "address",
          "name": "vendorAddress",
          "type": "address"
        },
        {
          "internalType": "string",
          "name": "businessName",
          "type": "string"
        },
        {
          "internalType": "string",
          "name": "UDName",
          "type": "string"
        },
        {
          "internalType": "string",
          "name": "imgUrl",
          "type": "string"
        },
        {
          "internalType": "string",
          "name": "description",
          "type": "string"
        },
        {
          "internalType": "uint256",
          "name": "price",
          "type": "uint256"
        }
      ],
      "stateMutability": "view",
      "type": "function"
    },
    {
      "inputs": [
        {
          "internalType": "uint256",
          "name": "_index",
          "type": "uint256"
        }
      ],
      "name": "serviceReviewing",
      "outputs": [],
      "stateMutability": "nonpayable",
      "type": "function"
    },
    {
      "inputs": [
        {
          "internalType": "address payable",
          "name": "_to",
          "type": "address"
        },
        {
          "internalType": "uint256",
          "name": "_amount",
          "type": "uint256"
        }
      ],
      "name": "transfer",
      "outputs": [
        {
          "internalType": "bool",
          "name": "",
          "type": "bool"
        }
      ],
      "stateMutability": "nonpayable",
      "type": "function"
    },
    {
      "inputs": [],
      "name": "vendorCount",
      "outputs": [
        {
          "internalType": "uint256",
          "name": "",
          "type": "uint256"
        }
      ],
      "stateMutability": "view",
      "type": "function"
    },
    {
      "inputs": [
        {
          "internalType": "address",
          "name": "",
          "type": "address"
        }
      ],
      "name": "vendorExists",
      "outputs": [
        {
          "internalType": "bool",
          "name": "",
          "type": "bool"
        }
      ],
      "stateMutability": "view",
      "type": "function"
    }
  ],
  "bytecode": "0x608060405234801561001057600080fd5b50611fc7806100206000396000f3fe6080604052600436106100c25760003560e01c80638858287b1161007f578063a9059cbb11610059578063a9059cbb14610261578063c25d20c31461029e578063dce9ed61146102ca578063dd970f10146102f3576100c2565b80638858287b146101e257806395c811631461020d578063a12eba7c14610236576100c2565b806325caa262146100c75780632e7700f0146100f25780635742177c1461011d5780635c05873814610160578063609f2f4a1461019d578063662a2c25146101c6575b600080fd5b3480156100d357600080fd5b506100dc610335565b6040516100e991906110fc565b60405180910390f35b3480156100fe57600080fd5b5061010761033d565b60405161011491906110fc565b60405180910390f35b34801561012957600080fd5b50610144600480360381019061013f9190611157565b610387565b604051610157979695949392919061123c565b60405180910390f35b34801561016c57600080fd5b50610187600480360381019061018291906112d7565b61047e565b604051610194919061131f565b60405180910390f35b3480156101a957600080fd5b506101c460048036038101906101bf9190611480565b61049e565b005b6101e060048036038101906101db91906115d7565b610667565b005b3480156101ee57600080fd5b506101f7610835565b60405161020491906110fc565b60405180910390f35b34801561021957600080fd5b50610234600480360381019061022f919061163c565b61083b565b005b34801561024257600080fd5b5061024b610b84565b60405161025891906110fc565b60405180910390f35b34801561026d57600080fd5b506102886004803603810190610283919061167c565b610b8d565b604051610295919061131f565b60405180910390f35b3480156102aa57600080fd5b506102b3610c44565b6040516102c19291906116bc565b60405180910390f35b3480156102d657600080fd5b506102f160048036038101906102ec9190611157565b610c9d565b005b3480156102ff57600080fd5b5061031a60048036038101906103159190611157565b610e43565b60405161032c96959493929190611764565b60405180910390f35b600047905090565b6000600160003373ffffffffffffffffffffffffffffffffffffffff1673ffffffffffffffffffffffffffffffffffffffff16815260200190815260200160002080549050905090565b600080600080600080600080600160003373ffffffffffffffffffffffffffffffffffffffff1673ffffffffffffffffffffffffffffffffffffffff16815260200190815260200160002089815481106103e4576103e36117e1565b5b906000526020600020906007020190508060000160009054906101000a900473ffffffffffffffffffffffffffffffffffffffff168160010160009054906101000a900473ffffffffffffffffffffffffffffffffffffffff1682600201548360030160009054906101000a900460ff16846004015485600501548660060154975097509750975097509750975050919395979092949650565b60046020528060005260406000206000915054906101000a900460ff1681565b60001515600460003373ffffffffffffffffffffffffffffffffffffffff1673ffffffffffffffffffffffffffffffffffffffff16815260200190815260200160002060009054906101000a900460ff16151514610531576040517f08c379a00000000000000000000000000000000000000000000000000000000081526004016105289061185c565b60405180910390fd5b600060036000805481526020019081526020016000209050338160000160006101000a81548173ffffffffffffffffffffffffffffffffffffffff021916908373ffffffffffffffffffffffffffffffffffffffff1602179055508681600101908161059d9190611a88565b50858160020190816105af9190611a88565b50848160030190816105c19190611a88565b50838160040190816105d39190611a88565b50828160050190816105e59190611a88565b508181600601819055506001600460003373ffffffffffffffffffffffffffffffffffffffff1673ffffffffffffffffffffffffffffffffffffffff16815260200190815260200160002060006101000a81548160ff02191690831515021790555060008081548092919061065990611b89565b919050555050505050505050565b600060019050600160003373ffffffffffffffffffffffffffffffffffffffff1673ffffffffffffffffffffffffffffffffffffffff1681526020019081526020016000206040518060e001604052808473ffffffffffffffffffffffffffffffffffffffff1681526020018573ffffffffffffffffffffffffffffffffffffffff168152602001348152602001836003811115610708576107076111c5565b5b8152602001428152602001600081526020016000815250908060018154018082558091505060019003906000526020600020906007020160009091909190915060008201518160000160006101000a81548173ffffffffffffffffffffffffffffffffffffffff021916908373ffffffffffffffffffffffffffffffffffffffff16021790555060208201518160010160006101000a81548173ffffffffffffffffffffffffffffffffffffffff021916908373ffffffffffffffffffffffffffffffffffffffff1602179055506040820151816002015560608201518160030160006101000a81548160ff0219169083600381111561080b5761080a6111c5565b5b02179055506080820151816004015560a0820151816005015560c082015181600601555050505050565b60005481565b6002600381111561084f5761084e6111c5565b5b816003811115610862576108616111c5565b5b146108a2576040517f08c379a000000000000000000000000000000000000000000000000000000000815260040161089990611c43565b60405180910390fd5b6000600160003373ffffffffffffffffffffffffffffffffffffffff1673ffffffffffffffffffffffffffffffffffffffff16815260200190815260200160002083815481106108f5576108f46117e1565b5b906000526020600020906007020190503373ffffffffffffffffffffffffffffffffffffffff168160010160009054906101000a900473ffffffffffffffffffffffffffffffffffffffff1673ffffffffffffffffffffffffffffffffffffffff1614610997576040517f08c379a000000000000000000000000000000000000000000000000000000000815260040161098e90611cd5565b60405180910390fd5b6003808111156109aa576109a96111c5565b5b8160030160009054906101000a900460ff1660038111156109ce576109cd6111c5565b5b14610a0e576040517f08c379a0000000000000000000000000000000000000000000000000000000008152600401610a0590611d67565b60405180910390fd5b600380811115610a2157610a206111c5565b5b826003811115610a3457610a336111c5565b5b03610b52576000610a6d8260000160009054906101000a900473ffffffffffffffffffffffffffffffffffffffff168360020154610b8d565b90508015610b4c57828260030160006101000a81548160ff02191690836003811115610a9c57610a9b6111c5565b5b02179055504282600501819055506000600260008460000160009054906101000a900473ffffffffffffffffffffffffffffffffffffffff1673ffffffffffffffffffffffffffffffffffffffff1673ffffffffffffffffffffffffffffffffffffffff16815260200190815260200160002090508260020154816000016000828254610b299190611d87565b92505081905550806001016000815480929190610b4590611b89565b9190505550505b50610b7f565b818160030160006101000a81548160ff02191690836003811115610b7957610b786111c5565b5b02179055505b505050565b60008054905090565b6000808373ffffffffffffffffffffffffffffffffffffffff1683604051610bb490611dec565b60006040518083038185875af1925050503d8060008114610bf1576040519150601f19603f3d011682016040523d82523d6000602084013e610bf6565b606091505b5050905080610c3a576040517f08c379a0000000000000000000000000000000000000000000000000000000008152600401610c3190611e4d565b60405180910390fd5b8091505092915050565b6000806000600260003373ffffffffffffffffffffffffffffffffffffffff1673ffffffffffffffffffffffffffffffffffffffff16815260200190815260200160002090508060000154816001015492509250509091565b6000600160003373ffffffffffffffffffffffffffffffffffffffff1673ffffffffffffffffffffffffffffffffffffffff1681526020019081526020016000208281548110610cf057610cef6117e1565b5b906000526020600020906007020190503373ffffffffffffffffffffffffffffffffffffffff168160000160009054906101000a900473ffffffffffffffffffffffffffffffffffffffff1673ffffffffffffffffffffffffffffffffffffffff1614610d92576040517f08c379a0000000000000000000000000000000000000000000000000000000008152600401610d8990611edf565b60405180910390fd5b600380811115610da557610da46111c5565b5b8160030160009054906101000a900460ff166003811115610dc957610dc86111c5565b5b03610e09576040517f08c379a0000000000000000000000000000000000000000000000000000000008152600401610e0090611f71565b60405180910390fd5b60028160030160006101000a81548160ff02191690836003811115610e3157610e306111c5565b5b02179055504281600601819055505050565b60006060806060806000806003600089815260200190815260200160002090508060000160009054906101000a900473ffffffffffffffffffffffffffffffffffffffff16816001018260030183600401846005018560060154848054610ea9906118ab565b80601f0160208091040260200160405190810160405280929190818152602001828054610ed5906118ab565b8015610f225780601f10610ef757610100808354040283529160200191610f22565b820191906000526020600020905b815481529060010190602001808311610f0557829003601f168201915b50505050509450838054610f35906118ab565b80601f0160208091040260200160405190810160405280929190818152602001828054610f61906118ab565b8015610fae5780601f10610f8357610100808354040283529160200191610fae565b820191906000526020600020905b815481529060010190602001808311610f9157829003601f168201915b50505050509350828054610fc1906118ab565b80601f0160208091040260200160405190810160405280929190818152602001828054610fed906118ab565b801561103a5780601f1061100f5761010080835404028352916020019161103a565b820191906000526020600020905b81548152906001019060200180831161101d57829003601f168201915b5050505050925081805461104d906118ab565b80601f0160208091040260200160405190810160405280929190818152602001828054611079906118ab565b80156110c65780601f1061109b576101008083540402835291602001916110c6565b820191906000526020600020905b8154815290600101906020018083116110a957829003601f168201915b505050505091509650965096509650965096505091939550919395565b6000819050919050565b6110f6816110e3565b82525050565b600060208201905061111160008301846110ed565b92915050565b6000604051905090565b600080fd5b600080fd5b611134816110e3565b811461113f57600080fd5b50565b6000813590506111518161112b565b92915050565b60006020828403121561116d5761116c611121565b5b600061117b84828501611142565b91505092915050565b600073ffffffffffffffffffffffffffffffffffffffff82169050919050565b60006111af82611184565b9050919050565b6111bf816111a4565b82525050565b7f4e487b7100000000000000000000000000000000000000000000000000000000600052602160045260246000fd5b60048110611205576112046111c5565b5b50565b6000819050611216826111f4565b919050565b600061122682611208565b9050919050565b6112368161121b565b82525050565b600060e082019050611251600083018a6111b6565b61125e60208301896111b6565b61126b60408301886110ed565b611278606083018761122d565b61128560808301866110ed565b61129260a08301856110ed565b61129f60c08301846110ed565b98975050505050505050565b6112b4816111a4565b81146112bf57600080fd5b50565b6000813590506112d1816112ab565b92915050565b6000602082840312156112ed576112ec611121565b5b60006112fb848285016112c2565b91505092915050565b60008115159050919050565b61131981611304565b82525050565b60006020820190506113346000830184611310565b92915050565b600080fd5b600080fd5b6000601f19601f8301169050919050565b7f4e487b7100000000000000000000000000000000000000000000000000000000600052604160045260246000fd5b61138d82611344565b810181811067ffffffffffffffff821117156113ac576113ab611355565b5b80604052505050565b60006113bf611117565b90506113cb8282611384565b919050565b600067ffffffffffffffff8211156113eb576113ea611355565b5b6113f482611344565b9050602081019050919050565b82818337600083830152505050565b600061142361141e846113d0565b6113b5565b90508281526020810184848401111561143f5761143e61133f565b5b61144a848285611401565b509392505050565b600082601f8301126114675761146661133a565b5b8135611477848260208601611410565b91505092915050565b60008060008060008060c0878903121561149d5761149c611121565b5b600087013567ffffffffffffffff8111156114bb576114ba611126565b5b6114c789828a01611452565b965050602087013567ffffffffffffffff8111156114e8576114e7611126565b5b6114f489828a01611452565b955050604087013567ffffffffffffffff81111561151557611514611126565b5b61152189828a01611452565b945050606087013567ffffffffffffffff81111561154257611541611126565b5b61154e89828a01611452565b935050608087013567ffffffffffffffff81111561156f5761156e611126565b5b61157b89828a01611452565b92505060a061158c89828a01611142565b9150509295509295509295565b60006115a482611184565b9050919050565b6115b481611599565b81146115bf57600080fd5b50565b6000813590506115d1816115ab565b92915050565b600080604083850312156115ee576115ed611121565b5b60006115fc858286016115c2565b925050602061160d858286016115c2565b9150509250929050565b6004811061162457600080fd5b50565b60008135905061163681611617565b92915050565b6000806040838503121561165357611652611121565b5b600061166185828601611142565b925050602061167285828601611627565b9150509250929050565b6000806040838503121561169357611692611121565b5b60006116a1858286016115c2565b92505060206116b285828601611142565b9150509250929050565b60006040820190506116d160008301856110ed565b6116de60208301846110ed565b9392505050565b600081519050919050565b600082825260208201905092915050565b60005b8381101561171f578082015181840152602081019050611704565b60008484015250505050565b6000611736826116e5565b61174081856116f0565b9350611750818560208601611701565b61175981611344565b840191505092915050565b600060c08201905061177960008301896111b6565b818103602083015261178b818861172b565b9050818103604083015261179f818761172b565b905081810360608301526117b3818661172b565b905081810360808301526117c7818561172b565b90506117d660a08301846110ed565b979650505050505050565b7f4e487b7100000000000000000000000000000000000000000000000000000000600052603260045260246000fd5b7f56656e646f7220616c7265616479206578697374730000000000000000000000600082015250565b60006118466015836116f0565b915061185182611810565b602082019050919050565b6000602082019050818103600083015261187581611839565b9050919050565b7f4e487b7100000000000000000000000000000000000000000000000000000000600052602260045260246000fd5b600060028204905060018216806118c357607f821691505b6020821081036118d6576118d561187c565b5b50919050565b60008190508160005260206000209050919050565b60006020601f8301049050919050565b600082821b905092915050565b60006008830261193e7fffffffffffffffffffffffffffffffffffffffffffffffffffffffffffffffff82611901565b6119488683611901565b95508019841693508086168417925050509392505050565b6000819050919050565b600061198561198061197b846110e3565b611960565b6110e3565b9050919050565b6000819050919050565b61199f8361196a565b6119b36119ab8261198c565b84845461190e565b825550505050565b600090565b6119c86119bb565b6119d3818484611996565b505050565b5b818110156119f7576119ec6000826119c0565b6001810190506119d9565b5050565b601f821115611a3c57611a0d816118dc565b611a16846118f1565b81016020851015611a25578190505b611a39611a31856118f1565b8301826119d8565b50505b505050565b600082821c905092915050565b6000611a5f60001984600802611a41565b1980831691505092915050565b6000611a788383611a4e565b9150826002028217905092915050565b611a91826116e5565b67ffffffffffffffff811115611aaa57611aa9611355565b5b611ab482546118ab565b611abf8282856119fb565b600060209050601f831160018114611af25760008415611ae0578287015190505b611aea8582611a6c565b865550611b52565b601f198416611b00866118dc565b60005b82811015611b2857848901518255600182019150602085019450602081019050611b03565b86831015611b455784890151611b41601f891682611a4e565b8355505b6001600288020188555050505b505050505050565b7f4e487b7100000000000000000000000000000000000000000000000000000000600052601160045260246000fd5b6000611b94826110e3565b91507fffffffffffffffffffffffffffffffffffffffffffffffffffffffffffffffff8203611bc657611bc5611b5a565b5b600182019050919050565b7f5472616e73616374696f6e2063616e206f6e6c792062652073656e7420666f7260008201527f20726576696577206279207468652056656e646f720000000000000000000000602082015250565b6000611c2d6035836116f0565b9150611c3882611bd1565b604082019050919050565b60006020820190508181036000830152611c5c81611c20565b9050919050565b7f4f6e6c792074686520637573746f6d65722063616e20636f6e6669726d20746860008201527f6520736572766963650000000000000000000000000000000000000000000000602082015250565b6000611cbf6029836116f0565b9150611cca82611c63565b604082019050919050565b60006020820190508181036000830152611cee81611cb2565b9050919050565b7f5472616e73616374696f6e20686173206265656e20636f6d706c65746564206160008201527f6c72656164790000000000000000000000000000000000000000000000000000602082015250565b6000611d516026836116f0565b9150611d5c82611cf5565b604082019050919050565b60006020820190508181036000830152611d8081611d44565b9050919050565b6000611d92826110e3565b9150611d9d836110e3565b9250828201905080821115611db557611db4611b5a565b5b92915050565b600081905092915050565b50565b6000611dd6600083611dbb565b9150611de182611dc6565b600082019050919050565b6000611df782611dc9565b9150819050919050565b7f4661696c656420746f2073656e64204574686572000000000000000000000000600082015250565b6000611e376014836116f0565b9150611e4282611e01565b602082019050919050565b60006020820190508181036000830152611e6681611e2a565b9050919050565b7f4f6e6c79207468652056656e646f722063616e20636f6e6669726d207365727660008201527f69636520636f6d706c6574656400000000000000000000000000000000000000602082015250565b6000611ec9602d836116f0565b9150611ed482611e6d565b604082019050919050565b60006020820190508181036000830152611ef881611ebc565b9050919050565b7f4f6e6c792074686520437573746f6d65722063616e20636f6e6669726d20736560008201527f727669636520636f6d706c657465640000000000000000000000000000000000602082015250565b6000611f5b602f836116f0565b9150611f6682611eff565b604082019050919050565b60006020820190508181036000830152611f8a81611f4e565b905091905056fea2646970667358221220fce2ace9c1faca0999447dfcbb3496d2dabdeaf8d06d2aaa43a8f179778bdee164736f6c63430008110033",
  "linkReferences": {},
  "deployedLinkReferences": {}
}