{
  "_format": "hh-sol-artifact-1",
  "contractName": "Helpa",
  "sourceName": "contracts/Helpa.sol",
  "abi": [
    {
      "inputs": [
        {
          "internalType": "uint256",
          "name": "_index",
          "type": "uint256"
        },
        {
          "internalType": "address",
          "name": "_vendorAddress",
          "type": "address"
        }
      ],
      "name": "confirmService",
      "outputs": [],
      "stateMutability": "nonpayable",
      "type": "function"
    },
    {
      "inputs": [
        {
          "internalType": "uint256",
          "name": "vendorIndex",
          "type": "uint256"
        },
        {
          "internalType": "address payable",
          "name": "vendor",
          "type": "address"
        }
      ],
      "name": "createTransaction",
      "outputs": [],
      "stateMutability": "payable",
      "type": "function"
    },
    {
      "inputs": [
        {
          "internalType": "string",
          "name": "_businessName",
          "type": "string"
        },
        {
          "internalType": "string",
          "name": "_profession",
          "type": "string"
        },
        {
          "internalType": "string",
          "name": "_UDName",
          "type": "string"
        },
        {
          "internalType": "string",
          "name": "_CID",
          "type": "string"
        },
        {
          "internalType": "string",
          "name": "_description",
          "type": "string"
        },
        {
          "internalType": "uint256",
          "name": "_price",
          "type": "uint256"
        }
      ],
      "name": "createVendor",
      "outputs": [],
      "stateMutability": "nonpayable",
      "type": "function"
    },
    {
      "inputs": [],
      "name": "getBal",
      "outputs": [
        {
          "internalType": "uint256",
          "name": "",
          "type": "uint256"
        }
      ],
      "stateMutability": "view",
      "type": "function"
    },
    {
      "inputs": [],
      "name": "getTransactionCount",
      "outputs": [
        {
          "internalType": "uint256",
          "name": "",
          "type": "uint256"
        }
      ],
      "stateMutability": "view",
      "type": "function"
    },
    {
      "inputs": [
        {
          "internalType": "uint256",
          "name": "_index",
          "type": "uint256"
        }
      ],
      "name": "getTransactions",
      "outputs": [
        {
          "internalType": "uint256",
          "name": "transactionIndex",
          "type": "uint256"
        },
        {
          "internalType": "uint256",
          "name": "vendorIndex",
          "type": "uint256"
        },
        {
          "internalType": "address",
          "name": "vendor",
          "type": "address"
        },
        {
          "internalType": "address",
          "name": "customer",
          "type": "address"
        },
        {
          "internalType": "uint256",
          "name": "amount",
          "type": "uint256"
        },
        {
          "internalType": "enum Helpa.Status",
          "name": "status",
          "type": "uint8"
        },
        {
          "internalType": "uint256",
          "name": "dateCreated",
          "type": "uint256"
        },
        {
          "internalType": "uint256",
          "name": "dateCompleted",
          "type": "uint256"
        },
        {
          "internalType": "uint256",
          "name": "dateReviewing",
          "type": "uint256"
        },
        {
          "internalType": "string",
          "name": "CID",
          "type": "string"
        },
        {
          "internalType": "string",
          "name": "UDName",
          "type": "string"
        }
      ],
      "stateMutability": "view",
      "type": "function"
    },
    {
      "inputs": [],
      "name": "getVendorCount",
      "outputs": [
        {
          "internalType": "uint256",
          "name": "",
          "type": "uint256"
        }
      ],
      "stateMutability": "view",
      "type": "function"
    },
    {
      "inputs": [],
      "name": "getVendorTransactionCount",
      "outputs": [
        {
          "internalType": "uint256",
          "name": "",
          "type": "uint256"
        }
      ],
      "stateMutability": "view",
      "type": "function"
    },
    {
      "inputs": [
        {
          "internalType": "uint256",
          "name": "_index",
          "type": "uint256"
        }
      ],
      "name": "getVendorTransactions",
      "outputs": [
        {
          "internalType": "uint256",
          "name": "transactionIndex",
          "type": "uint256"
        },
        {
          "internalType": "address",
          "name": "customer",
          "type": "address"
        },
        {
          "internalType": "enum Helpa.Status",
          "name": "status",
          "type": "uint8"
        },
        {
          "internalType": "uint256",
          "name": "dateCreated",
          "type": "uint256"
        },
        {
          "internalType": "uint256",
          "name": "dateCompleted",
          "type": "uint256"
        }
      ],
      "stateMutability": "view",
      "type": "function"
    },
    {
      "inputs": [
        {
          "internalType": "uint256",
          "name": "_index",
          "type": "uint256"
        }
      ],
      "name": "getVendors",
      "outputs": [
        {
          "internalType": "address",
          "name": "vendorAddress",
          "type": "address"
        },
        {
          "internalType": "string",
          "name": "businessName",
          "type": "string"
        },
        {
          "internalType": "string",
          "name": "UDName",
          "type": "string"
        },
        {
          "internalType": "string",
          "name": "CID",
          "type": "string"
        },
        {
          "internalType": "string",
          "name": "description",
          "type": "string"
        },
        {
          "internalType": "string",
          "name": "profession",
          "type": "string"
        },
        {
          "internalType": "uint256",
          "name": "price",
          "type": "uint256"
        },
        {
          "internalType": "uint256",
          "name": "totalAmount",
          "type": "uint256"
        },
        {
          "internalType": "uint256",
          "name": "transCount",
          "type": "uint256"
        }
      ],
      "stateMutability": "view",
      "type": "function"
    },
    {
      "inputs": [
        {
          "internalType": "uint256",
          "name": "_index",
          "type": "uint256"
        },
        {
          "internalType": "address",
          "name": "_customerAddress",
          "type": "address"
        }
      ],
      "name": "serviceReviewing",
      "outputs": [],
      "stateMutability": "nonpayable",
      "type": "function"
    },
    {
      "inputs": [
        {
          "internalType": "address payable",
          "name": "_to",
          "type": "address"
        },
        {
          "internalType": "uint256",
          "name": "_amount",
          "type": "uint256"
        }
      ],
      "name": "tip",
      "outputs": [],
      "stateMutability": "payable",
      "type": "function"
    },
    {
      "inputs": [
        {
          "internalType": "address payable",
          "name": "_to",
          "type": "address"
        },
        {
          "internalType": "uint256",
          "name": "_amount",
          "type": "uint256"
        }
      ],
      "name": "transfer",
      "outputs": [
        {
          "internalType": "bool",
          "name": "",
          "type": "bool"
        }
      ],
      "stateMutability": "nonpayable",
      "type": "function"
    },
    {
      "inputs": [],
      "name": "vendorCount",
      "outputs": [
        {
          "internalType": "uint256",
          "name": "",
          "type": "uint256"
        }
      ],
      "stateMutability": "view",
      "type": "function"
    },
    {
      "inputs": [
        {
          "internalType": "address",
          "name": "",
          "type": "address"
        }
      ],
      "name": "vendorExists",
      "outputs": [
        {
          "internalType": "bool",
          "name": "",
          "type": "bool"
        }
      ],
      "stateMutability": "view",
      "type": "function"
    }
  ],
  "bytecode": "0x608060405234801561001057600080fd5b5061259c806100206000396000f3fe6080604052600436106100e85760003560e01c8063609f2f4a1161008a5780638b6fc452116100595780638b6fc452146102f5578063a12eba7c14610311578063a9059cbb1461033c578063dd970f1014610379576100e8565b8063609f2f4a1461025a5780637cf4c543146102835780637f3983681461029f5780638858287b146102ca576100e8565b806339213d32116100c657806339213d32146101845780633aeae64d146101ad5780635742177c146101d65780635c0587381461021d576100e8565b80631a4bf80c146100ed57806325caa2621461012e5780632e7700f014610159575b600080fd5b3480156100f957600080fd5b50610114600480360381019061010f9190611738565b6103be565b60405161012595949392919061182c565b60405180910390f35b34801561013a57600080fd5b5061014361047e565b604051610150919061187f565b60405180910390f35b34801561016557600080fd5b5061016e610486565b60405161017b919061187f565b60405180910390f35b34801561019057600080fd5b506101ab60048036038101906101a691906118c6565b6104cd565b005b3480156101b957600080fd5b506101d460048036038101906101cf91906118c6565b61072a565b005b3480156101e257600080fd5b506101fd60048036038101906101f89190611738565b610962565b6040516102149b9a99989796959493929190611996565b60405180910390f35b34801561022957600080fd5b50610244600480360381019061023f9190611a4f565b610bae565b6040516102519190611a97565b60405180910390f35b34801561026657600080fd5b50610281600480360381019061027c9190611be7565b610bce565b005b61029d60048036038101906102989190611d3e565b610dae565b005b3480156102ab57600080fd5b506102b46111e7565b6040516102c1919061187f565b60405180910390f35b3480156102d657600080fd5b506102df61122e565b6040516102ec919061187f565b60405180910390f35b61030f600480360381019061030a9190611d7e565b611234565b005b34801561031d57600080fd5b506103266112e5565b604051610333919061187f565b60405180910390f35b34801561034857600080fd5b50610363600480360381019061035e9190611d7e565b6112ee565b6040516103709190611a97565b60405180910390f35b34801561038557600080fd5b506103a0600480360381019061039b9190611738565b6113a5565b6040516103b599989796959493929190611dbe565b60405180910390f35b600080600080600080600460003373ffffffffffffffffffffffffffffffffffffffff1673ffffffffffffffffffffffffffffffffffffffff168152602001908152602001600020878154811061041857610417611e6e565b5b90600052602060002090600302019050868160000160009054906101000a900473ffffffffffffffffffffffffffffffffffffffff168260000160149054906101000a900460ff1683600101548460020154955095509550955095505091939590929450565b600047905090565b6000600160003373ffffffffffffffffffffffffffffffffffffffff1673ffffffffffffffffffffffffffffffffffffffff16815260200190815260200160002054905090565b6000600360003373ffffffffffffffffffffffffffffffffffffffff1673ffffffffffffffffffffffffffffffffffffffff16815260200190815260200160002083815481106105205761051f611e6e565b5b906000526020600020906008020190506000600460008473ffffffffffffffffffffffffffffffffffffffff1673ffffffffffffffffffffffffffffffffffffffff168152602001908152602001600020848154811061058357610582611e6e565b5b906000526020600020906003020190503373ffffffffffffffffffffffffffffffffffffffff168260020160009054906101000a900473ffffffffffffffffffffffffffffffffffffffff1673ffffffffffffffffffffffffffffffffffffffff1614610625576040517f08c379a000000000000000000000000000000000000000000000000000000000815260040161061c90611f0f565b60405180910390fd5b60006106598360010160009054906101000a900473ffffffffffffffffffffffffffffffffffffffff1684600301546112ee565b905080156107235760038360040160006101000a81548160ff02191690836003811115610689576106886117b5565b5b021790555042836006018190555060038260000160146101000a81548160ff021916908360038111156106bf576106be6117b5565b5b021790555042826002018190555060006005600085600001548152602001908152602001600020905083600301548160070160008282546107009190611f5e565b9250508190555080600801600081548092919061071c90611f92565b9190505550505b5050505050565b6000600360008373ffffffffffffffffffffffffffffffffffffffff1673ffffffffffffffffffffffffffffffffffffffff168152602001908152602001600020838154811061077d5761077c611e6e565b5b906000526020600020906008020190506000600460003373ffffffffffffffffffffffffffffffffffffffff1673ffffffffffffffffffffffffffffffffffffffff16815260200190815260200160002084815481106107e0576107df611e6e565b5b906000526020600020906003020190503373ffffffffffffffffffffffffffffffffffffffff168260010160009054906101000a900473ffffffffffffffffffffffffffffffffffffffff1673ffffffffffffffffffffffffffffffffffffffff1614610882576040517f08c379a00000000000000000000000000000000000000000000000000000000081526004016108799061204c565b60405180910390fd5b600380811115610895576108946117b5565b5b8260040160009054906101000a900460ff1660038111156108b9576108b86117b5565b5b036108f9576040517f08c379a00000000000000000000000000000000000000000000000000000000081526004016108f0906120de565b60405180910390fd5b60028260040160006101000a81548160ff02191690836003811115610921576109206117b5565b5b021790555042826007018190555060028160000160146101000a81548160ff02191690836003811115610957576109566117b5565b5b021790555050505050565b60008060008060008060008060006060806000600360003373ffffffffffffffffffffffffffffffffffffffff1673ffffffffffffffffffffffffffffffffffffffff1681526020019081526020016000208d815481106109c6576109c5611e6e565b5b906000526020600020906008020190506000600560008360000154815260200190815260200160002090508d82600001548360010160009054906101000a900473ffffffffffffffffffffffffffffffffffffffff168460020160009054906101000a900473ffffffffffffffffffffffffffffffffffffffff1685600301548660040160009054906101000a900460ff16876005015488600601548960070154896004018a600301818054610a7b9061212d565b80601f0160208091040260200160405190810160405280929190818152602001828054610aa79061212d565b8015610af45780601f10610ac957610100808354040283529160200191610af4565b820191906000526020600020905b815481529060010190602001808311610ad757829003601f168201915b50505050509150808054610b079061212d565b80601f0160208091040260200160405190810160405280929190818152602001828054610b339061212d565b8015610b805780601f10610b5557610100808354040283529160200191610b80565b820191906000526020600020905b815481529060010190602001808311610b6357829003601f168201915b505050505090509c509c509c509c509c509c509c509c509c509c509c50505091939597999b90929496989a50565b60066020528060005260406000206000915054906101000a900460ff1681565b60001515600660003373ffffffffffffffffffffffffffffffffffffffff1673ffffffffffffffffffffffffffffffffffffffff16815260200190815260200160002060009054906101000a900460ff16151514610c61576040517f08c379a0000000000000000000000000000000000000000000000000000000008152600401610c58906121aa565b60405180910390fd5b600080600060056000805481526020019081526020016000209050338160000160006101000a81548173ffffffffffffffffffffffffffffffffffffffff021916908373ffffffffffffffffffffffffffffffffffffffff16021790555088816001019081610cd09190612376565b5087816002019081610ce29190612376565b5086816003019081610cf49190612376565b5085816004019081610d069190612376565b5084816005019081610d189190612376565b508381600601819055508281600701819055508181600801819055506001600660003373ffffffffffffffffffffffffffffffffffffffff1673ffffffffffffffffffffffffffffffffffffffff16815260200190815260200160002060006101000a81548160ff021916908315150217905550600080815480929190610d9e90611f92565b9190505550505050505050505050565b3373ffffffffffffffffffffffffffffffffffffffff168173ffffffffffffffffffffffffffffffffffffffff1603610e1c576040517f08c379a0000000000000000000000000000000000000000000000000000000008152600401610e1390612494565b60405180910390fd5b600060019050600360003373ffffffffffffffffffffffffffffffffffffffff1673ffffffffffffffffffffffffffffffffffffffff1681526020019081526020016000206040518061010001604052808581526020018473ffffffffffffffffffffffffffffffffffffffff1681526020013373ffffffffffffffffffffffffffffffffffffffff168152602001348152602001836003811115610ec457610ec36117b5565b5b815260200142815260200160008152602001600081525090806001815401808255809150506001900390600052602060002090600802016000909190919091506000820151816000015560208201518160010160006101000a81548173ffffffffffffffffffffffffffffffffffffffff021916908373ffffffffffffffffffffffffffffffffffffffff16021790555060408201518160020160006101000a81548173ffffffffffffffffffffffffffffffffffffffff021916908373ffffffffffffffffffffffffffffffffffffffff1602179055506060820151816003015560808201518160040160006101000a81548160ff02191690836003811115610fd157610fd06117b5565b5b021790555060a0820151816005015560c0820151816006015560e082015181600701555050600460008373ffffffffffffffffffffffffffffffffffffffff1673ffffffffffffffffffffffffffffffffffffffff16815260200190815260200160002060405180608001604052803373ffffffffffffffffffffffffffffffffffffffff16815260200183600381111561106f5761106e6117b5565b5b81526020014281526020016000815250908060018154018082558091505060019003906000526020600020906003020160009091909190915060008201518160000160006101000a81548173ffffffffffffffffffffffffffffffffffffffff021916908373ffffffffffffffffffffffffffffffffffffffff16021790555060208201518160000160146101000a81548160ff0219169083600381111561111a576111196117b5565b5b02179055506040820151816001015560608201518160020155505060018060003373ffffffffffffffffffffffffffffffffffffffff1673ffffffffffffffffffffffffffffffffffffffff16815260200190815260200160002060008282546111849190611f5e565b925050819055506001600260008473ffffffffffffffffffffffffffffffffffffffff1673ffffffffffffffffffffffffffffffffffffffff16815260200190815260200160002060008282546111db9190611f5e565b92505081905550505050565b6000600260003373ffffffffffffffffffffffffffffffffffffffff1673ffffffffffffffffffffffffffffffffffffffff16815260200190815260200160002054905090565b60005481565b60008273ffffffffffffffffffffffffffffffffffffffff168260405161125a906124e5565b60006040518083038185875af1925050503d8060008114611297576040519150601f19603f3d011682016040523d82523d6000602084013e61129c565b606091505b50509050806112e0576040517f08c379a00000000000000000000000000000000000000000000000000000000081526004016112d790612546565b60405180910390fd5b505050565b60008054905090565b6000808373ffffffffffffffffffffffffffffffffffffffff1683604051611315906124e5565b60006040518083038185875af1925050503d8060008114611352576040519150601f19603f3d011682016040523d82523d6000602084013e611357565b606091505b505090508061139b576040517f08c379a000000000000000000000000000000000000000000000000000000000815260040161139290612546565b60405180910390fd5b8091505092915050565b60006060806060806060600080600080600560008c815260200190815260200160002090508060000160009054906101000a900473ffffffffffffffffffffffffffffffffffffffff16816001018260030183600401846005018560020186600601548760070154886008015487805461141e9061212d565b80601f016020809104026020016040519081016040528092919081815260200182805461144a9061212d565b80156114975780601f1061146c57610100808354040283529160200191611497565b820191906000526020600020905b81548152906001019060200180831161147a57829003601f168201915b505050505097508680546114aa9061212d565b80601f01602080910402602001604051908101604052809291908181526020018280546114d69061212d565b80156115235780601f106114f857610100808354040283529160200191611523565b820191906000526020600020905b81548152906001019060200180831161150657829003601f168201915b505050505096508580546115369061212d565b80601f01602080910402602001604051908101604052809291908181526020018280546115629061212d565b80156115af5780601f10611584576101008083540402835291602001916115af565b820191906000526020600020905b81548152906001019060200180831161159257829003601f168201915b505050505095508480546115c29061212d565b80601f01602080910402602001604051908101604052809291908181526020018280546115ee9061212d565b801561163b5780601f106116105761010080835404028352916020019161163b565b820191906000526020600020905b81548152906001019060200180831161161e57829003601f168201915b5050505050945083805461164e9061212d565b80601f016020809104026020016040519081016040528092919081815260200182805461167a9061212d565b80156116c75780601f1061169c576101008083540402835291602001916116c7565b820191906000526020600020905b8154815290600101906020018083116116aa57829003601f168201915b50505050509350995099509950995099509950995099509950509193959799909294969850565b6000604051905090565b600080fd5b600080fd5b6000819050919050565b61171581611702565b811461172057600080fd5b50565b6000813590506117328161170c565b92915050565b60006020828403121561174e5761174d6116f8565b5b600061175c84828501611723565b91505092915050565b61176e81611702565b82525050565b600073ffffffffffffffffffffffffffffffffffffffff82169050919050565b600061179f82611774565b9050919050565b6117af81611794565b82525050565b7f4e487b7100000000000000000000000000000000000000000000000000000000600052602160045260246000fd5b600481106117f5576117f46117b5565b5b50565b6000819050611806826117e4565b919050565b6000611816826117f8565b9050919050565b6118268161180b565b82525050565b600060a0820190506118416000830188611765565b61184e60208301876117a6565b61185b604083018661181d565b6118686060830185611765565b6118756080830184611765565b9695505050505050565b60006020820190506118946000830184611765565b92915050565b6118a381611794565b81146118ae57600080fd5b50565b6000813590506118c08161189a565b92915050565b600080604083850312156118dd576118dc6116f8565b5b60006118eb85828601611723565b92505060206118fc858286016118b1565b9150509250929050565b600081519050919050565b600082825260208201905092915050565b60005b83811015611940578082015181840152602081019050611925565b60008484015250505050565b6000601f19601f8301169050919050565b600061196882611906565b6119728185611911565b9350611982818560208601611922565b61198b8161194c565b840191505092915050565b6000610160820190506119ac600083018e611765565b6119b9602083018d611765565b6119c6604083018c6117a6565b6119d3606083018b6117a6565b6119e0608083018a611765565b6119ed60a083018961181d565b6119fa60c0830188611765565b611a0760e0830187611765565b611a15610100830186611765565b818103610120830152611a28818561195d565b9050818103610140830152611a3d818461195d565b90509c9b505050505050505050505050565b600060208284031215611a6557611a646116f8565b5b6000611a73848285016118b1565b91505092915050565b60008115159050919050565b611a9181611a7c565b82525050565b6000602082019050611aac6000830184611a88565b92915050565b600080fd5b600080fd5b7f4e487b7100000000000000000000000000000000000000000000000000000000600052604160045260246000fd5b611af48261194c565b810181811067ffffffffffffffff82111715611b1357611b12611abc565b5b80604052505050565b6000611b266116ee565b9050611b328282611aeb565b919050565b600067ffffffffffffffff821115611b5257611b51611abc565b5b611b5b8261194c565b9050602081019050919050565b82818337600083830152505050565b6000611b8a611b8584611b37565b611b1c565b905082815260208101848484011115611ba657611ba5611ab7565b5b611bb1848285611b68565b509392505050565b600082601f830112611bce57611bcd611ab2565b5b8135611bde848260208601611b77565b91505092915050565b60008060008060008060c08789031215611c0457611c036116f8565b5b600087013567ffffffffffffffff811115611c2257611c216116fd565b5b611c2e89828a01611bb9565b965050602087013567ffffffffffffffff811115611c4f57611c4e6116fd565b5b611c5b89828a01611bb9565b955050604087013567ffffffffffffffff811115611c7c57611c7b6116fd565b5b611c8889828a01611bb9565b945050606087013567ffffffffffffffff811115611ca957611ca86116fd565b5b611cb589828a01611bb9565b935050608087013567ffffffffffffffff811115611cd657611cd56116fd565b5b611ce289828a01611bb9565b92505060a0611cf389828a01611723565b9150509295509295509295565b6000611d0b82611774565b9050919050565b611d1b81611d00565b8114611d2657600080fd5b50565b600081359050611d3881611d12565b92915050565b60008060408385031215611d5557611d546116f8565b5b6000611d6385828601611723565b9250506020611d7485828601611d29565b9150509250929050565b60008060408385031215611d9557611d946116f8565b5b6000611da385828601611d29565b9250506020611db485828601611723565b9150509250929050565b600061012082019050611dd4600083018c6117a6565b8181036020830152611de6818b61195d565b90508181036040830152611dfa818a61195d565b90508181036060830152611e0e818961195d565b90508181036080830152611e22818861195d565b905081810360a0830152611e36818761195d565b9050611e4560c0830186611765565b611e5260e0830185611765565b611e60610100830184611765565b9a9950505050505050505050565b7f4e487b7100000000000000000000000000000000000000000000000000000000600052603260045260246000fd5b7f4f6e6c792074686520637573746f6d65722063616e20636f6e6669726d20746860008201527f6520736572766963650000000000000000000000000000000000000000000000602082015250565b6000611ef9602983611911565b9150611f0482611e9d565b604082019050919050565b60006020820190508181036000830152611f2881611eec565b9050919050565b7f4e487b7100000000000000000000000000000000000000000000000000000000600052601160045260246000fd5b6000611f6982611702565b9150611f7483611702565b9250828201905080821115611f8c57611f8b611f2f565b5b92915050565b6000611f9d82611702565b91507fffffffffffffffffffffffffffffffffffffffffffffffffffffffffffffffff8203611fcf57611fce611f2f565b5b600182019050919050565b7f4f6e6c79207468652056656e646f722063616e20636f6e6669726d207365727660008201527f69636520636f6d706c6574656400000000000000000000000000000000000000602082015250565b6000612036602d83611911565b915061204182611fda565b604082019050919050565b6000602082019050818103600083015261206581612029565b9050919050565b7f4f6e6c792074686520437573746f6d65722063616e20636f6e6669726d20736560008201527f727669636520636f6d706c657465640000000000000000000000000000000000602082015250565b60006120c8602f83611911565b91506120d38261206c565b604082019050919050565b600060208201905081810360008301526120f7816120bb565b9050919050565b7f4e487b7100000000000000000000000000000000000000000000000000000000600052602260045260246000fd5b6000600282049050600182168061214557607f821691505b602082108103612158576121576120fe565b5b50919050565b7f56656e646f7220616c7265616479206578697374730000000000000000000000600082015250565b6000612194601583611911565b915061219f8261215e565b602082019050919050565b600060208201905081810360008301526121c381612187565b9050919050565b60008190508160005260206000209050919050565b60006020601f8301049050919050565b600082821b905092915050565b60006008830261222c7fffffffffffffffffffffffffffffffffffffffffffffffffffffffffffffffff826121ef565b61223686836121ef565b95508019841693508086168417925050509392505050565b6000819050919050565b600061227361226e61226984611702565b61224e565b611702565b9050919050565b6000819050919050565b61228d83612258565b6122a16122998261227a565b8484546121fc565b825550505050565b600090565b6122b66122a9565b6122c1818484612284565b505050565b5b818110156122e5576122da6000826122ae565b6001810190506122c7565b5050565b601f82111561232a576122fb816121ca565b612304846121df565b81016020851015612313578190505b61232761231f856121df565b8301826122c6565b50505b505050565b600082821c905092915050565b600061234d6000198460080261232f565b1980831691505092915050565b6000612366838361233c565b9150826002028217905092915050565b61237f82611906565b67ffffffffffffffff81111561239857612397611abc565b5b6123a2825461212d565b6123ad8282856122e9565b600060209050601f8311600181146123e057600084156123ce578287015190505b6123d8858261235a565b865550612440565b601f1984166123ee866121ca565b60005b82811015612416578489015182556001820191506020850194506020810190506123f1565b86831015612433578489015161242f601f89168261233c565b8355505b6001600288020188555050505b505050505050565b7f596f752063616e27742062757920796f7572206f776e2070726f647563740000600082015250565b600061247e601e83611911565b915061248982612448565b602082019050919050565b600060208201905081810360008301526124ad81612471565b9050919050565b600081905092915050565b50565b60006124cf6000836124b4565b91506124da826124bf565b600082019050919050565b60006124f0826124c2565b9150819050919050565b7f4661696c656420746f2073656e64204574686572000000000000000000000000600082015250565b6000612530601483611911565b915061253b826124fa565b602082019050919050565b6000602082019050818103600083015261255f81612523565b905091905056fea2646970667358221220d2671c3e5acf681a24331fb5c1ceb75aaa8ace37c7897365f2e639565b0a10f364736f6c63430008110033",
  "linkReferences": {},
  "deployedLinkReferences": {}
}