{
  "_format": "hh-sol-artifact-1",
  "contractName": "Helpa",
  "sourceName": "contracts/Helpa.sol",
  "abi": [
    {
      "inputs": [
        {
          "internalType": "uint256",
          "name": "_index",
          "type": "uint256"
        }
      ],
      "name": "confirmService",
      "outputs": [],
      "stateMutability": "nonpayable",
      "type": "function"
    },
    {
      "inputs": [
        {
          "internalType": "uint256",
          "name": "vendorIndex",
          "type": "uint256"
        },
        {
          "internalType": "address payable",
          "name": "vendor",
          "type": "address"
        }
      ],
      "name": "createTransaction",
      "outputs": [],
      "stateMutability": "payable",
      "type": "function"
    },
    {
      "inputs": [
        {
          "internalType": "string",
          "name": "_businessName",
          "type": "string"
        },
        {
          "internalType": "string",
          "name": "_profession",
          "type": "string"
        },
        {
          "internalType": "string",
          "name": "_UDName",
          "type": "string"
        },
        {
          "internalType": "string",
          "name": "_imgUrl",
          "type": "string"
        },
        {
          "internalType": "string",
          "name": "_description",
          "type": "string"
        },
        {
          "internalType": "uint256",
          "name": "_price",
          "type": "uint256"
        }
      ],
      "name": "createVendor",
      "outputs": [],
      "stateMutability": "nonpayable",
      "type": "function"
    },
    {
      "inputs": [],
      "name": "getBal",
      "outputs": [
        {
          "internalType": "uint256",
          "name": "",
          "type": "uint256"
        }
      ],
      "stateMutability": "view",
      "type": "function"
    },
    {
      "inputs": [],
      "name": "getTransactionCount",
      "outputs": [
        {
          "internalType": "uint256",
          "name": "",
          "type": "uint256"
        }
      ],
      "stateMutability": "view",
      "type": "function"
    },
    {
      "inputs": [
        {
          "internalType": "uint256",
          "name": "_index",
          "type": "uint256"
        }
      ],
      "name": "getTransactions",
      "outputs": [
        {
          "internalType": "uint256",
          "name": "transactionIndex",
          "type": "uint256"
        },
        {
          "internalType": "uint256",
          "name": "vendorIndex",
          "type": "uint256"
        },
        {
          "internalType": "address",
          "name": "vendor",
          "type": "address"
        },
        {
          "internalType": "address",
          "name": "customer",
          "type": "address"
        },
        {
          "internalType": "uint256",
          "name": "amount",
          "type": "uint256"
        },
        {
          "internalType": "enum Helpa.Status",
          "name": "status",
          "type": "uint8"
        },
        {
          "internalType": "uint256",
          "name": "dateCreated",
          "type": "uint256"
        },
        {
          "internalType": "uint256",
          "name": "dateCompleted",
          "type": "uint256"
        },
        {
          "internalType": "uint256",
          "name": "dateReviewing",
          "type": "uint256"
        }
      ],
      "stateMutability": "view",
      "type": "function"
    },
    {
      "inputs": [],
      "name": "getVendorCount",
      "outputs": [
        {
          "internalType": "uint256",
          "name": "",
          "type": "uint256"
        }
      ],
      "stateMutability": "view",
      "type": "function"
    },
    {
      "inputs": [
        {
          "internalType": "uint256",
          "name": "_index",
          "type": "uint256"
        }
      ],
      "name": "getVendors",
      "outputs": [
        {
          "internalType": "address",
          "name": "vendorAddress",
          "type": "address"
        },
        {
          "internalType": "string",
          "name": "businessName",
          "type": "string"
        },
        {
          "internalType": "string",
          "name": "UDName",
          "type": "string"
        },
        {
          "internalType": "string",
          "name": "imgUrl",
          "type": "string"
        },
        {
          "internalType": "string",
          "name": "description",
          "type": "string"
        },
        {
          "internalType": "string",
          "name": "profession",
          "type": "string"
        },
        {
          "internalType": "uint256",
          "name": "price",
          "type": "uint256"
        },
        {
          "internalType": "uint256",
          "name": "totalAmount",
          "type": "uint256"
        },
        {
          "internalType": "uint256",
          "name": "transCount",
          "type": "uint256"
        }
      ],
      "stateMutability": "view",
      "type": "function"
    },
    {
      "inputs": [
        {
          "internalType": "uint256",
          "name": "_index",
          "type": "uint256"
        }
      ],
      "name": "serviceReviewing",
      "outputs": [],
      "stateMutability": "nonpayable",
      "type": "function"
    },
    {
      "inputs": [
        {
          "internalType": "address payable",
          "name": "_to",
          "type": "address"
        },
        {
          "internalType": "uint256",
          "name": "_amount",
          "type": "uint256"
        }
      ],
      "name": "transfer",
      "outputs": [
        {
          "internalType": "bool",
          "name": "",
          "type": "bool"
        }
      ],
      "stateMutability": "nonpayable",
      "type": "function"
    },
    {
      "inputs": [],
      "name": "vendorCount",
      "outputs": [
        {
          "internalType": "uint256",
          "name": "",
          "type": "uint256"
        }
      ],
      "stateMutability": "view",
      "type": "function"
    },
    {
      "inputs": [
        {
          "internalType": "address",
          "name": "",
          "type": "address"
        }
      ],
      "name": "vendorExists",
      "outputs": [
        {
          "internalType": "bool",
          "name": "",
          "type": "bool"
        }
      ],
      "stateMutability": "view",
      "type": "function"
    }
  ],
  "bytecode": "0x608060405234801561001057600080fd5b50611d77806100206000396000f3fe6080604052600436106100a75760003560e01c80637cf4c543116100645780637cf4c543146101d65780638858287b146101f2578063a12eba7c1461021d578063a9059cbb14610248578063dce9ed6114610285578063dd970f10146102ae576100a7565b806325caa262146100ac5780632e7700f0146100d7578063572f9b39146101025780635742177c1461012b5780635c05873814610170578063609f2f4a146101ad575b600080fd5b3480156100b857600080fd5b506100c16102f3565b6040516100ce919061100d565b60405180910390f35b3480156100e357600080fd5b506100ec6102fb565b6040516100f9919061100d565b60405180910390f35b34801561010e57600080fd5b5061012960048036038101906101249190611068565b610342565b005b34801561013757600080fd5b50610152600480360381019061014d9190611068565b610504565b6040516101679998979695949392919061114d565b60405180910390f35b34801561017c57600080fd5b5061019760048036038101906101929190611206565b61060a565b6040516101a4919061124e565b60405180910390f35b3480156101b957600080fd5b506101d460048036038101906101cf91906113af565b61062a565b005b6101f060048036038101906101eb9190611506565b61080a565b005b3480156101fe57600080fd5b50610207610a3f565b604051610214919061100d565b60405180910390f35b34801561022957600080fd5b50610232610a45565b60405161023f919061100d565b60405180910390f35b34801561025457600080fd5b5061026f600480360381019061026a9190611546565b610a4e565b60405161027c919061124e565b60405180910390f35b34801561029157600080fd5b506102ac60048036038101906102a79190611068565b610b05565b005b3480156102ba57600080fd5b506102d560048036038101906102d09190611068565b610cab565b6040516102ea99989796959493929190611605565b60405180910390f35b600047905090565b6000600160003373ffffffffffffffffffffffffffffffffffffffff1673ffffffffffffffffffffffffffffffffffffffff16815260200190815260200160002054905090565b6000600260003373ffffffffffffffffffffffffffffffffffffffff1673ffffffffffffffffffffffffffffffffffffffff1681526020019081526020016000208281548110610395576103946116b5565b5b906000526020600020906008020190503373ffffffffffffffffffffffffffffffffffffffff168160020160009054906101000a900473ffffffffffffffffffffffffffffffffffffffff1673ffffffffffffffffffffffffffffffffffffffff1614610437576040517f08c379a000000000000000000000000000000000000000000000000000000000815260040161042e90611756565b60405180910390fd5b600061046b8260010160009054906101000a900473ffffffffffffffffffffffffffffffffffffffff168360030154610a4e565b905080156104ff5760038260040160006101000a81548160ff0219169083600381111561049b5761049a6110d6565b5b021790555042826006018190555060006003600084600001548152602001908152602001600020905082600301548160070160008282546104dc91906117a5565b925050819055508060080160008154809291906104f8906117d9565b9190505550505b505050565b600080600080600080600080600080600260003373ffffffffffffffffffffffffffffffffffffffff1673ffffffffffffffffffffffffffffffffffffffff1681526020019081526020016000208b81548110610564576105636116b5565b5b906000526020600020906008020190508a81600001548260010160009054906101000a900473ffffffffffffffffffffffffffffffffffffffff168360020160009054906101000a900473ffffffffffffffffffffffffffffffffffffffff1684600301548560040160009054906101000a900460ff16866005015487600601548860070154995099509950995099509950995099509950509193959799909294969850565b60046020528060005260406000206000915054906101000a900460ff1681565b60001515600460003373ffffffffffffffffffffffffffffffffffffffff1673ffffffffffffffffffffffffffffffffffffffff16815260200190815260200160002060009054906101000a900460ff161515146106bd576040517f08c379a00000000000000000000000000000000000000000000000000000000081526004016106b49061186d565b60405180910390fd5b600080600060036000805481526020019081526020016000209050338160000160006101000a81548173ffffffffffffffffffffffffffffffffffffffff021916908373ffffffffffffffffffffffffffffffffffffffff1602179055508881600101908161072c9190611a99565b508781600201908161073e9190611a99565b50868160030190816107509190611a99565b50858160040190816107629190611a99565b50848160050190816107749190611a99565b508381600601819055508281600701819055508181600801819055506001600460003373ffffffffffffffffffffffffffffffffffffffff1673ffffffffffffffffffffffffffffffffffffffff16815260200190815260200160002060006101000a81548160ff0219169083151502179055506000808154809291906107fa906117d9565b9190505550505050505050505050565b600060019050600260003373ffffffffffffffffffffffffffffffffffffffff1673ffffffffffffffffffffffffffffffffffffffff1681526020019081526020016000206040518061010001604052808581526020018473ffffffffffffffffffffffffffffffffffffffff1681526020013373ffffffffffffffffffffffffffffffffffffffff1681526020013481526020018360038111156108b2576108b16110d6565b5b815260200142815260200160008152602001600081525090806001815401808255809150506001900390600052602060002090600802016000909190919091506000820151816000015560208201518160010160006101000a81548173ffffffffffffffffffffffffffffffffffffffff021916908373ffffffffffffffffffffffffffffffffffffffff16021790555060408201518160020160006101000a81548173ffffffffffffffffffffffffffffffffffffffff021916908373ffffffffffffffffffffffffffffffffffffffff1602179055506060820151816003015560808201518160040160006101000a81548160ff021916908360038111156109bf576109be6110d6565b5b021790555060a0820151816005015560c0820151816006015560e08201518160070155505060018060003373ffffffffffffffffffffffffffffffffffffffff1673ffffffffffffffffffffffffffffffffffffffff1681526020019081526020016000206000828254610a3391906117a5565b92505081905550505050565b60005481565b60008054905090565b6000808373ffffffffffffffffffffffffffffffffffffffff1683604051610a7590611b9c565b60006040518083038185875af1925050503d8060008114610ab2576040519150601f19603f3d011682016040523d82523d6000602084013e610ab7565b606091505b5050905080610afb576040517f08c379a0000000000000000000000000000000000000000000000000000000008152600401610af290611bfd565b60405180910390fd5b8091505092915050565b6000600260003373ffffffffffffffffffffffffffffffffffffffff1673ffffffffffffffffffffffffffffffffffffffff1681526020019081526020016000208281548110610b5857610b576116b5565b5b906000526020600020906008020190503373ffffffffffffffffffffffffffffffffffffffff168160010160009054906101000a900473ffffffffffffffffffffffffffffffffffffffff1673ffffffffffffffffffffffffffffffffffffffff1614610bfa576040517f08c379a0000000000000000000000000000000000000000000000000000000008152600401610bf190611c8f565b60405180910390fd5b600380811115610c0d57610c0c6110d6565b5b8160040160009054906101000a900460ff166003811115610c3157610c306110d6565b5b03610c71576040517f08c379a0000000000000000000000000000000000000000000000000000000008152600401610c6890611d21565b60405180910390fd5b60028160040160006101000a81548160ff02191690836003811115610c9957610c986110d6565b5b02179055504281600701819055505050565b60006060806060806060600080600080600360008c815260200190815260200160002090508060000160009054906101000a900473ffffffffffffffffffffffffffffffffffffffff168160010182600301836004018460050185600201866006015487600701548860080154878054610d24906118bc565b80601f0160208091040260200160405190810160405280929190818152602001828054610d50906118bc565b8015610d9d5780601f10610d7257610100808354040283529160200191610d9d565b820191906000526020600020905b815481529060010190602001808311610d8057829003601f168201915b50505050509750868054610db0906118bc565b80601f0160208091040260200160405190810160405280929190818152602001828054610ddc906118bc565b8015610e295780601f10610dfe57610100808354040283529160200191610e29565b820191906000526020600020905b815481529060010190602001808311610e0c57829003601f168201915b50505050509650858054610e3c906118bc565b80601f0160208091040260200160405190810160405280929190818152602001828054610e68906118bc565b8015610eb55780601f10610e8a57610100808354040283529160200191610eb5565b820191906000526020600020905b815481529060010190602001808311610e9857829003601f168201915b50505050509550848054610ec8906118bc565b80601f0160208091040260200160405190810160405280929190818152602001828054610ef4906118bc565b8015610f415780601f10610f1657610100808354040283529160200191610f41565b820191906000526020600020905b815481529060010190602001808311610f2457829003601f168201915b50505050509450838054610f54906118bc565b80601f0160208091040260200160405190810160405280929190818152602001828054610f80906118bc565b8015610fcd5780601f10610fa257610100808354040283529160200191610fcd565b820191906000526020600020905b815481529060010190602001808311610fb057829003601f168201915b50505050509350995099509950995099509950995099509950509193959799909294969850565b6000819050919050565b61100781610ff4565b82525050565b60006020820190506110226000830184610ffe565b92915050565b6000604051905090565b600080fd5b600080fd5b61104581610ff4565b811461105057600080fd5b50565b6000813590506110628161103c565b92915050565b60006020828403121561107e5761107d611032565b5b600061108c84828501611053565b91505092915050565b600073ffffffffffffffffffffffffffffffffffffffff82169050919050565b60006110c082611095565b9050919050565b6110d0816110b5565b82525050565b7f4e487b7100000000000000000000000000000000000000000000000000000000600052602160045260246000fd5b60048110611116576111156110d6565b5b50565b600081905061112782611105565b919050565b600061113782611119565b9050919050565b6111478161112c565b82525050565b600061012082019050611163600083018c610ffe565b611170602083018b610ffe565b61117d604083018a6110c7565b61118a60608301896110c7565b6111976080830188610ffe565b6111a460a083018761113e565b6111b160c0830186610ffe565b6111be60e0830185610ffe565b6111cc610100830184610ffe565b9a9950505050505050505050565b6111e3816110b5565b81146111ee57600080fd5b50565b600081359050611200816111da565b92915050565b60006020828403121561121c5761121b611032565b5b600061122a848285016111f1565b91505092915050565b60008115159050919050565b61124881611233565b82525050565b6000602082019050611263600083018461123f565b92915050565b600080fd5b600080fd5b6000601f19601f8301169050919050565b7f4e487b7100000000000000000000000000000000000000000000000000000000600052604160045260246000fd5b6112bc82611273565b810181811067ffffffffffffffff821117156112db576112da611284565b5b80604052505050565b60006112ee611028565b90506112fa82826112b3565b919050565b600067ffffffffffffffff82111561131a57611319611284565b5b61132382611273565b9050602081019050919050565b82818337600083830152505050565b600061135261134d846112ff565b6112e4565b90508281526020810184848401111561136e5761136d61126e565b5b611379848285611330565b509392505050565b600082601f83011261139657611395611269565b5b81356113a684826020860161133f565b91505092915050565b60008060008060008060c087890312156113cc576113cb611032565b5b600087013567ffffffffffffffff8111156113ea576113e9611037565b5b6113f689828a01611381565b965050602087013567ffffffffffffffff81111561141757611416611037565b5b61142389828a01611381565b955050604087013567ffffffffffffffff81111561144457611443611037565b5b61145089828a01611381565b945050606087013567ffffffffffffffff81111561147157611470611037565b5b61147d89828a01611381565b935050608087013567ffffffffffffffff81111561149e5761149d611037565b5b6114aa89828a01611381565b92505060a06114bb89828a01611053565b9150509295509295509295565b60006114d382611095565b9050919050565b6114e3816114c8565b81146114ee57600080fd5b50565b600081359050611500816114da565b92915050565b6000806040838503121561151d5761151c611032565b5b600061152b85828601611053565b925050602061153c858286016114f1565b9150509250929050565b6000806040838503121561155d5761155c611032565b5b600061156b858286016114f1565b925050602061157c85828601611053565b9150509250929050565b600081519050919050565b600082825260208201905092915050565b60005b838110156115c05780820151818401526020810190506115a5565b60008484015250505050565b60006115d782611586565b6115e18185611591565b93506115f18185602086016115a2565b6115fa81611273565b840191505092915050565b60006101208201905061161b600083018c6110c7565b818103602083015261162d818b6115cc565b90508181036040830152611641818a6115cc565b9050818103606083015261165581896115cc565b9050818103608083015261166981886115cc565b905081810360a083015261167d81876115cc565b905061168c60c0830186610ffe565b61169960e0830185610ffe565b6116a7610100830184610ffe565b9a9950505050505050505050565b7f4e487b7100000000000000000000000000000000000000000000000000000000600052603260045260246000fd5b7f4f6e6c792074686520637573746f6d65722063616e20636f6e6669726d20746860008201527f6520736572766963650000000000000000000000000000000000000000000000602082015250565b6000611740602983611591565b915061174b826116e4565b604082019050919050565b6000602082019050818103600083015261176f81611733565b9050919050565b7f4e487b7100000000000000000000000000000000000000000000000000000000600052601160045260246000fd5b60006117b082610ff4565b91506117bb83610ff4565b92508282019050808211156117d3576117d2611776565b5b92915050565b60006117e482610ff4565b91507fffffffffffffffffffffffffffffffffffffffffffffffffffffffffffffffff820361181657611815611776565b5b600182019050919050565b7f56656e646f7220616c7265616479206578697374730000000000000000000000600082015250565b6000611857601583611591565b915061186282611821565b602082019050919050565b600060208201905081810360008301526118868161184a565b9050919050565b7f4e487b7100000000000000000000000000000000000000000000000000000000600052602260045260246000fd5b600060028204905060018216806118d457607f821691505b6020821081036118e7576118e661188d565b5b50919050565b60008190508160005260206000209050919050565b60006020601f8301049050919050565b600082821b905092915050565b60006008830261194f7fffffffffffffffffffffffffffffffffffffffffffffffffffffffffffffffff82611912565b6119598683611912565b95508019841693508086168417925050509392505050565b6000819050919050565b600061199661199161198c84610ff4565b611971565b610ff4565b9050919050565b6000819050919050565b6119b08361197b565b6119c46119bc8261199d565b84845461191f565b825550505050565b600090565b6119d96119cc565b6119e48184846119a7565b505050565b5b81811015611a08576119fd6000826119d1565b6001810190506119ea565b5050565b601f821115611a4d57611a1e816118ed565b611a2784611902565b81016020851015611a36578190505b611a4a611a4285611902565b8301826119e9565b50505b505050565b600082821c905092915050565b6000611a7060001984600802611a52565b1980831691505092915050565b6000611a898383611a5f565b9150826002028217905092915050565b611aa282611586565b67ffffffffffffffff811115611abb57611aba611284565b5b611ac582546118bc565b611ad0828285611a0c565b600060209050601f831160018114611b035760008415611af1578287015190505b611afb8582611a7d565b865550611b63565b601f198416611b11866118ed565b60005b82811015611b3957848901518255600182019150602085019450602081019050611b14565b86831015611b565784890151611b52601f891682611a5f565b8355505b6001600288020188555050505b505050505050565b600081905092915050565b50565b6000611b86600083611b6b565b9150611b9182611b76565b600082019050919050565b6000611ba782611b79565b9150819050919050565b7f4661696c656420746f2073656e64204574686572000000000000000000000000600082015250565b6000611be7601483611591565b9150611bf282611bb1565b602082019050919050565b60006020820190508181036000830152611c1681611bda565b9050919050565b7f4f6e6c79207468652056656e646f722063616e20636f6e6669726d207365727660008201527f69636520636f6d706c6574656400000000000000000000000000000000000000602082015250565b6000611c79602d83611591565b9150611c8482611c1d565b604082019050919050565b60006020820190508181036000830152611ca881611c6c565b9050919050565b7f4f6e6c792074686520437573746f6d65722063616e20636f6e6669726d20736560008201527f727669636520636f6d706c657465640000000000000000000000000000000000602082015250565b6000611d0b602f83611591565b9150611d1682611caf565b604082019050919050565b60006020820190508181036000830152611d3a81611cfe565b905091905056fea264697066735822122081f344262671fd550b3103ec9b20a94ded3d20a4e86382dae263a053cb59aa8464736f6c63430008110033",
  "linkReferences": {},
  "deployedLinkReferences": {}
}