{
  "_format": "hh-sol-artifact-1",
  "contractName": "Helpa",
  "sourceName": "contracts/Helpa.sol",
  "abi": [
    {
      "inputs": [
        {
          "internalType": "uint256",
          "name": "_index",
          "type": "uint256"
        },
        {
          "internalType": "address",
          "name": "_vendorAddress",
          "type": "address"
        }
      ],
      "name": "confirmService",
      "outputs": [],
      "stateMutability": "nonpayable",
      "type": "function"
    },
    {
      "inputs": [
        {
          "internalType": "uint256",
          "name": "vendorIndex",
          "type": "uint256"
        },
        {
          "internalType": "address payable",
          "name": "vendor",
          "type": "address"
        }
      ],
      "name": "createTransaction",
      "outputs": [],
      "stateMutability": "payable",
      "type": "function"
    },
    {
      "inputs": [
        {
          "internalType": "string",
          "name": "_businessName",
          "type": "string"
        },
        {
          "internalType": "string",
          "name": "_profession",
          "type": "string"
        },
        {
          "internalType": "string",
          "name": "_UDName",
          "type": "string"
        },
        {
          "internalType": "string",
          "name": "_imgUrl",
          "type": "string"
        },
        {
          "internalType": "string",
          "name": "_description",
          "type": "string"
        },
        {
          "internalType": "uint256",
          "name": "_price",
          "type": "uint256"
        }
      ],
      "name": "createVendor",
      "outputs": [],
      "stateMutability": "nonpayable",
      "type": "function"
    },
    {
      "inputs": [],
      "name": "getBal",
      "outputs": [
        {
          "internalType": "uint256",
          "name": "",
          "type": "uint256"
        }
      ],
      "stateMutability": "view",
      "type": "function"
    },
    {
      "inputs": [],
      "name": "getTransactionCount",
      "outputs": [
        {
          "internalType": "uint256",
          "name": "",
          "type": "uint256"
        }
      ],
      "stateMutability": "view",
      "type": "function"
    },
    {
      "inputs": [
        {
          "internalType": "uint256",
          "name": "_index",
          "type": "uint256"
        }
      ],
      "name": "getTransactions",
      "outputs": [
        {
          "internalType": "uint256",
          "name": "transactionIndex",
          "type": "uint256"
        },
        {
          "internalType": "uint256",
          "name": "vendorIndex",
          "type": "uint256"
        },
        {
          "internalType": "address",
          "name": "vendor",
          "type": "address"
        },
        {
          "internalType": "address",
          "name": "customer",
          "type": "address"
        },
        {
          "internalType": "uint256",
          "name": "amount",
          "type": "uint256"
        },
        {
          "internalType": "enum Helpa.Status",
          "name": "status",
          "type": "uint8"
        },
        {
          "internalType": "uint256",
          "name": "dateCreated",
          "type": "uint256"
        },
        {
          "internalType": "uint256",
          "name": "dateCompleted",
          "type": "uint256"
        },
        {
          "internalType": "uint256",
          "name": "dateReviewing",
          "type": "uint256"
        }
      ],
      "stateMutability": "view",
      "type": "function"
    },
    {
      "inputs": [],
      "name": "getVendorCount",
      "outputs": [
        {
          "internalType": "uint256",
          "name": "",
          "type": "uint256"
        }
      ],
      "stateMutability": "view",
      "type": "function"
    },
    {
      "inputs": [],
      "name": "getVendorTransactionCount",
      "outputs": [
        {
          "internalType": "uint256",
          "name": "",
          "type": "uint256"
        }
      ],
      "stateMutability": "view",
      "type": "function"
    },
    {
      "inputs": [
        {
          "internalType": "uint256",
          "name": "_index",
          "type": "uint256"
        }
      ],
      "name": "getVendorTransactions",
      "outputs": [
        {
          "internalType": "uint256",
          "name": "transactionIndex",
          "type": "uint256"
        },
        {
          "internalType": "address",
          "name": "customer",
          "type": "address"
        },
        {
          "internalType": "enum Helpa.Status",
          "name": "status",
          "type": "uint8"
        },
        {
          "internalType": "uint256",
          "name": "dateCreated",
          "type": "uint256"
        },
        {
          "internalType": "uint256",
          "name": "dateCompleted",
          "type": "uint256"
        }
      ],
      "stateMutability": "view",
      "type": "function"
    },
    {
      "inputs": [
        {
          "internalType": "uint256",
          "name": "_index",
          "type": "uint256"
        }
      ],
      "name": "getVendors",
      "outputs": [
        {
          "internalType": "address",
          "name": "vendorAddress",
          "type": "address"
        },
        {
          "internalType": "string",
          "name": "businessName",
          "type": "string"
        },
        {
          "internalType": "string",
          "name": "UDName",
          "type": "string"
        },
        {
          "internalType": "string",
          "name": "imgUrl",
          "type": "string"
        },
        {
          "internalType": "string",
          "name": "description",
          "type": "string"
        },
        {
          "internalType": "string",
          "name": "profession",
          "type": "string"
        },
        {
          "internalType": "uint256",
          "name": "price",
          "type": "uint256"
        },
        {
          "internalType": "uint256",
          "name": "totalAmount",
          "type": "uint256"
        },
        {
          "internalType": "uint256",
          "name": "transCount",
          "type": "uint256"
        }
      ],
      "stateMutability": "view",
      "type": "function"
    },
    {
      "inputs": [
        {
          "internalType": "uint256",
          "name": "_index",
          "type": "uint256"
        },
        {
          "internalType": "address",
          "name": "_customerAddress",
          "type": "address"
        }
      ],
      "name": "serviceReviewing",
      "outputs": [],
      "stateMutability": "nonpayable",
      "type": "function"
    },
    {
      "inputs": [
        {
          "internalType": "address payable",
          "name": "_to",
          "type": "address"
        },
        {
          "internalType": "uint256",
          "name": "_amount",
          "type": "uint256"
        }
      ],
      "name": "transfer",
      "outputs": [
        {
          "internalType": "bool",
          "name": "",
          "type": "bool"
        }
      ],
      "stateMutability": "nonpayable",
      "type": "function"
    },
    {
      "inputs": [],
      "name": "vendorCount",
      "outputs": [
        {
          "internalType": "uint256",
          "name": "",
          "type": "uint256"
        }
      ],
      "stateMutability": "view",
      "type": "function"
    },
    {
      "inputs": [
        {
          "internalType": "address",
          "name": "",
          "type": "address"
        }
      ],
      "name": "vendorExists",
      "outputs": [
        {
          "internalType": "bool",
          "name": "",
          "type": "bool"
        }
      ],
      "stateMutability": "view",
      "type": "function"
    }
  ],
  "bytecode": "0x608060405234801561001057600080fd5b50612276806100206000396000f3fe6080604052600436106100dd5760003560e01c8063609f2f4a1161007f5780638858287b116100595780638858287b146102bd578063a12eba7c146102e8578063a9059cbb14610313578063dd970f1014610350576100dd565b8063609f2f4a1461024d5780637cf4c543146102765780637f39836814610292576100dd565b806339213d32116100bb57806339213d32146101795780633aeae64d146101a25780635742177c146101cb5780635c05873814610210576100dd565b80631a4bf80c146100e257806325caa262146101235780632e7700f01461014e575b600080fd5b3480156100ee57600080fd5b50610109600480360381019061010491906114aa565b610395565b60405161011a95949392919061159e565b60405180910390f35b34801561012f57600080fd5b50610138610455565b60405161014591906115f1565b60405180910390f35b34801561015a57600080fd5b5061016361045d565b60405161017091906115f1565b60405180910390f35b34801561018557600080fd5b506101a0600480360381019061019b9190611638565b6104a4565b005b3480156101ae57600080fd5b506101c960048036038101906101c49190611638565b610701565b005b3480156101d757600080fd5b506101f260048036038101906101ed91906114aa565b610939565b60405161020799989796959493929190611678565b60405180910390f35b34801561021c57600080fd5b5061023760048036038101906102329190611705565b610a3f565b604051610244919061174d565b60405180910390f35b34801561025957600080fd5b50610274600480360381019061026f91906118ae565b610a5f565b005b610290600480360381019061028b9190611a05565b610c3f565b005b34801561029e57600080fd5b506102a761100a565b6040516102b491906115f1565b60405180910390f35b3480156102c957600080fd5b506102d2611051565b6040516102df91906115f1565b60405180910390f35b3480156102f457600080fd5b506102fd611057565b60405161030a91906115f1565b60405180910390f35b34801561031f57600080fd5b5061033a60048036038101906103359190611a45565b611060565b604051610347919061174d565b60405180910390f35b34801561035c57600080fd5b50610377600480360381019061037291906114aa565b611117565b60405161038c99989796959493929190611b04565b60405180910390f35b600080600080600080600460003373ffffffffffffffffffffffffffffffffffffffff1673ffffffffffffffffffffffffffffffffffffffff16815260200190815260200160002087815481106103ef576103ee611bb4565b5b90600052602060002090600302019050868160000160009054906101000a900473ffffffffffffffffffffffffffffffffffffffff168260000160149054906101000a900460ff1683600101548460020154955095509550955095505091939590929450565b600047905090565b6000600160003373ffffffffffffffffffffffffffffffffffffffff1673ffffffffffffffffffffffffffffffffffffffff16815260200190815260200160002054905090565b6000600360003373ffffffffffffffffffffffffffffffffffffffff1673ffffffffffffffffffffffffffffffffffffffff16815260200190815260200160002083815481106104f7576104f6611bb4565b5b906000526020600020906008020190506000600460008473ffffffffffffffffffffffffffffffffffffffff1673ffffffffffffffffffffffffffffffffffffffff168152602001908152602001600020848154811061055a57610559611bb4565b5b906000526020600020906003020190503373ffffffffffffffffffffffffffffffffffffffff168260020160009054906101000a900473ffffffffffffffffffffffffffffffffffffffff1673ffffffffffffffffffffffffffffffffffffffff16146105fc576040517f08c379a00000000000000000000000000000000000000000000000000000000081526004016105f390611c55565b60405180910390fd5b60006106308360010160009054906101000a900473ffffffffffffffffffffffffffffffffffffffff168460030154611060565b905080156106fa5760038360040160006101000a81548160ff021916908360038111156106605761065f611527565b5b021790555042836006018190555060038260000160146101000a81548160ff0219169083600381111561069657610695611527565b5b021790555042826002018190555060006005600085600001548152602001908152602001600020905083600301548160070160008282546106d79190611ca4565b925050819055508060080160008154809291906106f390611cd8565b9190505550505b5050505050565b6000600360008373ffffffffffffffffffffffffffffffffffffffff1673ffffffffffffffffffffffffffffffffffffffff168152602001908152602001600020838154811061075457610753611bb4565b5b906000526020600020906008020190506000600460003373ffffffffffffffffffffffffffffffffffffffff1673ffffffffffffffffffffffffffffffffffffffff16815260200190815260200160002084815481106107b7576107b6611bb4565b5b906000526020600020906003020190503373ffffffffffffffffffffffffffffffffffffffff168260010160009054906101000a900473ffffffffffffffffffffffffffffffffffffffff1673ffffffffffffffffffffffffffffffffffffffff1614610859576040517f08c379a000000000000000000000000000000000000000000000000000000000815260040161085090611d92565b60405180910390fd5b60038081111561086c5761086b611527565b5b8260040160009054906101000a900460ff1660038111156108905761088f611527565b5b036108d0576040517f08c379a00000000000000000000000000000000000000000000000000000000081526004016108c790611e24565b60405180910390fd5b60028260040160006101000a81548160ff021916908360038111156108f8576108f7611527565b5b021790555042826007018190555060028160000160146101000a81548160ff0219169083600381111561092e5761092d611527565b5b021790555050505050565b600080600080600080600080600080600360003373ffffffffffffffffffffffffffffffffffffffff1673ffffffffffffffffffffffffffffffffffffffff1681526020019081526020016000208b8154811061099957610998611bb4565b5b906000526020600020906008020190508a81600001548260010160009054906101000a900473ffffffffffffffffffffffffffffffffffffffff168360020160009054906101000a900473ffffffffffffffffffffffffffffffffffffffff1684600301548560040160009054906101000a900460ff16866005015487600601548860070154995099509950995099509950995099509950509193959799909294969850565b60066020528060005260406000206000915054906101000a900460ff1681565b60001515600660003373ffffffffffffffffffffffffffffffffffffffff1673ffffffffffffffffffffffffffffffffffffffff16815260200190815260200160002060009054906101000a900460ff16151514610af2576040517f08c379a0000000000000000000000000000000000000000000000000000000008152600401610ae990611e90565b60405180910390fd5b600080600060056000805481526020019081526020016000209050338160000160006101000a81548173ffffffffffffffffffffffffffffffffffffffff021916908373ffffffffffffffffffffffffffffffffffffffff16021790555088816001019081610b6191906120bc565b5087816002019081610b7391906120bc565b5086816003019081610b8591906120bc565b5085816004019081610b9791906120bc565b5084816005019081610ba991906120bc565b508381600601819055508281600701819055508181600801819055506001600660003373ffffffffffffffffffffffffffffffffffffffff1673ffffffffffffffffffffffffffffffffffffffff16815260200190815260200160002060006101000a81548160ff021916908315150217905550600080815480929190610c2f90611cd8565b9190505550505050505050505050565b600060019050600360003373ffffffffffffffffffffffffffffffffffffffff1673ffffffffffffffffffffffffffffffffffffffff1681526020019081526020016000206040518061010001604052808581526020018473ffffffffffffffffffffffffffffffffffffffff1681526020013373ffffffffffffffffffffffffffffffffffffffff168152602001348152602001836003811115610ce757610ce6611527565b5b815260200142815260200160008152602001600081525090806001815401808255809150506001900390600052602060002090600802016000909190919091506000820151816000015560208201518160010160006101000a81548173ffffffffffffffffffffffffffffffffffffffff021916908373ffffffffffffffffffffffffffffffffffffffff16021790555060408201518160020160006101000a81548173ffffffffffffffffffffffffffffffffffffffff021916908373ffffffffffffffffffffffffffffffffffffffff1602179055506060820151816003015560808201518160040160006101000a81548160ff02191690836003811115610df457610df3611527565b5b021790555060a0820151816005015560c0820151816006015560e082015181600701555050600460008373ffffffffffffffffffffffffffffffffffffffff1673ffffffffffffffffffffffffffffffffffffffff16815260200190815260200160002060405180608001604052803373ffffffffffffffffffffffffffffffffffffffff168152602001836003811115610e9257610e91611527565b5b81526020014281526020016000815250908060018154018082558091505060019003906000526020600020906003020160009091909190915060008201518160000160006101000a81548173ffffffffffffffffffffffffffffffffffffffff021916908373ffffffffffffffffffffffffffffffffffffffff16021790555060208201518160000160146101000a81548160ff02191690836003811115610f3d57610f3c611527565b5b02179055506040820151816001015560608201518160020155505060018060003373ffffffffffffffffffffffffffffffffffffffff1673ffffffffffffffffffffffffffffffffffffffff1681526020019081526020016000206000828254610fa79190611ca4565b925050819055506001600260008473ffffffffffffffffffffffffffffffffffffffff1673ffffffffffffffffffffffffffffffffffffffff1681526020019081526020016000206000828254610ffe9190611ca4565b92505081905550505050565b6000600260003373ffffffffffffffffffffffffffffffffffffffff1673ffffffffffffffffffffffffffffffffffffffff16815260200190815260200160002054905090565b60005481565b60008054905090565b6000808373ffffffffffffffffffffffffffffffffffffffff1683604051611087906121bf565b60006040518083038185875af1925050503d80600081146110c4576040519150601f19603f3d011682016040523d82523d6000602084013e6110c9565b606091505b505090508061110d576040517f08c379a000000000000000000000000000000000000000000000000000000000815260040161110490612220565b60405180910390fd5b8091505092915050565b60006060806060806060600080600080600560008c815260200190815260200160002090508060000160009054906101000a900473ffffffffffffffffffffffffffffffffffffffff16816001018260030183600401846005018560020186600601548760070154886008015487805461119090611edf565b80601f01602080910402602001604051908101604052809291908181526020018280546111bc90611edf565b80156112095780601f106111de57610100808354040283529160200191611209565b820191906000526020600020905b8154815290600101906020018083116111ec57829003601f168201915b5050505050975086805461121c90611edf565b80601f016020809104026020016040519081016040528092919081815260200182805461124890611edf565b80156112955780601f1061126a57610100808354040283529160200191611295565b820191906000526020600020905b81548152906001019060200180831161127857829003601f168201915b505050505096508580546112a890611edf565b80601f01602080910402602001604051908101604052809291908181526020018280546112d490611edf565b80156113215780601f106112f657610100808354040283529160200191611321565b820191906000526020600020905b81548152906001019060200180831161130457829003601f168201915b5050505050955084805461133490611edf565b80601f016020809104026020016040519081016040528092919081815260200182805461136090611edf565b80156113ad5780601f10611382576101008083540402835291602001916113ad565b820191906000526020600020905b81548152906001019060200180831161139057829003601f168201915b505050505094508380546113c090611edf565b80601f01602080910402602001604051908101604052809291908181526020018280546113ec90611edf565b80156114395780601f1061140e57610100808354040283529160200191611439565b820191906000526020600020905b81548152906001019060200180831161141c57829003601f168201915b50505050509350995099509950995099509950995099509950509193959799909294969850565b6000604051905090565b600080fd5b600080fd5b6000819050919050565b61148781611474565b811461149257600080fd5b50565b6000813590506114a48161147e565b92915050565b6000602082840312156114c0576114bf61146a565b5b60006114ce84828501611495565b91505092915050565b6114e081611474565b82525050565b600073ffffffffffffffffffffffffffffffffffffffff82169050919050565b6000611511826114e6565b9050919050565b61152181611506565b82525050565b7f4e487b7100000000000000000000000000000000000000000000000000000000600052602160045260246000fd5b6004811061156757611566611527565b5b50565b600081905061157882611556565b919050565b60006115888261156a565b9050919050565b6115988161157d565b82525050565b600060a0820190506115b360008301886114d7565b6115c06020830187611518565b6115cd604083018661158f565b6115da60608301856114d7565b6115e760808301846114d7565b9695505050505050565b600060208201905061160660008301846114d7565b92915050565b61161581611506565b811461162057600080fd5b50565b6000813590506116328161160c565b92915050565b6000806040838503121561164f5761164e61146a565b5b600061165d85828601611495565b925050602061166e85828601611623565b9150509250929050565b60006101208201905061168e600083018c6114d7565b61169b602083018b6114d7565b6116a8604083018a611518565b6116b56060830189611518565b6116c260808301886114d7565b6116cf60a083018761158f565b6116dc60c08301866114d7565b6116e960e08301856114d7565b6116f76101008301846114d7565b9a9950505050505050505050565b60006020828403121561171b5761171a61146a565b5b600061172984828501611623565b91505092915050565b60008115159050919050565b61174781611732565b82525050565b6000602082019050611762600083018461173e565b92915050565b600080fd5b600080fd5b6000601f19601f8301169050919050565b7f4e487b7100000000000000000000000000000000000000000000000000000000600052604160045260246000fd5b6117bb82611772565b810181811067ffffffffffffffff821117156117da576117d9611783565b5b80604052505050565b60006117ed611460565b90506117f982826117b2565b919050565b600067ffffffffffffffff82111561181957611818611783565b5b61182282611772565b9050602081019050919050565b82818337600083830152505050565b600061185161184c846117fe565b6117e3565b90508281526020810184848401111561186d5761186c61176d565b5b61187884828561182f565b509392505050565b600082601f83011261189557611894611768565b5b81356118a584826020860161183e565b91505092915050565b60008060008060008060c087890312156118cb576118ca61146a565b5b600087013567ffffffffffffffff8111156118e9576118e861146f565b5b6118f589828a01611880565b965050602087013567ffffffffffffffff8111156119165761191561146f565b5b61192289828a01611880565b955050604087013567ffffffffffffffff8111156119435761194261146f565b5b61194f89828a01611880565b945050606087013567ffffffffffffffff8111156119705761196f61146f565b5b61197c89828a01611880565b935050608087013567ffffffffffffffff81111561199d5761199c61146f565b5b6119a989828a01611880565b92505060a06119ba89828a01611495565b9150509295509295509295565b60006119d2826114e6565b9050919050565b6119e2816119c7565b81146119ed57600080fd5b50565b6000813590506119ff816119d9565b92915050565b60008060408385031215611a1c57611a1b61146a565b5b6000611a2a85828601611495565b9250506020611a3b858286016119f0565b9150509250929050565b60008060408385031215611a5c57611a5b61146a565b5b6000611a6a858286016119f0565b9250506020611a7b85828601611495565b9150509250929050565b600081519050919050565b600082825260208201905092915050565b60005b83811015611abf578082015181840152602081019050611aa4565b60008484015250505050565b6000611ad682611a85565b611ae08185611a90565b9350611af0818560208601611aa1565b611af981611772565b840191505092915050565b600061012082019050611b1a600083018c611518565b8181036020830152611b2c818b611acb565b90508181036040830152611b40818a611acb565b90508181036060830152611b548189611acb565b90508181036080830152611b688188611acb565b905081810360a0830152611b7c8187611acb565b9050611b8b60c08301866114d7565b611b9860e08301856114d7565b611ba66101008301846114d7565b9a9950505050505050505050565b7f4e487b7100000000000000000000000000000000000000000000000000000000600052603260045260246000fd5b7f4f6e6c792074686520637573746f6d65722063616e20636f6e6669726d20746860008201527f6520736572766963650000000000000000000000000000000000000000000000602082015250565b6000611c3f602983611a90565b9150611c4a82611be3565b604082019050919050565b60006020820190508181036000830152611c6e81611c32565b9050919050565b7f4e487b7100000000000000000000000000000000000000000000000000000000600052601160045260246000fd5b6000611caf82611474565b9150611cba83611474565b9250828201905080821115611cd257611cd1611c75565b5b92915050565b6000611ce382611474565b91507fffffffffffffffffffffffffffffffffffffffffffffffffffffffffffffffff8203611d1557611d14611c75565b5b600182019050919050565b7f4f6e6c79207468652056656e646f722063616e20636f6e6669726d207365727660008201527f69636520636f6d706c6574656400000000000000000000000000000000000000602082015250565b6000611d7c602d83611a90565b9150611d8782611d20565b604082019050919050565b60006020820190508181036000830152611dab81611d6f565b9050919050565b7f4f6e6c792074686520437573746f6d65722063616e20636f6e6669726d20736560008201527f727669636520636f6d706c657465640000000000000000000000000000000000602082015250565b6000611e0e602f83611a90565b9150611e1982611db2565b604082019050919050565b60006020820190508181036000830152611e3d81611e01565b9050919050565b7f56656e646f7220616c7265616479206578697374730000000000000000000000600082015250565b6000611e7a601583611a90565b9150611e8582611e44565b602082019050919050565b60006020820190508181036000830152611ea981611e6d565b9050919050565b7f4e487b7100000000000000000000000000000000000000000000000000000000600052602260045260246000fd5b60006002820490506001821680611ef757607f821691505b602082108103611f0a57611f09611eb0565b5b50919050565b60008190508160005260206000209050919050565b60006020601f8301049050919050565b600082821b905092915050565b600060088302611f727fffffffffffffffffffffffffffffffffffffffffffffffffffffffffffffffff82611f35565b611f7c8683611f35565b95508019841693508086168417925050509392505050565b6000819050919050565b6000611fb9611fb4611faf84611474565b611f94565b611474565b9050919050565b6000819050919050565b611fd383611f9e565b611fe7611fdf82611fc0565b848454611f42565b825550505050565b600090565b611ffc611fef565b612007818484611fca565b505050565b5b8181101561202b57612020600082611ff4565b60018101905061200d565b5050565b601f8211156120705761204181611f10565b61204a84611f25565b81016020851015612059578190505b61206d61206585611f25565b83018261200c565b50505b505050565b600082821c905092915050565b600061209360001984600802612075565b1980831691505092915050565b60006120ac8383612082565b9150826002028217905092915050565b6120c582611a85565b67ffffffffffffffff8111156120de576120dd611783565b5b6120e88254611edf565b6120f382828561202f565b600060209050601f8311600181146121265760008415612114578287015190505b61211e85826120a0565b865550612186565b601f19841661213486611f10565b60005b8281101561215c57848901518255600182019150602085019450602081019050612137565b868310156121795784890151612175601f891682612082565b8355505b6001600288020188555050505b505050505050565b600081905092915050565b50565b60006121a960008361218e565b91506121b482612199565b600082019050919050565b60006121ca8261219c565b9150819050919050565b7f4661696c656420746f2073656e64204574686572000000000000000000000000600082015250565b600061220a601483611a90565b9150612215826121d4565b602082019050919050565b60006020820190508181036000830152612239816121fd565b905091905056fea2646970667358221220bd995211f127f7ed9cb9921a81f67c0027d41e13859447203fcc3284f875db7864736f6c63430008110033",
  "linkReferences": {},
  "deployedLinkReferences": {}
}