{
  "_format": "hh-sol-artifact-1",
  "contractName": "Helpa",
  "sourceName": "contracts/Helpa.sol",
  "abi": [
    {
      "inputs": [
        {
          "internalType": "uint256",
          "name": "_index",
          "type": "uint256"
        }
      ],
      "name": "confirmService",
      "outputs": [],
      "stateMutability": "nonpayable",
      "type": "function"
    },
    {
      "inputs": [
        {
          "internalType": "uint256",
          "name": "vendorIndex",
          "type": "uint256"
        },
        {
          "internalType": "address payable",
          "name": "vendor",
          "type": "address"
        }
      ],
      "name": "createTransaction",
      "outputs": [],
      "stateMutability": "payable",
      "type": "function"
    },
    {
      "inputs": [
        {
          "internalType": "string",
          "name": "_businessName",
          "type": "string"
        },
        {
          "internalType": "string",
          "name": "_profession",
          "type": "string"
        },
        {
          "internalType": "string",
          "name": "_UDName",
          "type": "string"
        },
        {
          "internalType": "string",
          "name": "_imgUrl",
          "type": "string"
        },
        {
          "internalType": "string",
          "name": "_description",
          "type": "string"
        },
        {
          "internalType": "uint256",
          "name": "_price",
          "type": "uint256"
        }
      ],
      "name": "createVendor",
      "outputs": [],
      "stateMutability": "nonpayable",
      "type": "function"
    },
    {
      "inputs": [],
      "name": "getBal",
      "outputs": [
        {
          "internalType": "uint256",
          "name": "",
          "type": "uint256"
        }
      ],
      "stateMutability": "view",
      "type": "function"
    },
    {
      "inputs": [],
      "name": "getTransactionCount",
      "outputs": [
        {
          "internalType": "uint256",
          "name": "",
          "type": "uint256"
        }
      ],
      "stateMutability": "view",
      "type": "function"
    },
    {
      "inputs": [
        {
          "internalType": "uint256",
          "name": "_index",
          "type": "uint256"
        }
      ],
      "name": "getTransactions",
      "outputs": [
        {
          "internalType": "uint256",
          "name": "transactionIndex",
          "type": "uint256"
        },
        {
          "internalType": "uint256",
          "name": "vendorIndex",
          "type": "uint256"
        },
        {
          "internalType": "address",
          "name": "vendor",
          "type": "address"
        },
        {
          "internalType": "address",
          "name": "customer",
          "type": "address"
        },
        {
          "internalType": "uint256",
          "name": "amount",
          "type": "uint256"
        },
        {
          "internalType": "enum Helpa.Status",
          "name": "status",
          "type": "uint8"
        },
        {
          "internalType": "uint256",
          "name": "dateCreated",
          "type": "uint256"
        },
        {
          "internalType": "uint256",
          "name": "dateCompleted",
          "type": "uint256"
        },
        {
          "internalType": "uint256",
          "name": "dateReviewing",
          "type": "uint256"
        }
      ],
      "stateMutability": "view",
      "type": "function"
    },
    {
      "inputs": [],
      "name": "getVendorCount",
      "outputs": [
        {
          "internalType": "uint256",
          "name": "",
          "type": "uint256"
        }
      ],
      "stateMutability": "view",
      "type": "function"
    },
    {
      "inputs": [
        {
          "internalType": "uint256",
          "name": "_index",
          "type": "uint256"
        }
      ],
      "name": "getVendors",
      "outputs": [
        {
          "internalType": "address",
          "name": "vendorAddress",
          "type": "address"
        },
        {
          "internalType": "string",
          "name": "businessName",
          "type": "string"
        },
        {
          "internalType": "string",
          "name": "UDName",
          "type": "string"
        },
        {
          "internalType": "string",
          "name": "imgUrl",
          "type": "string"
        },
        {
          "internalType": "string",
          "name": "description",
          "type": "string"
        },
        {
          "internalType": "string",
          "name": "profession",
          "type": "string"
        },
        {
          "internalType": "uint256",
          "name": "price",
          "type": "uint256"
        },
        {
          "internalType": "uint256",
          "name": "totalAmount",
          "type": "uint256"
        },
        {
          "internalType": "uint256",
          "name": "transCount",
          "type": "uint256"
        }
      ],
      "stateMutability": "view",
      "type": "function"
    },
    {
      "inputs": [
        {
          "internalType": "uint256",
          "name": "_index",
          "type": "uint256"
        }
      ],
      "name": "serviceReviewing",
      "outputs": [],
      "stateMutability": "nonpayable",
      "type": "function"
    },
    {
      "inputs": [
        {
          "internalType": "address payable",
          "name": "_to",
          "type": "address"
        },
        {
          "internalType": "uint256",
          "name": "_amount",
          "type": "uint256"
        }
      ],
      "name": "transfer",
      "outputs": [
        {
          "internalType": "bool",
          "name": "",
          "type": "bool"
        }
      ],
      "stateMutability": "nonpayable",
      "type": "function"
    },
    {
      "inputs": [],
      "name": "vendorCount",
      "outputs": [
        {
          "internalType": "uint256",
          "name": "",
          "type": "uint256"
        }
      ],
      "stateMutability": "view",
      "type": "function"
    },
    {
      "inputs": [
        {
          "internalType": "address",
          "name": "",
          "type": "address"
        }
      ],
      "name": "vendorExists",
      "outputs": [
        {
          "internalType": "bool",
          "name": "",
          "type": "bool"
        }
      ],
      "stateMutability": "view",
      "type": "function"
    }
  ],
  "bytecode": "0x608060405234801561001057600080fd5b50611c53806100206000396000f3fe6080604052600436106100a75760003560e01c80637cf4c543116100645780637cf4c543146101d65780638858287b146101f2578063a12eba7c1461021d578063a9059cbb14610248578063dce9ed6114610285578063dd970f10146102ae576100a7565b806325caa262146100ac5780632e7700f0146100d7578063572f9b39146101025780635742177c1461012b5780635c05873814610170578063609f2f4a146101ad575b600080fd5b3480156100b857600080fd5b506100c16102f3565b6040516100ce9190610f7b565b60405180910390f35b3480156100e357600080fd5b506100ec6102fb565b6040516100f99190610f7b565b60405180910390f35b34801561010e57600080fd5b5061012960048036038101906101249190610fd6565b610342565b005b34801561013757600080fd5b50610152600480360381019061014d9190610fd6565b610472565b604051610167999897969594939291906110bb565b60405180910390f35b34801561017c57600080fd5b5061019760048036038101906101929190611174565b610578565b6040516101a491906111bc565b60405180910390f35b3480156101b957600080fd5b506101d460048036038101906101cf919061131d565b610598565b005b6101f060048036038101906101eb9190611474565b610778565b005b3480156101fe57600080fd5b506102076109ad565b6040516102149190610f7b565b60405180910390f35b34801561022957600080fd5b506102326109b3565b60405161023f9190610f7b565b60405180910390f35b34801561025457600080fd5b5061026f600480360381019061026a91906114b4565b6109bc565b60405161027c91906111bc565b60405180910390f35b34801561029157600080fd5b506102ac60048036038101906102a79190610fd6565b610a73565b005b3480156102ba57600080fd5b506102d560048036038101906102d09190610fd6565b610c19565b6040516102ea99989796959493929190611573565b60405180910390f35b600047905090565b6000600160003373ffffffffffffffffffffffffffffffffffffffff1673ffffffffffffffffffffffffffffffffffffffff16815260200190815260200160002054905090565b6000600260003373ffffffffffffffffffffffffffffffffffffffff1673ffffffffffffffffffffffffffffffffffffffff168152602001908152602001600020828154811061039557610394611623565b5b9060005260206000209060080201905060006103d98260010160009054906101000a900473ffffffffffffffffffffffffffffffffffffffff1683600301546109bc565b9050801561046d5760038260040160006101000a81548160ff0219169083600381111561040957610408611044565b5b0217905550428260060181905550600060036000846000015481526020019081526020016000209050826003015481600701600082825461044a9190611681565b92505081905550806008016000815480929190610466906116b5565b9190505550505b505050565b600080600080600080600080600080600260003373ffffffffffffffffffffffffffffffffffffffff1673ffffffffffffffffffffffffffffffffffffffff1681526020019081526020016000208b815481106104d2576104d1611623565b5b906000526020600020906008020190508a81600001548260010160009054906101000a900473ffffffffffffffffffffffffffffffffffffffff168360020160009054906101000a900473ffffffffffffffffffffffffffffffffffffffff1684600301548560040160009054906101000a900460ff16866005015487600601548860070154995099509950995099509950995099509950509193959799909294969850565b60046020528060005260406000206000915054906101000a900460ff1681565b60001515600460003373ffffffffffffffffffffffffffffffffffffffff1673ffffffffffffffffffffffffffffffffffffffff16815260200190815260200160002060009054906101000a900460ff1615151461062b576040517f08c379a000000000000000000000000000000000000000000000000000000000815260040161062290611749565b60405180910390fd5b600080600060036000805481526020019081526020016000209050338160000160006101000a81548173ffffffffffffffffffffffffffffffffffffffff021916908373ffffffffffffffffffffffffffffffffffffffff1602179055508881600101908161069a9190611975565b50878160020190816106ac9190611975565b50868160030190816106be9190611975565b50858160040190816106d09190611975565b50848160050190816106e29190611975565b508381600601819055508281600701819055508181600801819055506001600460003373ffffffffffffffffffffffffffffffffffffffff1673ffffffffffffffffffffffffffffffffffffffff16815260200190815260200160002060006101000a81548160ff021916908315150217905550600080815480929190610768906116b5565b9190505550505050505050505050565b600060019050600260003373ffffffffffffffffffffffffffffffffffffffff1673ffffffffffffffffffffffffffffffffffffffff1681526020019081526020016000206040518061010001604052808581526020018473ffffffffffffffffffffffffffffffffffffffff1681526020013373ffffffffffffffffffffffffffffffffffffffff1681526020013481526020018360038111156108205761081f611044565b5b815260200142815260200160008152602001600081525090806001815401808255809150506001900390600052602060002090600802016000909190919091506000820151816000015560208201518160010160006101000a81548173ffffffffffffffffffffffffffffffffffffffff021916908373ffffffffffffffffffffffffffffffffffffffff16021790555060408201518160020160006101000a81548173ffffffffffffffffffffffffffffffffffffffff021916908373ffffffffffffffffffffffffffffffffffffffff1602179055506060820151816003015560808201518160040160006101000a81548160ff0219169083600381111561092d5761092c611044565b5b021790555060a0820151816005015560c0820151816006015560e08201518160070155505060018060003373ffffffffffffffffffffffffffffffffffffffff1673ffffffffffffffffffffffffffffffffffffffff16815260200190815260200160002060008282546109a19190611681565b92505081905550505050565b60005481565b60008054905090565b6000808373ffffffffffffffffffffffffffffffffffffffff16836040516109e390611a78565b60006040518083038185875af1925050503d8060008114610a20576040519150601f19603f3d011682016040523d82523d6000602084013e610a25565b606091505b5050905080610a69576040517f08c379a0000000000000000000000000000000000000000000000000000000008152600401610a6090611ad9565b60405180910390fd5b8091505092915050565b6000600260003373ffffffffffffffffffffffffffffffffffffffff1673ffffffffffffffffffffffffffffffffffffffff1681526020019081526020016000208281548110610ac657610ac5611623565b5b906000526020600020906008020190503373ffffffffffffffffffffffffffffffffffffffff168160010160009054906101000a900473ffffffffffffffffffffffffffffffffffffffff1673ffffffffffffffffffffffffffffffffffffffff1614610b68576040517f08c379a0000000000000000000000000000000000000000000000000000000008152600401610b5f90611b6b565b60405180910390fd5b600380811115610b7b57610b7a611044565b5b8160040160009054906101000a900460ff166003811115610b9f57610b9e611044565b5b03610bdf576040517f08c379a0000000000000000000000000000000000000000000000000000000008152600401610bd690611bfd565b60405180910390fd5b60028160040160006101000a81548160ff02191690836003811115610c0757610c06611044565b5b02179055504281600701819055505050565b60006060806060806060600080600080600360008c815260200190815260200160002090508060000160009054906101000a900473ffffffffffffffffffffffffffffffffffffffff168160010182600301836004018460050185600201866006015487600701548860080154878054610c9290611798565b80601f0160208091040260200160405190810160405280929190818152602001828054610cbe90611798565b8015610d0b5780601f10610ce057610100808354040283529160200191610d0b565b820191906000526020600020905b815481529060010190602001808311610cee57829003601f168201915b50505050509750868054610d1e90611798565b80601f0160208091040260200160405190810160405280929190818152602001828054610d4a90611798565b8015610d975780601f10610d6c57610100808354040283529160200191610d97565b820191906000526020600020905b815481529060010190602001808311610d7a57829003601f168201915b50505050509650858054610daa90611798565b80601f0160208091040260200160405190810160405280929190818152602001828054610dd690611798565b8015610e235780601f10610df857610100808354040283529160200191610e23565b820191906000526020600020905b815481529060010190602001808311610e0657829003601f168201915b50505050509550848054610e3690611798565b80601f0160208091040260200160405190810160405280929190818152602001828054610e6290611798565b8015610eaf5780601f10610e8457610100808354040283529160200191610eaf565b820191906000526020600020905b815481529060010190602001808311610e9257829003601f168201915b50505050509450838054610ec290611798565b80601f0160208091040260200160405190810160405280929190818152602001828054610eee90611798565b8015610f3b5780601f10610f1057610100808354040283529160200191610f3b565b820191906000526020600020905b815481529060010190602001808311610f1e57829003601f168201915b50505050509350995099509950995099509950995099509950509193959799909294969850565b6000819050919050565b610f7581610f62565b82525050565b6000602082019050610f906000830184610f6c565b92915050565b6000604051905090565b600080fd5b600080fd5b610fb381610f62565b8114610fbe57600080fd5b50565b600081359050610fd081610faa565b92915050565b600060208284031215610fec57610feb610fa0565b5b6000610ffa84828501610fc1565b91505092915050565b600073ffffffffffffffffffffffffffffffffffffffff82169050919050565b600061102e82611003565b9050919050565b61103e81611023565b82525050565b7f4e487b7100000000000000000000000000000000000000000000000000000000600052602160045260246000fd5b6004811061108457611083611044565b5b50565b600081905061109582611073565b919050565b60006110a582611087565b9050919050565b6110b58161109a565b82525050565b6000610120820190506110d1600083018c610f6c565b6110de602083018b610f6c565b6110eb604083018a611035565b6110f86060830189611035565b6111056080830188610f6c565b61111260a08301876110ac565b61111f60c0830186610f6c565b61112c60e0830185610f6c565b61113a610100830184610f6c565b9a9950505050505050505050565b61115181611023565b811461115c57600080fd5b50565b60008135905061116e81611148565b92915050565b60006020828403121561118a57611189610fa0565b5b60006111988482850161115f565b91505092915050565b60008115159050919050565b6111b6816111a1565b82525050565b60006020820190506111d160008301846111ad565b92915050565b600080fd5b600080fd5b6000601f19601f8301169050919050565b7f4e487b7100000000000000000000000000000000000000000000000000000000600052604160045260246000fd5b61122a826111e1565b810181811067ffffffffffffffff82111715611249576112486111f2565b5b80604052505050565b600061125c610f96565b90506112688282611221565b919050565b600067ffffffffffffffff821115611288576112876111f2565b5b611291826111e1565b9050602081019050919050565b82818337600083830152505050565b60006112c06112bb8461126d565b611252565b9050828152602081018484840111156112dc576112db6111dc565b5b6112e784828561129e565b509392505050565b600082601f830112611304576113036111d7565b5b81356113148482602086016112ad565b91505092915050565b60008060008060008060c0878903121561133a57611339610fa0565b5b600087013567ffffffffffffffff81111561135857611357610fa5565b5b61136489828a016112ef565b965050602087013567ffffffffffffffff81111561138557611384610fa5565b5b61139189828a016112ef565b955050604087013567ffffffffffffffff8111156113b2576113b1610fa5565b5b6113be89828a016112ef565b945050606087013567ffffffffffffffff8111156113df576113de610fa5565b5b6113eb89828a016112ef565b935050608087013567ffffffffffffffff81111561140c5761140b610fa5565b5b61141889828a016112ef565b92505060a061142989828a01610fc1565b9150509295509295509295565b600061144182611003565b9050919050565b61145181611436565b811461145c57600080fd5b50565b60008135905061146e81611448565b92915050565b6000806040838503121561148b5761148a610fa0565b5b600061149985828601610fc1565b92505060206114aa8582860161145f565b9150509250929050565b600080604083850312156114cb576114ca610fa0565b5b60006114d98582860161145f565b92505060206114ea85828601610fc1565b9150509250929050565b600081519050919050565b600082825260208201905092915050565b60005b8381101561152e578082015181840152602081019050611513565b60008484015250505050565b6000611545826114f4565b61154f81856114ff565b935061155f818560208601611510565b611568816111e1565b840191505092915050565b600061012082019050611589600083018c611035565b818103602083015261159b818b61153a565b905081810360408301526115af818a61153a565b905081810360608301526115c3818961153a565b905081810360808301526115d7818861153a565b905081810360a08301526115eb818761153a565b90506115fa60c0830186610f6c565b61160760e0830185610f6c565b611615610100830184610f6c565b9a9950505050505050505050565b7f4e487b7100000000000000000000000000000000000000000000000000000000600052603260045260246000fd5b7f4e487b7100000000000000000000000000000000000000000000000000000000600052601160045260246000fd5b600061168c82610f62565b915061169783610f62565b92508282019050808211156116af576116ae611652565b5b92915050565b60006116c082610f62565b91507fffffffffffffffffffffffffffffffffffffffffffffffffffffffffffffffff82036116f2576116f1611652565b5b600182019050919050565b7f56656e646f7220616c7265616479206578697374730000000000000000000000600082015250565b60006117336015836114ff565b915061173e826116fd565b602082019050919050565b6000602082019050818103600083015261176281611726565b9050919050565b7f4e487b7100000000000000000000000000000000000000000000000000000000600052602260045260246000fd5b600060028204905060018216806117b057607f821691505b6020821081036117c3576117c2611769565b5b50919050565b60008190508160005260206000209050919050565b60006020601f8301049050919050565b600082821b905092915050565b60006008830261182b7fffffffffffffffffffffffffffffffffffffffffffffffffffffffffffffffff826117ee565b61183586836117ee565b95508019841693508086168417925050509392505050565b6000819050919050565b600061187261186d61186884610f62565b61184d565b610f62565b9050919050565b6000819050919050565b61188c83611857565b6118a061189882611879565b8484546117fb565b825550505050565b600090565b6118b56118a8565b6118c0818484611883565b505050565b5b818110156118e4576118d96000826118ad565b6001810190506118c6565b5050565b601f821115611929576118fa816117c9565b611903846117de565b81016020851015611912578190505b61192661191e856117de565b8301826118c5565b50505b505050565b600082821c905092915050565b600061194c6000198460080261192e565b1980831691505092915050565b6000611965838361193b565b9150826002028217905092915050565b61197e826114f4565b67ffffffffffffffff811115611997576119966111f2565b5b6119a18254611798565b6119ac8282856118e8565b600060209050601f8311600181146119df57600084156119cd578287015190505b6119d78582611959565b865550611a3f565b601f1984166119ed866117c9565b60005b82811015611a15578489015182556001820191506020850194506020810190506119f0565b86831015611a325784890151611a2e601f89168261193b565b8355505b6001600288020188555050505b505050505050565b600081905092915050565b50565b6000611a62600083611a47565b9150611a6d82611a52565b600082019050919050565b6000611a8382611a55565b9150819050919050565b7f4661696c656420746f2073656e64204574686572000000000000000000000000600082015250565b6000611ac36014836114ff565b9150611ace82611a8d565b602082019050919050565b60006020820190508181036000830152611af281611ab6565b9050919050565b7f4f6e6c79207468652056656e646f722063616e20636f6e6669726d207365727660008201527f69636520636f6d706c6574656400000000000000000000000000000000000000602082015250565b6000611b55602d836114ff565b9150611b6082611af9565b604082019050919050565b60006020820190508181036000830152611b8481611b48565b9050919050565b7f4f6e6c792074686520437573746f6d65722063616e20636f6e6669726d20736560008201527f727669636520636f6d706c657465640000000000000000000000000000000000602082015250565b6000611be7602f836114ff565b9150611bf282611b8b565b604082019050919050565b60006020820190508181036000830152611c1681611bda565b905091905056fea26469706673582212206f6f24100d2097da83a1f87276aa6ef2f1435c07930c5ce3d0cd2329fd465bc264736f6c63430008110033",
  "linkReferences": {},
  "deployedLinkReferences": {}
}